{"contracts/SaleContract.sol":{"EtherfunSale":{"abi":[{"inputs":[{"internalType":"string","name":"_name","type":"string"},{"internalType":"string","name":"_symbol","type":"string"},{"internalType":"address","name":"_creator","type":"address"},{"internalType":"address","name":"_factory","type":"address"},{"internalType":"uint256","name":"_totalTokens","type":"uint256"},{"internalType":"uint256","name":"_k","type":"uint256"},{"internalType":"uint256","name":"_alpha","type":"uint256"},{"internalType":"uint256","name":"_saleGoal","type":"uint256"},{"internalType":"uint8","name":"_creatorshare","type":"uint8"},{"internalType":"uint256","name":"_feePercent","type":"uint256"}],"stateMutability":"nonpayable","type":"constructor"},{"inputs":[{"internalType":"uint256","name":"x","type":"uint256"},{"internalType":"uint256","name":"y","type":"uint256"}],"name":"PRBMath_MulDiv18_Overflow","type":"error"},{"inputs":[{"internalType":"uint256","name":"x","type":"uint256"},{"internalType":"uint256","name":"y","type":"uint256"},{"internalType":"uint256","name":"denominator","type":"uint256"}],"name":"PRBMath_MulDiv_Overflow","type":"error"},{"inputs":[{"internalType":"UD60x18","name":"x","type":"uint256"}],"name":"PRBMath_UD60x18_Exp2_InputTooBig","type":"error"},{"inputs":[{"internalType":"UD60x18","name":"x","type":"uint256"}],"name":"PRBMath_UD60x18_Exp_InputTooBig","type":"error"},{"inputs":[{"internalType":"UD60x18","name":"x","type":"uint256"}],"name":"PRBMath_UD60x18_Log_InputTooSmall","type":"error"},{"anonymous":false,"inputs":[{"indexed":true,"internalType":"address","name":"saleContract","type":"address"},{"indexed":true,"internalType":"address","name":"negativeToken","type":"address"},{"indexed":true,"internalType":"address","name":"positiveToken","type":"address"},{"indexed":false,"internalType":"uint256","name":"perTokenAmont","type":"uint256"},{"indexed":false,"internalType":"uint256","name":"timeStamp","type":"uint256"}],"name":"TokenLaunched","type":"event"},{"anonymous":false,"inputs":[{"indexed":true,"internalType":"address","name":"buyer","type":"address"},{"indexed":false,"internalType":"uint256","name":"ethAmount","type":"uint256"},{"indexed":false,"internalType":"uint256","name":"tokenAmount","type":"uint256"},{"indexed":false,"internalType":"uint256","name":"timestamp","type":"uint256"}],"name":"TokensPurchased","type":"event"},{"anonymous":false,"inputs":[{"indexed":true,"internalType":"address","name":"seller","type":"address"},{"indexed":false,"internalType":"uint256","name":"tokenAmount","type":"uint256"},{"indexed":false,"internalType":"uint256","name":"ethAmount","type":"uint256"},{"indexed":false,"internalType":"uint256","name":"timestamp","type":"uint256"}],"name":"TokensSold","type":"event"},{"inputs":[],"name":"alpha","outputs":[{"internalType":"uint256","name":"","type":"uint256"}],"stateMutability":"view","type":"function"},{"inputs":[{"internalType":"address","name":"user","type":"address"},{"internalType":"uint256","name":"minTokensOut","type":"uint256"}],"name":"buy","outputs":[{"internalType":"uint256","name":"","type":"uint256"},{"internalType":"uint256","name":"","type":"uint256"}],"stateMutability":"payable","type":"function"},{"inputs":[{"internalType":"address","name":"user","type":"address"}],"name":"claimTokens","outputs":[],"stateMutability":"nonpayable","type":"function"},{"inputs":[],"name":"creator","outputs":[{"internalType":"address","name":"","type":"address"}],"stateMutability":"view","type":"function"},{"inputs":[],"name":"creatorshare","outputs":[{"internalType":"uint8","name":"","type":"uint8"}],"stateMutability":"view","type":"function"},{"inputs":[],"name":"factory","outputs":[{"internalType":"address","name":"","type":"address"}],"stateMutability":"view","type":"function"},{"inputs":[],"name":"feePercent","outputs":[{"internalType":"uint256","name":"","type":"uint256"}],"stateMutability":"view","type":"function"},{"inputs":[],"name":"feeWallet","outputs":[{"internalType":"address","name":"","type":"address"}],"stateMutability":"view","type":"function"},{"inputs":[],"name":"getAllHistoricalData","outputs":[{"components":[{"internalType":"uint256","name":"timestamp","type":"uint256"},{"internalType":"uint256","name":"totalRaised","type":"uint256"}],"internalType":"struct EtherfunSale.HistoricalData[]","name":"","type":"tuple[]"}],"stateMutability":"view","type":"function"},{"inputs":[],"name":"getAllTokenHolders","outputs":[{"internalType":"address[]","name":"","type":"address[]"}],"stateMutability":"view","type":"function"},{"inputs":[{"internalType":"uint256","name":"tokenAmount","type":"uint256"}],"name":"getEthIn","outputs":[{"internalType":"uint256","name":"","type":"uint256"}],"stateMutability":"view","type":"function"},{"inputs":[],"name":"getTokenHoldersCount","outputs":[{"internalType":"uint256","name":"","type":"uint256"}],"stateMutability":"view","type":"function"},{"inputs":[{"internalType":"uint256","name":"ethAmount","type":"uint256"}],"name":"getTokenIn","outputs":[{"internalType":"uint256","name":"","type":"uint256"}],"stateMutability":"view","type":"function"},{"inputs":[{"internalType":"uint256","name":"","type":"uint256"}],"name":"historicalData","outputs":[{"internalType":"uint256","name":"timestamp","type":"uint256"},{"internalType":"uint256","name":"totalRaised","type":"uint256"}],"stateMutability":"view","type":"function"},{"inputs":[{"internalType":"address","name":"","type":"address"}],"name":"isTokenHolder","outputs":[{"internalType":"bool","name":"","type":"bool"}],"stateMutability":"view","type":"function"},{"inputs":[],"name":"k","outputs":[{"internalType":"uint256","name":"","type":"uint256"}],"stateMutability":"view","type":"function"},{"inputs":[{"internalType":"address","name":"_launchContract","type":"address"},{"internalType":"address","name":"firstBuyer","type":"address"},{"internalType":"address","name":"saleInitiator","type":"address"}],"name":"launchSale","outputs":[],"stateMutability":"nonpayable","type":"function"},{"inputs":[],"name":"launched","outputs":[{"internalType":"bool","name":"","type":"bool"}],"stateMutability":"view","type":"function"},{"inputs":[],"name":"maxContribution","outputs":[{"internalType":"uint256","name":"","type":"uint256"}],"stateMutability":"view","type":"function"},{"inputs":[],"name":"name","outputs":[{"internalType":"string","name":"","type":"string"}],"stateMutability":"view","type":"function"},{"inputs":[],"name":"negativeToken","outputs":[{"internalType":"address","name":"","type":"address"}],"stateMutability":"view","type":"function"},{"inputs":[],"name":"positiveToken","outputs":[{"internalType":"address","name":"","type":"address"}],"stateMutability":"view","type":"function"},{"inputs":[],"name":"saleGoal","outputs":[{"internalType":"uint256","name":"","type":"uint256"}],"stateMutability":"view","type":"function"},{"inputs":[{"internalType":"address","name":"user","type":"address"},{"internalType":"uint256","name":"tokenAmount","type":"uint256"},{"internalType":"uint256","name":"minEthOut","type":"uint256"}],"name":"sell","outputs":[{"internalType":"uint256","name":"","type":"uint256"},{"internalType":"uint256","name":"","type":"uint256"}],"stateMutability":"nonpayable","type":"function"},{"inputs":[],"name":"status","outputs":[{"internalType":"bool","name":"","type":"bool"}],"stateMutability":"view","type":"function"},{"inputs":[],"name":"symbol","outputs":[{"internalType":"string","name":"","type":"string"}],"stateMutability":"view","type":"function"},{"inputs":[{"internalType":"address","name":"","type":"address"}],"name":"tokenBalances","outputs":[{"internalType":"uint256","name":"","type":"uint256"}],"stateMutability":"view","type":"function"},{"inputs":[{"internalType":"uint256","name":"","type":"uint256"}],"name":"tokenHolders","outputs":[{"internalType":"address","name":"","type":"address"}],"stateMutability":"view","type":"function"},{"inputs":[],"name":"tokensSold","outputs":[{"internalType":"uint256","name":"","type":"uint256"}],"stateMutability":"view","type":"function"},{"inputs":[],"name":"totalRaised","outputs":[{"internalType":"uint256","name":"","type":"uint256"}],"stateMutability":"view","type":"function"},{"inputs":[],"name":"totalTokens","outputs":[{"internalType":"uint256","name":"","type":"uint256"}],"stateMutability":"view","type":"function"},{"inputs":[],"name":"wethAddress","outputs":[{"internalType":"address","name":"","type":"address"}],"stateMutability":"view","type":"function"},{"stateMutability":"payable","type":"receive"}],"evm":{"bytecode":{"linkReferences":{},"object":"60806040523462000441576200397c803803806200001d8162000446565b928339810161014082820312620004415781516001600160401b0381116200044157816200004d9184016200046c565b602083015190916001600160401b0382116200044157620000709184016200046c565b916200007f60408201620004de565b6200008d60608301620004de565b90608083015160a08401519060c08501519260e0860151946101008701519660ff88168803620004415761012001516001600055601280546001600160a01b031990811673c02aaa39b223fe8d0a0e5c4f27ead9083c756cc2179091556014805490911673e97203b9ad2b6efcdddda642c798020c56ebffc3179055885190986001600160401b038211620003395760015490600182811c9216801562000436575b6020831014620003185781601f849311620003d5575b50602090601f83116001146200035b576000926200034f575b50508160011b916000199060031b1c1916176001555b88516001600160401b0381116200033957600254600181811c911680156200032e575b60208210146200031857601f8111620002c3575b506020601f82116001146200024657819060ff9a9b6000926200023a575b50508160011b916000199060031b1c1916176002555b60018060a01b0380921660018060a01b031960055416176005551660018060a01b03196006541617600655600755600b55600c55600d551660ff19600a541617600a556013556000600e556040516134489081620004f48239f35b015190503880620001c9565b600260009081526000805160206200393c8339815191529b90601f198416905b818110620002aa57509160ff9b9c9184600195941062000290575b505050811b01600255620001df565b015160001960f88460031b161c1916905538808062000281565b838301518e556001909d019c6020938401930162000266565b60026000526000805160206200393c833981519152601f830160051c81016020841062000310575b601f830160051c8201811062000303575050620001ab565b60008155600101620002eb565b5080620002eb565b634e487b7160e01b600052602260045260246000fd5b90607f169062000197565b634e487b7160e01b600052604160045260246000fd5b0151905038806200015e565b600160009081526000805160206200395c8339815191529350601f198516905b818110620003bc5750908460019594939210620003a2575b505050811b0160015562000174565b015160001960f88460031b161c1916905538808062000393565b929360206001819287860151815501950193016200037b565b60016000529091506000805160206200395c833981519152601f840160051c8101602085106200042e575b90849392915b601f830160051c820181106200041e57505062000145565b6000815585945060010162000406565b508062000400565b91607f16916200012f565b600080fd5b6040519190601f01601f191682016001600160401b038111838210176200033957604052565b919080601f84011215620004415782516001600160401b0381116200033957602090620004a2601f8201601f1916830162000446565b92818452828287010111620004415760005b818110620004ca57508260009394955001015290565b8581018301518482018401528201620004b4565b51906001600160a01b0382168203620004415756fe60808060405260043610156200001f575b5036156200001d57600080fd5b005b60003560e01c90816302d05d3f14620015ea5750806306fdde03146200153a578063089a122c14620015185780630efc51a714620014ee578063146ea6121462000f02578063200d2ed21462000eda57806332fb56ca1462000e0a578063468f3dcd1462000dea5780634f0e0ef31462000dbf578063518ab2a81462000d9f578063523fba7f1462000d6157806362f39bb41462000c755780636334a8c41462000c5257806365731fe91462000c0f5780636a27246214620009745780637e1c0c0914620009545780637fd6f15c14620009345780638091f3bf146200090c5780638d3d657614620008ec578063923108d914620008a557806395d89b4114620007af5780639650b8df1462000784578063b4f40c611462000764578063c45a01551462000739578063c5c4744c1462000719578063c7c049fc14620006f9578063cce7ec131462000425578063db1d0fd51462000405578063df8de3e7146200024a578063e963eb331462000208578063f25f4b5614620001dd5763fffe59e714620001ad573862000010565b34620001d8576000366003190112620001d8576004546040516001600160a01b039091168152602090f35b600080fd5b34620001d8576000366003190112620001d8576014546040516001600160a01b039091168152602090f35b34620001d8576020366003190112620001d857600435601554811015620001d8576200023660409162001734565b506001815491015482519182526020820152f35b34620001d857602080600319360112620001d85762000268620016cf565b6006546001600160a01b03929190620002859084163314620023ee565b6200028f62002516565b60ff600a5460081c1615620003cc578281169081600052600f835260406000205484600354169060011c9060405192858463a9059cbb60e01b9384825281600081620002f489886004840160209093929193604081019460018060a01b031681520152565b03925af180156200039e576200033f978795600092620003aa575b5060045416926040519889958694859384526004840160209093929193604081019460018060a01b031681520152565b03925af19283156200039e57600f936200036a575b5060005252600060408120556001600055600080f35b6200038e90833d851162000396575b6200038581836200166a565b8101906200271c565b508362000354565b503d62000379565b6040513d6000823e3d90fd5b620003c490873d891162000396576200038581836200166a565b50896200030f565b60405162461bcd60e51b815260048101839052601160248201527014d85b19481b9bdd081b185d5b98da1959607a1b6044820152606490fd5b34620001d8576000366003190112620001d8576020600c54604051908152f35b6040366003190112620001d8576200043c620016cf565b6006546001600160a01b0390620004579082163314620023ee565b6200046162002516565b600a54916200047760ff8460081c16156200242a565b600854926200048734856200221a565b600d549067016345785d8a00008201809211620006e35711620006aa573415620006775760ff620004bd9160101c16156200246f565b6064620004cd60135434620024a5565b0482620004db8234620017d8565b926200051484620004ec816200218e565b97620004fd6024358a1015620024b9565b6200050b89600e546200221a565b600e556200221a565b600855169283600052600f6020526040600020620005348682546200221a565b905583600052601160205260ff6040600020541615620005ff575b6000808093819360145416828215620005f5575bf1156200039e577f0d1a0d5e3d583a0e92588799dd06e50fd78c07daf05f0cc06d7b848b1ca445f18291604094600854600d541115620005de575b620005a86200256d565b85519182526020820152426040820152606090a260085490600052600f6020528160002054600160005582519182526020820152f35b6201000062ff000019600a541617600a556200059e565b506108fc62000563565b9060105491600160401b831015620006615760008093928193926200062c846001859601601055620016e6565b81549060031b90838b831b921b1916179055878352601160205260408320600160ff198254161790559350935050506200054f565b634e487b7160e01b600052604160045260246000fd5b60405162461bcd60e51b815260206004820152600b60248201526a139bc8115512081cd95b9d60aa1b6044820152606490fd5b60405162461bcd60e51b815260206004820152601160248201527014d85b194819dbd85b081c995858da1959607a1b6044820152606490fd5b634e487b7160e01b600052601160045260246000fd5b34620001d8576000366003190112620001d8576020600d54604051908152f35b34620001d8576000366003190112620001d8576020600854604051908152f35b34620001d8576000366003190112620001d8576006546040516001600160a01b039091168152602090f35b34620001d8576000366003190112620001d8576020600b54604051908152f35b34620001d8576000366003190112620001d8576003546040516001600160a01b039091168152602090f35b34620001d8576000366003190112620001d8576040516000600254620007d58162001610565b808452906001908181169081156200087c57506001146200081d575b620008198462000804818603826200166a565b6040519182916020835260208301906200168d565b0390f35b6002600090815292507f405787fa12a823e0f2b7631cc41b3ba8828b3321ca811111fa75cd3aa3bb5ace5b828410620008635750505081016020016200080482620007f1565b8054602085870181019190915290930192810162000848565b60ff191660208087019190915292151560051b85019092019250620008049150839050620007f1565b34620001d8576020366003190112620001d857600435601054811015620001d857620008d3602091620016e6565b905460405160039290921b1c6001600160a01b03168152f35b34620001d8576000366003190112620001d8576020600954604051908152f35b34620001d8576000366003190112620001d857602060ff600a5460081c166040519015158152f35b34620001d8576000366003190112620001d8576020601354604051908152f35b34620001d8576000366003190112620001d8576020600754604051908152f35b34620001d8576060366003190112620001d85762000991620016cf565b6006546001600160a01b039160243591620009b09084163314620023ee565b620009ba62002516565b600a5490620009d060ff8360081c16156200242a565b821562000bbe5783169182600052602091600f8352816040600020541062000b795760ff62000a049160101c16156200246f565b62000a0f816200176f565b9362000a20604435861015620024b9565b47851162000b3457606462000a3860135487620024a5565b049062000a6562000a4a8388620017d8565b9662000a5985600e54620017d8565b600e55600854620017d8565b60085584600052600f8452604060002062000a82848254620017d8565b905560008686811562000b29575b600092839283928392f1156200039e57600080809381936014541682821562000b1f575bf1156200039e577f6db63bebf1e6540277744df32846ebdb98385b1a73f2d5de49b28348add63f50839160409562000aeb6200256d565b86519182526020820152426040820152606090a260085491600052600f815282600020549060016000558351928352820152f35b506108fc62000ab4565b6108fc925062000a90565b60405162461bcd60e51b815260048101849052601d60248201527f496e73756666696369656e7420636f6e74726163742062616c616e63650000006044820152606490fd5b60405162461bcd60e51b815260048101849052601a60248201527f496e73756666696369656e7420746f6b656e2062616c616e63650000000000006044820152606490fd5b60405162461bcd60e51b815260206004820152602360248201527f546f6b656e20616d6f756e74206d75737420626520677265617465722074686160448201526206e20360ec1b6064820152608490fd5b34620001d8576020366003190112620001d8576001600160a01b0362000c34620016cf565b166000526011602052602060ff604060002054166040519015158152f35b34620001d8576000366003190112620001d857602060ff600a5416604051908152f35b34620001d8576000366003190112620001d85760155467ffffffffffffffff8111620006615760405160209062000cb2828460051b01826200166a565b828152818101928360156000527f55f448fdea98c4d29eb340757ef0a66cd03dbb9538908a6a81d96026b71ec4756000915b83831062000d325760408051878152865181890181905289928201908960005b82811062000d125784840385f35b855180518552820151848301529481019460409093019260010162000d04565b60028660019260405162000d46816200164d565b85548152848601548382015281520192019201919062000ce4565b34620001d8576020366003190112620001d8576001600160a01b0362000d86620016cf565b16600052600f6020526020604060002054604051908152f35b34620001d8576000366003190112620001d8576020600e54604051908152f35b34620001d8576000366003190112620001d8576012546040516001600160a01b039091168152602090f35b34620001d8576000366003190112620001d8576020601054604051908152f35b34620001d8576000366003190112620001d857604051806010548083526020809301809160106000527f1b6847dc741a1b0cd08d278845f9d819d87b734759afb55fe2de5cb82a9ae6729060005b8682821062000ebc57868662000e71828803836200166a565b604051928392818401908285525180915260408401929160005b82811062000e9b57505050500390f35b83516001600160a01b03168552869550938101939281019260010162000e8b565b83546001600160a01b03168552909301926001928301920162000e58565b34620001d8576000366003190112620001d857602060ff600a5460101c166040519015158152f35b34620001d8576060366003190112620001d85762000f1f620016cf565b6024356001600160a01b0381168103620001d857604435906001600160a01b0382168203620001d85762000f5f60018060a01b03600654163314620023ee565b62000f6962002516565b600a5462000f7e60ff8260081c16156200242a565b600854600d5411620014b15760ff8160101c16156200147f5761ff00191661010017600a5560405162000fd960088262000fbb60208201620025d4565b67706f73697469766560c01b8152036017198101845201826200166a565b6040516200100a60038262000ff16020820162002668565b62706f7360e81b815203601c198101845201826200166a565b6007546040519283610ce981011067ffffffffffffffff610ce986011117620006615783926200104c92610ce962002753863960011c91610ce98501620026ea565b03906000f080156200039e576040516200108e6008826200107060208201620025d4565b676e6567617469766560c01b8152036017198101845201826200166a565b60405190620010c0600383620010a76020820162002668565b626e656760e81b815203601c198101855201836200166a565b60075460011c9160405192610ce984019184831067ffffffffffffffff84111762000661578493620010fb93610ce9620027538739620026ea565b03906000f09384156200039e576bffffffffffffffffffffffff60a01b60018060a01b03831681600354161760035560018060a01b0386169060045416176004556200114d600754600e5490620017d8565b9460085460ff600a541660640360ff8111620006e35760649160ff62001175921690620024a5565b60405163095ea7b360e01b81526001600160a01b0385166004820152600189901c6024820152919004936020908290816000816044810103926001600160a01b03165af180156200039e576200145b575b5060405163095ea7b360e01b81526001600160a01b038381166004830152600188901c6024830152909160209183916044918391600091165af180156200039e5762001437575b506104b0420190814211620006e35760035460405163f305d71960e01b8082526001600160a01b039283166004830152600189811c6024840152600060448401529590951c6064820181905230608483015260a48201859052909390929091169060608460c48186865af180156200039e578895606095859262001415575b50600480546040519283526001600160a01b03169082015260019690961c602487015260006044870152606486019390935230608486015260a4850152839160c4918391905af180156200039e57620013df575b504780156200139a5760011c9060008080808581811596876200138f575b6001600160a01b031690f1156200039e57600080809381938796839162001384575b6001600160a01b031690f1156200039e5760018060a01b036003541660018060a01b0360045416916040519060011c81524260208201527ffedb51b13e7432bcb4a213b2be92ee7637c20671f653bf0892174f0e4a26175560403092a46001600055005b6108fc915062001320565b6108fc9150620012fe565b60405162461bcd60e51b815260206004820152601c60248201527f4e6f2062616c616e636520666f722063726561746f72207368617265000000006044820152606490fd5b620014059060603d6060116200140d575b620013fc81836200166a565b81019062002736565b5050620012e0565b503d620013f0565b6200142f90873d89116200140d57620013fc81836200166a565b50506200128c565b620014539060203d60201162000396576200038581836200166a565b50856200120d565b620014779060203d60201162000396576200038581836200166a565b5086620011c6565b60405162461bcd60e51b815260206004820152600a6024820152691b9bdd08189bdb99195960b21b6044820152606490fd5b60405162461bcd60e51b815260206004820152601560248201527414d85b194819dbd85b081b9bdd081c995858da1959605a1b6044820152606490fd5b34620001d8576020366003190112620001d8576020620015106004356200218e565b604051908152f35b34620001d8576020366003190112620001d8576020620015106004356200176f565b34620001d8576000366003190112620001d85760405160006001805490620015628262001610565b808552918181169081156200087c57506001146200158d57620008198462000804818603826200166a565b600081815292507fb10e2d527612073b26eecdfd717e6a320cf44b4afac2b0732d9fcbe2b7fa0cf65b828410620015d15750505081016020016200080482620007f1565b80546020858701810191909152909301928101620015b6565b34620001d8576000366003190112620001d8576005546001600160a01b03168152602090f35b90600182811c9216801562001642575b60208310146200162c57565b634e487b7160e01b600052602260045260246000fd5b91607f169162001620565b6040810190811067ffffffffffffffff8211176200066157604052565b90601f8019910116810190811067ffffffffffffffff8211176200066157604052565b919082519283825260005b848110620016ba575050826000602080949584010152601f8019910116010190565b60208183018101518483018201520162001698565b600435906001600160a01b0382168203620001d857565b6010548110156200171e5760106000527f1b6847dc741a1b0cd08d278845f9d819d87b734759afb55fe2de5cb82a9ae6720190600090565b634e487b7160e01b600052603260045260246000fd5b6015548110156200171e57601560005260011b7f55f448fdea98c4d29eb340757ef0a66cd03dbb9538908a6a81d96026b71ec4750190600090565b620017d590620017ce600e5491620017ba620017b3620017ad600b5493620017c7600c5491620017c087620017ba620017b3620017ad8d88620020f6565b620017e6565b82620020f6565b620017d8565b98620017d8565b90620020f6565b90620017d8565b90565b91908203918211620006e357565b680736ea4425c11ac6308111620020de576714057b7ef767814f90670de0b6b3a7640000918291020490680a688906bd8affffff8211620020c557604091821b81900490600160bf1b67ff00000000000000831662001fa4575b66ff000000000000831662001e8c575b65ff0000000000831662001d7c575b64ff00000000831662001c74575b63ff000000831662001b74575b62ff0000831662001a7c575b61ff0083166200198c575b60ff8316620018a5575b02911c60bf031c90565b6080831662001979575b83831662001966575b6020831662001953575b6010831662001940575b600883166200192d575b600483166200191a575b6002831662001907575b60018316156200189b576801000000000000000102831c6200189b565b6801000000000000000102831c620018ea565b6801000000000000000302831c620018e0565b6801000000000000000602831c620018d6565b6801000000000000000b02831c620018cc565b6801000000000000001602831c620018c2565b6801000000000000002c02831c620018b8565b6801000000000000005902831c620018af565b618000831662001a69575b614000831662001a56575b612000831662001a43575b611000831662001a30575b610800831662001a1d575b610400831662001a0a575b6102008316620019f7575b6101008316156200189157680100000000000000b102831c62001891565b6801000000000000016302831c620019d9565b680100000000000002c602831c620019ce565b6801000000000000058c02831c620019c3565b68010000000000000b1702831c620019b8565b6801000000000000162e02831c620019ad565b68010000000000002c5d02831c620019a2565b680100000000000058b902831c62001997565b62800000831662001b61575b62400000831662001b4e575b62200000831662001b3b575b62100000831662001b28575b62080000831662001b15575b62040000831662001b02575b62020000831662001aef575b6201000083161562001886576801000000000000b17202831c62001886565b680100000000000162e402831c62001ad0565b6801000000000002c5c802831c62001ac4565b68010000000000058b9102831c62001ab8565b680100000000000b172102831c62001aac565b68010000000000162e4302831c62001aa0565b680100000000002c5c8602831c62001a94565b6801000000000058b90c02831c62001a88565b6380000000831662001c61575b6340000000831662001c4e575b6320000000831662001c3b575b6310000000831662001c28575b6308000000831662001c15575b6304000000831662001c02575b6302000000831662001bef575b63010000008316156200187a5768010000000000b1721802831c6200187a565b6801000000000162e43002831c62001bcf565b68010000000002c5c86002831c62001bc2565b680100000000058b90c002831c62001bb5565b6801000000000b17217f02831c62001ba8565b680100000000162e42ff02831c62001b9b565b6801000000002c5c85fe02831c62001b8e565b68010000000058b90bfc02831c62001b81565b648000000000831662001d69575b644000000000831662001d56575b642000000000831662001d43575b641000000000831662001d30575b640800000000831662001d1d575b640400000000831662001d0a575b640200000000831662001cf7575b6401000000008316156200186d57680100000000b17217f802831c6200186d565b68010000000162e42ff102831c62001cd6565b680100000002c5c85fe302831c62001cc8565b6801000000058b90bfce02831c62001cba565b68010000000b17217fbb02831c62001cac565b6801000000162e42fff002831c62001c9e565b68010000002c5c8601cc02831c62001c90565b680100000058b90c0b4902831c62001c82565b65800000000000831662001e79575b65400000000000831662001e66575b65200000000000831662001e53575b65100000000000831662001e40575b65080000000000831662001e2d575b65040000000000831662001e1a575b65020000000000831662001e07575b650100000000008316156200185f576801000000b17218355102831c6200185f565b680100000162e430e5a202831c62001de5565b6801000002c5c863b73f02831c62001dd6565b68010000058b90cf1e6e02831c62001dc7565b680100000b1721bcfc9a02831c62001db8565b68010000162e43f4f83102831c62001da9565b680100002c5c89d5ec6d02831c62001d9a565b6801000058b91b5bc9ae02831c62001d8b565b6680000000000000831662001f91575b6640000000000000831662001f7e575b6620000000000000831662001f6b575b6610000000000000831662001f58575b6608000000000000831662001f45575b6604000000000000831662001f32575b6602000000000000831662001f1f575b6601000000000000831615620018505768010000b17255775c0402831c62001850565b6801000162e525ee054702831c62001efc565b68010002c5cc37da949202831c62001eec565b680100058ba01fb9f96d02831c62001edc565b6801000b175effdc76ba02831c62001ecc565b680100162f3904051fa102831c62001ebc565b6801002c605e2e8cec5002831c62001eac565b68010058c86da1c09ea202831c62001e9c565b6780000000000000008316620020b1575b67400000000000000083166200209e575b67200000000000000083166200208b575b671000000000000000831662002078575b670800000000000000831662002065575b670400000000000000831662002052575b67020000000000000083166200203f575b6701000000000000008316156200184057680100b1afa5abcbed6102831c62001840565b68010163da9fb33356d802831c6200201b565b680102c9a3e778060ee702831c6200200a565b6801059b0d31585743ae02831c62001ff9565b68010b5586cf9890f62a02831c62001fe8565b6801172b83c7d517adce02831c62001fd7565b6801306fe0a31b7152df02831c62001fc6565b5068016a09e667f3bcc909607f1b62001fb5565b60405163b3b6ba1f60e01b815260048101839052602490fd5b60249060405190630d7b1d6560e11b82526004820152fd5b909190600019838209838202918280831092039180830392146200217d57670de0b6b3a764000090818310156200215f57947faccb18165bd6fe31ae1cf318dc5b51eee0e1ba569b88cd74c1773b91fac1066994950990828211900360ee1b910360121c170290565b6044908660405191635173648d60e01b835260048301526024820152fd5b5050670de0b6b3a764000090049150565b620017d590620017ba60085491600b5490600c5491620021ef620021e9620021e383620021fe6714057b7ef767814f96620021f789898d620021ef620021e9620021e3670de0b6b3a76400009d8e9462002228565b62002204565b620022f2565b020462002228565b9a6200221a565b62002228565b90670de0b6b3a76400008201809211620006e357565b91908201809211620006e357565b670de0b6b3a7640000916000198383099280830292838086109503948086039514620022cd5782851015620022aa57908291096001821901821680920460028082600302188083028203028083028203028083028203028083028203028083028203028092029003029360018380600003040190848311900302920304170290565b8260649260405192630c740aef60e31b8452600484015260248301526044820152fd5b505080925015620022dc570490565b634e487b7160e01b600052601260045260246000fd5b90670de0b6b3a764000091828110620023d6578281046fffffffffffffffffffffffffffffffff811160071b90811c9067ffffffffffffffff821160061b91821c63ffffffff811160051b90811c61ffff811160041b90811c60ff811160031b90811c91600f831160021b92831c936001968760038711811b96871c11961717171717171791848302921c93808514620023cf576706f05b59d3b2000094855b6200239f57509193505050565b808291020494671bc16d674ec80000861015620023c1575b821c948562002392565b8095930192821c94620023b7565b5090925050565b6024906040519063036d32ef60e41b82526004820152fd5b15620023f657565b60405162461bcd60e51b815260206004820152600c60248201526b4f6e6c7920666163746f727960a01b6044820152606490fd5b156200243257565b60405162461bcd60e51b815260206004820152601560248201527414d85b1948185b1c9958591e481b185d5b98da1959605a1b6044820152606490fd5b156200247757565b60405162461bcd60e51b8152602060048201526006602482015265189bdb99195960d21b6044820152606490fd5b81810292918115918404141715620006e357565b15620024c157565b60405162461bcd60e51b815260206004820152602760248201527f536c69707061676520746f6f20686967682c207472616e73616374696f6e2072604482015266195d995c9d195960ca1b6064820152608490fd5b60026000541462002528576002600055565b60405162461bcd60e51b815260206004820152601f60248201527f5265656e7472616e637947756172643a207265656e7472616e742063616c6c006044820152606490fd5b6008546040516200257e816200164d565b42815260208101918252601554600160401b8110156200066157806001620025aa920160155562001734565b929092620025be5760019151835551910155565b634e487b7160e01b600052600060045260246000fd5b90600091600190815491620025e98362001610565b928181169081156200265557506001146200260357505050565b8091929394506000527fb10e2d527612073b26eecdfd717e6a320cf44b4afac2b0732d9fcbe2b7fa0cf6906000915b84831062002641575050500190565b818160209254858701520192019162002632565b60ff191683525050811515909102019150565b600254600092916200267a8262001610565b916001908181169081156200265557506001146200269757505050565b909192935060026000527f405787fa12a823e0f2b7631cc41b3ba8828b3321ca811111fa75cd3aa3bb5ace906000915b848310620026d6575050500190565b8181602092548587015201920191620026c7565b9392916200271790620027086040936060885260608801906200168d565b9086820360208801526200168d565b930152565b90816020910312620001d857518015158103620001d85790565b90816060910312620001d857805191604060208301519201519056fe60406080815234620003cb5762000ce9803803806200001e81620003d0565b9283398101606082820312620003cb5781516001600160401b039290838111620003cb578262000050918301620003f6565b9260209283830151828111620003cb5786916200006f918501620003f6565b92015193805191808311620002cb5760038054936001938486811c96168015620003c0575b88871014620003aa578190601f9687811162000354575b508890878311600114620002ed57600092620002e1575b505060001982841b1c191690841b1781555b8451918211620002cb5760049485548481811c91168015620002c0575b88821014620002ab5785811162000260575b508690858411600114620001f557938394918492600095620001e9575b50501b92600019911b1c19161782555b3315620001aa5750600254908382018092116200019557506000917fddf252ad1be2c89b69c2b068fc378daa952ba7f163c4a11628f55a4df523b3ef9160025533835282815284832084815401905584519384523393a3516108809081620004698239f35b601190634e487b7160e01b6000525260246000fd5b60649285519262461bcd60e51b845283015260248201527f45524332303a206d696e7420746f20746865207a65726f2061646472657373006044820152fd5b01519350388062000120565b9190601f198416928760005284896000209460005b8b898383106200024857505050106200022d575b50505050811b01825562000130565b01519060f884600019921b161c19169055388080806200021e565b8686015189559097019694850194889350016200020a565b86600052876000208680860160051c8201928a8710620002a1575b0160051c019085905b8281106200029457505062000103565b6000815501859062000284565b925081926200027b565b602287634e487b7160e01b6000525260246000fd5b90607f1690620000f1565b634e487b7160e01b600052604160045260246000fd5b015190503880620000c2565b90869350601f19831691856000528a6000209260005b8c8282106200033d575050841162000324575b505050811b018155620000d4565b015160001983861b60f8161c1916905538808062000316565b8385015186558a9790950194938401930162000303565b90915083600052886000208780850160051c8201928b8610620003a0575b918891869594930160051c01915b82811062000390575050620000ab565b6000815585945088910162000380565b9250819262000372565b634e487b7160e01b600052602260045260246000fd5b95607f169562000094565b600080fd5b6040519190601f01601f191682016001600160401b03811183821017620002cb57604052565b919080601f84011215620003cb5782516001600160401b038111620002cb576020906200042c601f8201601f19168301620003d0565b92818452828287010111620003cb5760005b8181106200045457508260009394955001015290565b85810183015184820184015282016200043e56fe608060408181526004918236101561001657600080fd5b600092833560e01c91826306fdde03146104ad57508163095ea7b31461048357816318160ddd1461046457816323b872dd1461039a578163313ce5671461037e578163395093511461031757816370a08231146102e057816395d89b41146101c1578163a457c2d71461011957508063a9059cbb146100e95763dd62ed3e1461009e57600080fd5b346100e557806003193601126100e557806020926100ba6105d2565b6100c26105ed565b6001600160a01b0391821683526001865283832091168252845220549051908152f35b5080fd5b50346100e557806003193601126100e5576020906101126101086105d2565b6024359033610603565b5160018152f35b905082346101be57826003193601126101be576101346105d2565b918360243592338152600160205281812060018060a01b038616825260205220549082821061016d576020856101128585038733610771565b608490602086519162461bcd60e51b8352820152602560248201527f45524332303a2064656372656173656420616c6c6f77616e63652062656c6f77604482015264207a65726f60d81b6064820152fd5b80fd5b8383346100e557816003193601126100e557805190828454600181811c908083169283156102d6575b60209384841081146102c3578388529081156102a75750600114610252575b505050829003601f01601f191682019267ffffffffffffffff84118385101761023f575082918261023b925282610589565b0390f35b634e487b7160e01b815260418552602490fd5b8787529192508591837f8a35acfbc15ff81a39ae7d344fd709f28e8600b4aa8c65c6b64bfe7fe36bd19b5b8385106102935750505050830101858080610209565b80548886018301529301928490820161027d565b60ff1916878501525050151560051b8401019050858080610209565b634e487b7160e01b895260228a52602489fd5b91607f16916101ea565b5050346100e55760203660031901126100e55760209181906001600160a01b036103086105d2565b16815280845220549051908152f35b8284346101be57816003193601126101be576103316105d2565b338252600160209081528383206001600160a01b038316845290528282205460243581019290831061036b57602084610112858533610771565b634e487b7160e01b815260118552602490fd5b5050346100e557816003193601126100e5576020905160128152f35b839150346100e55760603660031901126100e5576103b66105d2565b6103be6105ed565b91846044359460018060a01b0384168152600160205281812033825260205220549060001982036103f8575b602086610112878787610603565b84821061042157509183916104166020969561011295033383610771565b9193948193506103ea565b606490602087519162461bcd60e51b8352820152601d60248201527f45524332303a20696e73756666696369656e7420616c6c6f77616e63650000006044820152fd5b5050346100e557816003193601126100e5576020906002549051908152f35b5050346100e557806003193601126100e5576020906101126104a36105d2565b6024359033610771565b8490843461058557826003193601126105855782600354600181811c9080831692831561057b575b60209384841081146102c3578388529081156102a7575060011461052557505050829003601f01601f191682019267ffffffffffffffff84118385101761023f575082918261023b925282610589565b600387529192508591837fc2575a0e9e593c00f959f8c92f12db2869c3395a3b0502d05e2516446f71f85b5b8385106105675750505050830101858080610209565b805488860183015293019284908201610551565b91607f16916104d5565b8280fd5b6020808252825181830181905290939260005b8281106105be57505060409293506000838284010152601f8019910116010190565b81810186015184820160400152850161059c565b600435906001600160a01b03821682036105e857565b600080fd5b602435906001600160a01b03821682036105e857565b6001600160a01b0390811691821561071e57169182156106cd5760008281528060205260408120549180831061067957604082827fddf252ad1be2c89b69c2b068fc378daa952ba7f163c4a11628f55a4df523b3ef958760209652828652038282205586815220818154019055604051908152a3565b60405162461bcd60e51b815260206004820152602660248201527f45524332303a207472616e7366657220616d6f756e7420657863656564732062604482015265616c616e636560d01b6064820152608490fd5b60405162461bcd60e51b815260206004820152602360248201527f45524332303a207472616e7366657220746f20746865207a65726f206164647260448201526265737360e81b6064820152608490fd5b60405162461bcd60e51b815260206004820152602560248201527f45524332303a207472616e736665722066726f6d20746865207a65726f206164604482015264647265737360d81b6064820152608490fd5b6001600160a01b0390811691821561082257169182156107d25760207f8c5be1e5ebec7d5bd14f71427d1e84f3dd0314c0f7b2291e5b200ac8c7c3b925918360005260018252604060002085600052825280604060002055604051908152a3565b60405162461bcd60e51b815260206004820152602260248201527f45524332303a20617070726f766520746f20746865207a65726f206164647265604482015261737360f01b6064820152608490fd5b60405162461bcd60e51b8152602060048201526024808201527f45524332303a20617070726f76652066726f6d20746865207a65726f206164646044820152637265737360e01b6064820152608490fdfea164736f6c6343000813000aa164736f6c6343000813000a405787fa12a823e0f2b7631cc41b3ba8828b3321ca811111fa75cd3aa3bb5aceb10e2d527612073b26eecdfd717e6a320cf44b4afac2b0732d9fcbe2b7fa0cf6","opcodes":"PUSH1 0x80 PUSH1 0x40 MSTORE CALLVALUE PUSH3 0x441 JUMPI PUSH3 0x397C DUP1 CODESIZE SUB DUP1 PUSH3 0x1D DUP2 PUSH3 0x446 JUMP JUMPDEST SWAP3 DUP4 CODECOPY DUP2 ADD PUSH2 0x140 DUP3 DUP3 SUB SLT PUSH3 0x441 JUMPI DUP2 MLOAD PUSH1 0x1 PUSH1 0x1 PUSH1 0x40 SHL SUB DUP2 GT PUSH3 0x441 JUMPI DUP2 PUSH3 0x4D SWAP2 DUP5 ADD PUSH3 0x46C JUMP JUMPDEST PUSH1 0x20 DUP4 ADD MLOAD SWAP1 SWAP2 PUSH1 0x1 PUSH1 0x1 PUSH1 0x40 SHL SUB DUP3 GT PUSH3 0x441 JUMPI PUSH3 0x70 SWAP2 DUP5 ADD PUSH3 0x46C JUMP JUMPDEST SWAP2 PUSH3 0x7F PUSH1 0x40 DUP3 ADD PUSH3 0x4DE JUMP JUMPDEST PUSH3 0x8D PUSH1 0x60 DUP4 ADD PUSH3 0x4DE JUMP JUMPDEST SWAP1 PUSH1 0x80 DUP4 ADD MLOAD PUSH1 0xA0 DUP5 ADD MLOAD SWAP1 PUSH1 0xC0 DUP6 ADD MLOAD SWAP3 PUSH1 0xE0 DUP7 ADD MLOAD SWAP5 PUSH2 0x100 DUP8 ADD MLOAD SWAP7 PUSH1 0xFF DUP9 AND DUP9 SUB PUSH3 0x441 JUMPI PUSH2 0x120 ADD MLOAD PUSH1 0x1 PUSH1 0x0 SSTORE PUSH1 0x12 DUP1 SLOAD PUSH1 0x1 PUSH1 0x1 PUSH1 0xA0 SHL SUB NOT SWAP1 DUP2 AND PUSH20 0xC02AAA39B223FE8D0A0E5C4F27EAD9083C756CC2 OR SWAP1 SWAP2 SSTORE PUSH1 0x14 DUP1 SLOAD SWAP1 SWAP2 AND PUSH20 0xE97203B9AD2B6EFCDDDDA642C798020C56EBFFC3 OR SWAP1 SSTORE DUP9 MLOAD SWAP1 SWAP9 PUSH1 0x1 PUSH1 0x1 PUSH1 0x40 SHL SUB DUP3 GT PUSH3 0x339 JUMPI PUSH1 0x1 SLOAD SWAP1 PUSH1 0x1 DUP3 DUP2 SHR SWAP3 AND DUP1 ISZERO PUSH3 0x436 JUMPI JUMPDEST PUSH1 0x20 DUP4 LT EQ PUSH3 0x318 JUMPI DUP2 PUSH1 0x1F DUP5 SWAP4 GT PUSH3 0x3D5 JUMPI JUMPDEST POP PUSH1 0x20 SWAP1 PUSH1 0x1F DUP4 GT PUSH1 0x1 EQ PUSH3 0x35B JUMPI PUSH1 0x0 SWAP3 PUSH3 0x34F JUMPI JUMPDEST POP POP DUP2 PUSH1 0x1 SHL SWAP2 PUSH1 0x0 NOT SWAP1 PUSH1 0x3 SHL SHR NOT AND OR PUSH1 0x1 SSTORE JUMPDEST DUP9 MLOAD PUSH1 0x1 PUSH1 0x1 PUSH1 0x40 SHL SUB DUP2 GT PUSH3 0x339 JUMPI PUSH1 0x2 SLOAD PUSH1 0x1 DUP2 DUP2 SHR SWAP2 AND DUP1 ISZERO PUSH3 0x32E JUMPI JUMPDEST PUSH1 0x20 DUP3 LT EQ PUSH3 0x318 JUMPI PUSH1 0x1F DUP2 GT PUSH3 0x2C3 JUMPI JUMPDEST POP PUSH1 0x20 PUSH1 0x1F DUP3 GT PUSH1 0x1 EQ PUSH3 0x246 JUMPI DUP2 SWAP1 PUSH1 0xFF SWAP11 SWAP12 PUSH1 0x0 SWAP3 PUSH3 0x23A JUMPI JUMPDEST POP POP DUP2 PUSH1 0x1 SHL SWAP2 PUSH1 0x0 NOT SWAP1 PUSH1 0x3 SHL SHR NOT AND OR PUSH1 0x2 SSTORE JUMPDEST PUSH1 0x1 DUP1 PUSH1 0xA0 SHL SUB DUP1 SWAP3 AND PUSH1 0x1 DUP1 PUSH1 0xA0 SHL SUB NOT PUSH1 0x5 SLOAD AND OR PUSH1 0x5 SSTORE AND PUSH1 0x1 DUP1 PUSH1 0xA0 SHL SUB NOT PUSH1 0x6 SLOAD AND OR PUSH1 0x6 SSTORE PUSH1 0x7 SSTORE PUSH1 0xB SSTORE PUSH1 0xC SSTORE PUSH1 0xD SSTORE AND PUSH1 0xFF NOT PUSH1 0xA SLOAD AND OR PUSH1 0xA SSTORE PUSH1 0x13 SSTORE PUSH1 0x0 PUSH1 0xE SSTORE PUSH1 0x40 MLOAD PUSH2 0x3448 SWAP1 DUP2 PUSH3 0x4F4 DUP3 CODECOPY RETURN JUMPDEST ADD MLOAD SWAP1 POP CODESIZE DUP1 PUSH3 0x1C9 JUMP JUMPDEST PUSH1 0x2 PUSH1 0x0 SWAP1 DUP2 MSTORE PUSH1 0x0 DUP1 MLOAD PUSH1 0x20 PUSH3 0x393C DUP4 CODECOPY DUP2 MLOAD SWAP2 MSTORE SWAP12 SWAP1 PUSH1 0x1F NOT DUP5 AND SWAP1 JUMPDEST DUP2 DUP2 LT PUSH3 0x2AA JUMPI POP SWAP2 PUSH1 0xFF SWAP12 SWAP13 SWAP2 DUP5 PUSH1 0x1 SWAP6 SWAP5 LT PUSH3 0x290 JUMPI JUMPDEST POP POP POP DUP2 SHL ADD PUSH1 0x2 SSTORE PUSH3 0x1DF JUMP JUMPDEST ADD MLOAD PUSH1 0x0 NOT PUSH1 0xF8 DUP5 PUSH1 0x3 SHL AND SHR NOT AND SWAP1 SSTORE CODESIZE DUP1 DUP1 PUSH3 0x281 JUMP JUMPDEST DUP4 DUP4 ADD MLOAD DUP15 SSTORE PUSH1 0x1 SWAP1 SWAP14 ADD SWAP13 PUSH1 0x20 SWAP4 DUP5 ADD SWAP4 ADD PUSH3 0x266 JUMP JUMPDEST PUSH1 0x2 PUSH1 0x0 MSTORE PUSH1 0x0 DUP1 MLOAD PUSH1 0x20 PUSH3 0x393C DUP4 CODECOPY DUP2 MLOAD SWAP2 MSTORE PUSH1 0x1F DUP4 ADD PUSH1 0x5 SHR DUP2 ADD PUSH1 0x20 DUP5 LT PUSH3 0x310 JUMPI JUMPDEST PUSH1 0x1F DUP4 ADD PUSH1 0x5 SHR DUP3 ADD DUP2 LT PUSH3 0x303 JUMPI POP POP PUSH3 0x1AB JUMP JUMPDEST PUSH1 0x0 DUP2 SSTORE PUSH1 0x1 ADD PUSH3 0x2EB JUMP JUMPDEST POP DUP1 PUSH3 0x2EB JUMP JUMPDEST PUSH4 0x4E487B71 PUSH1 0xE0 SHL PUSH1 0x0 MSTORE PUSH1 0x22 PUSH1 0x4 MSTORE PUSH1 0x24 PUSH1 0x0 REVERT JUMPDEST SWAP1 PUSH1 0x7F AND SWAP1 PUSH3 0x197 JUMP JUMPDEST PUSH4 0x4E487B71 PUSH1 0xE0 SHL PUSH1 0x0 MSTORE PUSH1 0x41 PUSH1 0x4 MSTORE PUSH1 0x24 PUSH1 0x0 REVERT JUMPDEST ADD MLOAD SWAP1 POP CODESIZE DUP1 PUSH3 0x15E JUMP JUMPDEST PUSH1 0x1 PUSH1 0x0 SWAP1 DUP2 MSTORE PUSH1 0x0 DUP1 MLOAD PUSH1 0x20 PUSH3 0x395C DUP4 CODECOPY DUP2 MLOAD SWAP2 MSTORE SWAP4 POP PUSH1 0x1F NOT DUP6 AND SWAP1 JUMPDEST DUP2 DUP2 LT PUSH3 0x3BC JUMPI POP SWAP1 DUP5 PUSH1 0x1 SWAP6 SWAP5 SWAP4 SWAP3 LT PUSH3 0x3A2 JUMPI JUMPDEST POP POP POP DUP2 SHL ADD PUSH1 0x1 SSTORE PUSH3 0x174 JUMP JUMPDEST ADD MLOAD PUSH1 0x0 NOT PUSH1 0xF8 DUP5 PUSH1 0x3 SHL AND SHR NOT AND SWAP1 SSTORE CODESIZE DUP1 DUP1 PUSH3 0x393 JUMP JUMPDEST SWAP3 SWAP4 PUSH1 0x20 PUSH1 0x1 DUP2 SWAP3 DUP8 DUP7 ADD MLOAD DUP2 SSTORE ADD SWAP6 ADD SWAP4 ADD PUSH3 0x37B JUMP JUMPDEST PUSH1 0x1 PUSH1 0x0 MSTORE SWAP1 SWAP2 POP PUSH1 0x0 DUP1 MLOAD PUSH1 0x20 PUSH3 0x395C DUP4 CODECOPY DUP2 MLOAD SWAP2 MSTORE PUSH1 0x1F DUP5 ADD PUSH1 0x5 SHR DUP2 ADD PUSH1 0x20 DUP6 LT PUSH3 0x42E JUMPI JUMPDEST SWAP1 DUP5 SWAP4 SWAP3 SWAP2 JUMPDEST PUSH1 0x1F DUP4 ADD PUSH1 0x5 SHR DUP3 ADD DUP2 LT PUSH3 0x41E JUMPI POP POP PUSH3 0x145 JUMP JUMPDEST PUSH1 0x0 DUP2 SSTORE DUP6 SWAP5 POP PUSH1 0x1 ADD PUSH3 0x406 JUMP JUMPDEST POP DUP1 PUSH3 0x400 JUMP JUMPDEST SWAP2 PUSH1 0x7F AND SWAP2 PUSH3 0x12F JUMP JUMPDEST PUSH1 0x0 DUP1 REVERT JUMPDEST PUSH1 0x40 MLOAD SWAP2 SWAP1 PUSH1 0x1F ADD PUSH1 0x1F NOT AND DUP3 ADD PUSH1 0x1 PUSH1 0x1 PUSH1 0x40 SHL SUB DUP2 GT DUP4 DUP3 LT OR PUSH3 0x339 JUMPI PUSH1 0x40 MSTORE JUMP JUMPDEST SWAP2 SWAP1 DUP1 PUSH1 0x1F DUP5 ADD SLT ISZERO PUSH3 0x441 JUMPI DUP3 MLOAD PUSH1 0x1 PUSH1 0x1 PUSH1 0x40 SHL SUB DUP2 GT PUSH3 0x339 JUMPI PUSH1 0x20 SWAP1 PUSH3 0x4A2 PUSH1 0x1F DUP3 ADD PUSH1 0x1F NOT AND DUP4 ADD PUSH3 0x446 JUMP JUMPDEST SWAP3 DUP2 DUP5 MSTORE DUP3 DUP3 DUP8 ADD ADD GT PUSH3 0x441 JUMPI PUSH1 0x0 JUMPDEST DUP2 DUP2 LT PUSH3 0x4CA JUMPI POP DUP3 PUSH1 0x0 SWAP4 SWAP5 SWAP6 POP ADD ADD MSTORE SWAP1 JUMP JUMPDEST DUP6 DUP2 ADD DUP4 ADD MLOAD DUP5 DUP3 ADD DUP5 ADD MSTORE DUP3 ADD PUSH3 0x4B4 JUMP JUMPDEST MLOAD SWAP1 PUSH1 0x1 PUSH1 0x1 PUSH1 0xA0 SHL SUB DUP3 AND DUP3 SUB PUSH3 0x441 JUMPI JUMP INVALID PUSH1 0x80 DUP1 PUSH1 0x40 MSTORE PUSH1 0x4 CALLDATASIZE LT ISZERO PUSH3 0x1F JUMPI JUMPDEST POP CALLDATASIZE ISZERO PUSH3 0x1D JUMPI PUSH1 0x0 DUP1 REVERT JUMPDEST STOP JUMPDEST PUSH1 0x0 CALLDATALOAD PUSH1 0xE0 SHR SWAP1 DUP2 PUSH4 0x2D05D3F EQ PUSH3 0x15EA JUMPI POP DUP1 PUSH4 0x6FDDE03 EQ PUSH3 0x153A JUMPI DUP1 PUSH4 0x89A122C EQ PUSH3 0x1518 JUMPI DUP1 PUSH4 0xEFC51A7 EQ PUSH3 0x14EE JUMPI DUP1 PUSH4 0x146EA612 EQ PUSH3 0xF02 JUMPI DUP1 PUSH4 0x200D2ED2 EQ PUSH3 0xEDA JUMPI DUP1 PUSH4 0x32FB56CA EQ PUSH3 0xE0A JUMPI DUP1 PUSH4 0x468F3DCD EQ PUSH3 0xDEA JUMPI DUP1 PUSH4 0x4F0E0EF3 EQ PUSH3 0xDBF JUMPI DUP1 PUSH4 0x518AB2A8 EQ PUSH3 0xD9F JUMPI DUP1 PUSH4 0x523FBA7F EQ PUSH3 0xD61 JUMPI DUP1 PUSH4 0x62F39BB4 EQ PUSH3 0xC75 JUMPI DUP1 PUSH4 0x6334A8C4 EQ PUSH3 0xC52 JUMPI DUP1 PUSH4 0x65731FE9 EQ PUSH3 0xC0F JUMPI DUP1 PUSH4 0x6A272462 EQ PUSH3 0x974 JUMPI DUP1 PUSH4 0x7E1C0C09 EQ PUSH3 0x954 JUMPI DUP1 PUSH4 0x7FD6F15C EQ PUSH3 0x934 JUMPI DUP1 PUSH4 0x8091F3BF EQ PUSH3 0x90C JUMPI DUP1 PUSH4 0x8D3D6576 EQ PUSH3 0x8EC JUMPI DUP1 PUSH4 0x923108D9 EQ PUSH3 0x8A5 JUMPI DUP1 PUSH4 0x95D89B41 EQ PUSH3 0x7AF JUMPI DUP1 PUSH4 0x9650B8DF EQ PUSH3 0x784 JUMPI DUP1 PUSH4 0xB4F40C61 EQ PUSH3 0x764 JUMPI DUP1 PUSH4 0xC45A0155 EQ PUSH3 0x739 JUMPI DUP1 PUSH4 0xC5C4744C EQ PUSH3 0x719 JUMPI DUP1 PUSH4 0xC7C049FC EQ PUSH3 0x6F9 JUMPI DUP1 PUSH4 0xCCE7EC13 EQ PUSH3 0x425 JUMPI DUP1 PUSH4 0xDB1D0FD5 EQ PUSH3 0x405 JUMPI DUP1 PUSH4 0xDF8DE3E7 EQ PUSH3 0x24A JUMPI DUP1 PUSH4 0xE963EB33 EQ PUSH3 0x208 JUMPI DUP1 PUSH4 0xF25F4B56 EQ PUSH3 0x1DD JUMPI PUSH4 0xFFFE59E7 EQ PUSH3 0x1AD JUMPI CODESIZE PUSH3 0x10 JUMP JUMPDEST CALLVALUE PUSH3 0x1D8 JUMPI PUSH1 0x0 CALLDATASIZE PUSH1 0x3 NOT ADD SLT PUSH3 0x1D8 JUMPI PUSH1 0x4 SLOAD PUSH1 0x40 MLOAD PUSH1 0x1 PUSH1 0x1 PUSH1 0xA0 SHL SUB SWAP1 SWAP2 AND DUP2 MSTORE PUSH1 0x20 SWAP1 RETURN JUMPDEST PUSH1 0x0 DUP1 REVERT JUMPDEST CALLVALUE PUSH3 0x1D8 JUMPI PUSH1 0x0 CALLDATASIZE PUSH1 0x3 NOT ADD SLT PUSH3 0x1D8 JUMPI PUSH1 0x14 SLOAD PUSH1 0x40 MLOAD PUSH1 0x1 PUSH1 0x1 PUSH1 0xA0 SHL SUB SWAP1 SWAP2 AND DUP2 MSTORE PUSH1 0x20 SWAP1 RETURN JUMPDEST CALLVALUE PUSH3 0x1D8 JUMPI PUSH1 0x20 CALLDATASIZE PUSH1 0x3 NOT ADD SLT PUSH3 0x1D8 JUMPI PUSH1 0x4 CALLDATALOAD PUSH1 0x15 SLOAD DUP2 LT ISZERO PUSH3 0x1D8 JUMPI PUSH3 0x236 PUSH1 0x40 SWAP2 PUSH3 0x1734 JUMP JUMPDEST POP PUSH1 0x1 DUP2 SLOAD SWAP2 ADD SLOAD DUP3 MLOAD SWAP2 DUP3 MSTORE PUSH1 0x20 DUP3 ADD MSTORE RETURN JUMPDEST CALLVALUE PUSH3 0x1D8 JUMPI PUSH1 0x20 DUP1 PUSH1 0x3 NOT CALLDATASIZE ADD SLT PUSH3 0x1D8 JUMPI PUSH3 0x268 PUSH3 0x16CF JUMP JUMPDEST PUSH1 0x6 SLOAD PUSH1 0x1 PUSH1 0x1 PUSH1 0xA0 SHL SUB SWAP3 SWAP2 SWAP1 PUSH3 0x285 SWAP1 DUP5 AND CALLER EQ PUSH3 0x23EE JUMP JUMPDEST PUSH3 0x28F PUSH3 0x2516 JUMP JUMPDEST PUSH1 0xFF PUSH1 0xA SLOAD PUSH1 0x8 SHR AND ISZERO PUSH3 0x3CC JUMPI DUP3 DUP2 AND SWAP1 DUP2 PUSH1 0x0 MSTORE PUSH1 0xF DUP4 MSTORE PUSH1 0x40 PUSH1 0x0 KECCAK256 SLOAD DUP5 PUSH1 0x3 SLOAD AND SWAP1 PUSH1 0x1 SHR SWAP1 PUSH1 0x40 MLOAD SWAP3 DUP6 DUP5 PUSH4 0xA9059CBB PUSH1 0xE0 SHL SWAP4 DUP5 DUP3 MSTORE DUP2 PUSH1 0x0 DUP2 PUSH3 0x2F4 DUP10 DUP9 PUSH1 0x4 DUP5 ADD PUSH1 0x20 SWAP1 SWAP4 SWAP3 SWAP2 SWAP4 PUSH1 0x40 DUP2 ADD SWAP5 PUSH1 0x1 DUP1 PUSH1 0xA0 SHL SUB AND DUP2 MSTORE ADD MSTORE JUMP JUMPDEST SUB SWAP3 GAS CALL DUP1 ISZERO PUSH3 0x39E JUMPI PUSH3 0x33F SWAP8 DUP8 SWAP6 PUSH1 0x0 SWAP3 PUSH3 0x3AA JUMPI JUMPDEST POP PUSH1 0x4 SLOAD AND SWAP3 PUSH1 0x40 MLOAD SWAP9 DUP10 SWAP6 DUP7 SWAP5 DUP6 SWAP4 DUP5 MSTORE PUSH1 0x4 DUP5 ADD PUSH1 0x20 SWAP1 SWAP4 SWAP3 SWAP2 SWAP4 PUSH1 0x40 DUP2 ADD SWAP5 PUSH1 0x1 DUP1 PUSH1 0xA0 SHL SUB AND DUP2 MSTORE ADD MSTORE JUMP JUMPDEST SUB SWAP3 GAS CALL SWAP3 DUP4 ISZERO PUSH3 0x39E JUMPI PUSH1 0xF SWAP4 PUSH3 0x36A JUMPI JUMPDEST POP PUSH1 0x0 MSTORE MSTORE PUSH1 0x0 PUSH1 0x40 DUP2 KECCAK256 SSTORE PUSH1 0x1 PUSH1 0x0 SSTORE PUSH1 0x0 DUP1 RETURN JUMPDEST PUSH3 0x38E SWAP1 DUP4 RETURNDATASIZE DUP6 GT PUSH3 0x396 JUMPI JUMPDEST PUSH3 0x385 DUP2 DUP4 PUSH3 0x166A JUMP JUMPDEST DUP2 ADD SWAP1 PUSH3 0x271C JUMP JUMPDEST POP DUP4 PUSH3 0x354 JUMP JUMPDEST POP RETURNDATASIZE PUSH3 0x379 JUMP JUMPDEST PUSH1 0x40 MLOAD RETURNDATASIZE PUSH1 0x0 DUP3 RETURNDATACOPY RETURNDATASIZE SWAP1 REVERT JUMPDEST PUSH3 0x3C4 SWAP1 DUP8 RETURNDATASIZE DUP10 GT PUSH3 0x396 JUMPI PUSH3 0x385 DUP2 DUP4 PUSH3 0x166A JUMP JUMPDEST POP DUP10 PUSH3 0x30F JUMP JUMPDEST PUSH1 0x40 MLOAD PUSH3 0x461BCD PUSH1 0xE5 SHL DUP2 MSTORE PUSH1 0x4 DUP2 ADD DUP4 SWAP1 MSTORE PUSH1 0x11 PUSH1 0x24 DUP3 ADD MSTORE PUSH17 0x14D85B19481B9BDD081B185D5B98DA1959 PUSH1 0x7A SHL PUSH1 0x44 DUP3 ADD MSTORE PUSH1 0x64 SWAP1 REVERT JUMPDEST CALLVALUE PUSH3 0x1D8 JUMPI PUSH1 0x0 CALLDATASIZE PUSH1 0x3 NOT ADD SLT PUSH3 0x1D8 JUMPI PUSH1 0x20 PUSH1 0xC SLOAD PUSH1 0x40 MLOAD SWAP1 DUP2 MSTORE RETURN JUMPDEST PUSH1 0x40 CALLDATASIZE PUSH1 0x3 NOT ADD SLT PUSH3 0x1D8 JUMPI PUSH3 0x43C PUSH3 0x16CF JUMP JUMPDEST PUSH1 0x6 SLOAD PUSH1 0x1 PUSH1 0x1 PUSH1 0xA0 SHL SUB SWAP1 PUSH3 0x457 SWAP1 DUP3 AND CALLER EQ PUSH3 0x23EE JUMP JUMPDEST PUSH3 0x461 PUSH3 0x2516 JUMP JUMPDEST PUSH1 0xA SLOAD SWAP2 PUSH3 0x477 PUSH1 0xFF DUP5 PUSH1 0x8 SHR AND ISZERO PUSH3 0x242A JUMP JUMPDEST PUSH1 0x8 SLOAD SWAP3 PUSH3 0x487 CALLVALUE DUP6 PUSH3 0x221A JUMP JUMPDEST PUSH1 0xD SLOAD SWAP1 PUSH8 0x16345785D8A0000 DUP3 ADD DUP1 SWAP3 GT PUSH3 0x6E3 JUMPI GT PUSH3 0x6AA JUMPI CALLVALUE ISZERO PUSH3 0x677 JUMPI PUSH1 0xFF PUSH3 0x4BD SWAP2 PUSH1 0x10 SHR AND ISZERO PUSH3 0x246F JUMP JUMPDEST PUSH1 0x64 PUSH3 0x4CD PUSH1 0x13 SLOAD CALLVALUE PUSH3 0x24A5 JUMP JUMPDEST DIV DUP3 PUSH3 0x4DB DUP3 CALLVALUE PUSH3 0x17D8 JUMP JUMPDEST SWAP3 PUSH3 0x514 DUP5 PUSH3 0x4EC DUP2 PUSH3 0x218E JUMP JUMPDEST SWAP8 PUSH3 0x4FD PUSH1 0x24 CALLDATALOAD DUP11 LT ISZERO PUSH3 0x24B9 JUMP JUMPDEST PUSH3 0x50B DUP10 PUSH1 0xE SLOAD PUSH3 0x221A JUMP JUMPDEST PUSH1 0xE SSTORE PUSH3 0x221A JUMP JUMPDEST PUSH1 0x8 SSTORE AND SWAP3 DUP4 PUSH1 0x0 MSTORE PUSH1 0xF PUSH1 0x20 MSTORE PUSH1 0x40 PUSH1 0x0 KECCAK256 PUSH3 0x534 DUP7 DUP3 SLOAD PUSH3 0x221A JUMP JUMPDEST SWAP1 SSTORE DUP4 PUSH1 0x0 MSTORE PUSH1 0x11 PUSH1 0x20 MSTORE PUSH1 0xFF PUSH1 0x40 PUSH1 0x0 KECCAK256 SLOAD AND ISZERO PUSH3 0x5FF JUMPI JUMPDEST PUSH1 0x0 DUP1 DUP1 SWAP4 DUP2 SWAP4 PUSH1 0x14 SLOAD AND DUP3 DUP3 ISZERO PUSH3 0x5F5 JUMPI JUMPDEST CALL ISZERO PUSH3 0x39E JUMPI PUSH32 0xD1A0D5E3D583A0E92588799DD06E50FD78C07DAF05F0CC06D7B848B1CA445F1 DUP3 SWAP2 PUSH1 0x40 SWAP5 PUSH1 0x8 SLOAD PUSH1 0xD SLOAD GT ISZERO PUSH3 0x5DE JUMPI JUMPDEST PUSH3 0x5A8 PUSH3 0x256D JUMP JUMPDEST DUP6 MLOAD SWAP2 DUP3 MSTORE PUSH1 0x20 DUP3 ADD MSTORE TIMESTAMP PUSH1 0x40 DUP3 ADD MSTORE PUSH1 0x60 SWAP1 LOG2 PUSH1 0x8 SLOAD SWAP1 PUSH1 0x0 MSTORE PUSH1 0xF PUSH1 0x20 MSTORE DUP2 PUSH1 0x0 KECCAK256 SLOAD PUSH1 0x1 PUSH1 0x0 SSTORE DUP3 MLOAD SWAP2 DUP3 MSTORE PUSH1 0x20 DUP3 ADD MSTORE RETURN JUMPDEST PUSH3 0x10000 PUSH3 0xFF0000 NOT PUSH1 0xA SLOAD AND OR PUSH1 0xA SSTORE PUSH3 0x59E JUMP JUMPDEST POP PUSH2 0x8FC PUSH3 0x563 JUMP JUMPDEST SWAP1 PUSH1 0x10 SLOAD SWAP2 PUSH1 0x1 PUSH1 0x40 SHL DUP4 LT ISZERO PUSH3 0x661 JUMPI PUSH1 0x0 DUP1 SWAP4 SWAP3 DUP2 SWAP4 SWAP3 PUSH3 0x62C DUP5 PUSH1 0x1 DUP6 SWAP7 ADD PUSH1 0x10 SSTORE PUSH3 0x16E6 JUMP JUMPDEST DUP2 SLOAD SWAP1 PUSH1 0x3 SHL SWAP1 DUP4 DUP12 DUP4 SHL SWAP3 SHL NOT AND OR SWAP1 SSTORE DUP8 DUP4 MSTORE PUSH1 0x11 PUSH1 0x20 MSTORE PUSH1 0x40 DUP4 KECCAK256 PUSH1 0x1 PUSH1 0xFF NOT DUP3 SLOAD AND OR SWAP1 SSTORE SWAP4 POP SWAP4 POP POP POP PUSH3 0x54F JUMP JUMPDEST PUSH4 0x4E487B71 PUSH1 0xE0 SHL PUSH1 0x0 MSTORE PUSH1 0x41 PUSH1 0x4 MSTORE PUSH1 0x24 PUSH1 0x0 REVERT JUMPDEST PUSH1 0x40 MLOAD PUSH3 0x461BCD PUSH1 0xE5 SHL DUP2 MSTORE PUSH1 0x20 PUSH1 0x4 DUP3 ADD MSTORE PUSH1 0xB PUSH1 0x24 DUP3 ADD MSTORE PUSH11 0x139BC8115512081CD95B9D PUSH1 0xAA SHL PUSH1 0x44 DUP3 ADD MSTORE PUSH1 0x64 SWAP1 REVERT JUMPDEST PUSH1 0x40 MLOAD PUSH3 0x461BCD PUSH1 0xE5 SHL DUP2 MSTORE PUSH1 0x20 PUSH1 0x4 DUP3 ADD MSTORE PUSH1 0x11 PUSH1 0x24 DUP3 ADD MSTORE PUSH17 0x14D85B194819DBD85B081C995858DA1959 PUSH1 0x7A SHL PUSH1 0x44 DUP3 ADD MSTORE PUSH1 0x64 SWAP1 REVERT JUMPDEST PUSH4 0x4E487B71 PUSH1 0xE0 SHL PUSH1 0x0 MSTORE PUSH1 0x11 PUSH1 0x4 MSTORE PUSH1 0x24 PUSH1 0x0 REVERT JUMPDEST CALLVALUE PUSH3 0x1D8 JUMPI PUSH1 0x0 CALLDATASIZE PUSH1 0x3 NOT ADD SLT PUSH3 0x1D8 JUMPI PUSH1 0x20 PUSH1 0xD SLOAD PUSH1 0x40 MLOAD SWAP1 DUP2 MSTORE RETURN JUMPDEST CALLVALUE PUSH3 0x1D8 JUMPI PUSH1 0x0 CALLDATASIZE PUSH1 0x3 NOT ADD SLT PUSH3 0x1D8 JUMPI PUSH1 0x20 PUSH1 0x8 SLOAD PUSH1 0x40 MLOAD SWAP1 DUP2 MSTORE RETURN JUMPDEST CALLVALUE PUSH3 0x1D8 JUMPI PUSH1 0x0 CALLDATASIZE PUSH1 0x3 NOT ADD SLT PUSH3 0x1D8 JUMPI PUSH1 0x6 SLOAD PUSH1 0x40 MLOAD PUSH1 0x1 PUSH1 0x1 PUSH1 0xA0 SHL SUB SWAP1 SWAP2 AND DUP2 MSTORE PUSH1 0x20 SWAP1 RETURN JUMPDEST CALLVALUE PUSH3 0x1D8 JUMPI PUSH1 0x0 CALLDATASIZE PUSH1 0x3 NOT ADD SLT PUSH3 0x1D8 JUMPI PUSH1 0x20 PUSH1 0xB SLOAD PUSH1 0x40 MLOAD SWAP1 DUP2 MSTORE RETURN JUMPDEST CALLVALUE PUSH3 0x1D8 JUMPI PUSH1 0x0 CALLDATASIZE PUSH1 0x3 NOT ADD SLT PUSH3 0x1D8 JUMPI PUSH1 0x3 SLOAD PUSH1 0x40 MLOAD PUSH1 0x1 PUSH1 0x1 PUSH1 0xA0 SHL SUB SWAP1 SWAP2 AND DUP2 MSTORE PUSH1 0x20 SWAP1 RETURN JUMPDEST CALLVALUE PUSH3 0x1D8 JUMPI PUSH1 0x0 CALLDATASIZE PUSH1 0x3 NOT ADD SLT PUSH3 0x1D8 JUMPI PUSH1 0x40 MLOAD PUSH1 0x0 PUSH1 0x2 SLOAD PUSH3 0x7D5 DUP2 PUSH3 0x1610 JUMP JUMPDEST DUP1 DUP5 MSTORE SWAP1 PUSH1 0x1 SWAP1 DUP2 DUP2 AND SWAP1 DUP2 ISZERO PUSH3 0x87C JUMPI POP PUSH1 0x1 EQ PUSH3 0x81D JUMPI JUMPDEST PUSH3 0x819 DUP5 PUSH3 0x804 DUP2 DUP7 SUB DUP3 PUSH3 0x166A JUMP JUMPDEST PUSH1 0x40 MLOAD SWAP2 DUP3 SWAP2 PUSH1 0x20 DUP4 MSTORE PUSH1 0x20 DUP4 ADD SWAP1 PUSH3 0x168D JUMP JUMPDEST SUB SWAP1 RETURN JUMPDEST PUSH1 0x2 PUSH1 0x0 SWAP1 DUP2 MSTORE SWAP3 POP PUSH32 0x405787FA12A823E0F2B7631CC41B3BA8828B3321CA811111FA75CD3AA3BB5ACE JUMPDEST DUP3 DUP5 LT PUSH3 0x863 JUMPI POP POP POP DUP2 ADD PUSH1 0x20 ADD PUSH3 0x804 DUP3 PUSH3 0x7F1 JUMP JUMPDEST DUP1 SLOAD PUSH1 0x20 DUP6 DUP8 ADD DUP2 ADD SWAP2 SWAP1 SWAP2 MSTORE SWAP1 SWAP4 ADD SWAP3 DUP2 ADD PUSH3 0x848 JUMP JUMPDEST PUSH1 0xFF NOT AND PUSH1 0x20 DUP1 DUP8 ADD SWAP2 SWAP1 SWAP2 MSTORE SWAP3 ISZERO ISZERO PUSH1 0x5 SHL DUP6 ADD SWAP1 SWAP3 ADD SWAP3 POP PUSH3 0x804 SWAP2 POP DUP4 SWAP1 POP PUSH3 0x7F1 JUMP JUMPDEST CALLVALUE PUSH3 0x1D8 JUMPI PUSH1 0x20 CALLDATASIZE PUSH1 0x3 NOT ADD SLT PUSH3 0x1D8 JUMPI PUSH1 0x4 CALLDATALOAD PUSH1 0x10 SLOAD DUP2 LT ISZERO PUSH3 0x1D8 JUMPI PUSH3 0x8D3 PUSH1 0x20 SWAP2 PUSH3 0x16E6 JUMP JUMPDEST SWAP1 SLOAD PUSH1 0x40 MLOAD PUSH1 0x3 SWAP3 SWAP1 SWAP3 SHL SHR PUSH1 0x1 PUSH1 0x1 PUSH1 0xA0 SHL SUB AND DUP2 MSTORE RETURN JUMPDEST CALLVALUE PUSH3 0x1D8 JUMPI PUSH1 0x0 CALLDATASIZE PUSH1 0x3 NOT ADD SLT PUSH3 0x1D8 JUMPI PUSH1 0x20 PUSH1 0x9 SLOAD PUSH1 0x40 MLOAD SWAP1 DUP2 MSTORE RETURN JUMPDEST CALLVALUE PUSH3 0x1D8 JUMPI PUSH1 0x0 CALLDATASIZE PUSH1 0x3 NOT ADD SLT PUSH3 0x1D8 JUMPI PUSH1 0x20 PUSH1 0xFF PUSH1 0xA SLOAD PUSH1 0x8 SHR AND PUSH1 0x40 MLOAD SWAP1 ISZERO ISZERO DUP2 MSTORE RETURN JUMPDEST CALLVALUE PUSH3 0x1D8 JUMPI PUSH1 0x0 CALLDATASIZE PUSH1 0x3 NOT ADD SLT PUSH3 0x1D8 JUMPI PUSH1 0x20 PUSH1 0x13 SLOAD PUSH1 0x40 MLOAD SWAP1 DUP2 MSTORE RETURN JUMPDEST CALLVALUE PUSH3 0x1D8 JUMPI PUSH1 0x0 CALLDATASIZE PUSH1 0x3 NOT ADD SLT PUSH3 0x1D8 JUMPI PUSH1 0x20 PUSH1 0x7 SLOAD PUSH1 0x40 MLOAD SWAP1 DUP2 MSTORE RETURN JUMPDEST CALLVALUE PUSH3 0x1D8 JUMPI PUSH1 0x60 CALLDATASIZE PUSH1 0x3 NOT ADD SLT PUSH3 0x1D8 JUMPI PUSH3 0x991 PUSH3 0x16CF JUMP JUMPDEST PUSH1 0x6 SLOAD PUSH1 0x1 PUSH1 0x1 PUSH1 0xA0 SHL SUB SWAP2 PUSH1 0x24 CALLDATALOAD SWAP2 PUSH3 0x9B0 SWAP1 DUP5 AND CALLER EQ PUSH3 0x23EE JUMP JUMPDEST PUSH3 0x9BA PUSH3 0x2516 JUMP JUMPDEST PUSH1 0xA SLOAD SWAP1 PUSH3 0x9D0 PUSH1 0xFF DUP4 PUSH1 0x8 SHR AND ISZERO PUSH3 0x242A JUMP JUMPDEST DUP3 ISZERO PUSH3 0xBBE JUMPI DUP4 AND SWAP2 DUP3 PUSH1 0x0 MSTORE PUSH1 0x20 SWAP2 PUSH1 0xF DUP4 MSTORE DUP2 PUSH1 0x40 PUSH1 0x0 KECCAK256 SLOAD LT PUSH3 0xB79 JUMPI PUSH1 0xFF PUSH3 0xA04 SWAP2 PUSH1 0x10 SHR AND ISZERO PUSH3 0x246F JUMP JUMPDEST PUSH3 0xA0F DUP2 PUSH3 0x176F JUMP JUMPDEST SWAP4 PUSH3 0xA20 PUSH1 0x44 CALLDATALOAD DUP7 LT ISZERO PUSH3 0x24B9 JUMP JUMPDEST SELFBALANCE DUP6 GT PUSH3 0xB34 JUMPI PUSH1 0x64 PUSH3 0xA38 PUSH1 0x13 SLOAD DUP8 PUSH3 0x24A5 JUMP JUMPDEST DIV SWAP1 PUSH3 0xA65 PUSH3 0xA4A DUP4 DUP9 PUSH3 0x17D8 JUMP JUMPDEST SWAP7 PUSH3 0xA59 DUP6 PUSH1 0xE SLOAD PUSH3 0x17D8 JUMP JUMPDEST PUSH1 0xE SSTORE PUSH1 0x8 SLOAD PUSH3 0x17D8 JUMP JUMPDEST PUSH1 0x8 SSTORE DUP5 PUSH1 0x0 MSTORE PUSH1 0xF DUP5 MSTORE PUSH1 0x40 PUSH1 0x0 KECCAK256 PUSH3 0xA82 DUP5 DUP3 SLOAD PUSH3 0x17D8 JUMP JUMPDEST SWAP1 SSTORE PUSH1 0x0 DUP7 DUP7 DUP2 ISZERO PUSH3 0xB29 JUMPI JUMPDEST PUSH1 0x0 SWAP3 DUP4 SWAP3 DUP4 SWAP3 DUP4 SWAP3 CALL ISZERO PUSH3 0x39E JUMPI PUSH1 0x0 DUP1 DUP1 SWAP4 DUP2 SWAP4 PUSH1 0x14 SLOAD AND DUP3 DUP3 ISZERO PUSH3 0xB1F JUMPI JUMPDEST CALL ISZERO PUSH3 0x39E JUMPI PUSH32 0x6DB63BEBF1E6540277744DF32846EBDB98385B1A73F2D5DE49B28348ADD63F50 DUP4 SWAP2 PUSH1 0x40 SWAP6 PUSH3 0xAEB PUSH3 0x256D JUMP JUMPDEST DUP7 MLOAD SWAP2 DUP3 MSTORE PUSH1 0x20 DUP3 ADD MSTORE TIMESTAMP PUSH1 0x40 DUP3 ADD MSTORE PUSH1 0x60 SWAP1 LOG2 PUSH1 0x8 SLOAD SWAP2 PUSH1 0x0 MSTORE PUSH1 0xF DUP2 MSTORE DUP3 PUSH1 0x0 KECCAK256 SLOAD SWAP1 PUSH1 0x1 PUSH1 0x0 SSTORE DUP4 MLOAD SWAP3 DUP4 MSTORE DUP3 ADD MSTORE RETURN JUMPDEST POP PUSH2 0x8FC PUSH3 0xAB4 JUMP JUMPDEST PUSH2 0x8FC SWAP3 POP PUSH3 0xA90 JUMP JUMPDEST PUSH1 0x40 MLOAD PUSH3 0x461BCD PUSH1 0xE5 SHL DUP2 MSTORE PUSH1 0x4 DUP2 ADD DUP5 SWAP1 MSTORE PUSH1 0x1D PUSH1 0x24 DUP3 ADD MSTORE PUSH32 0x496E73756666696369656E7420636F6E74726163742062616C616E6365000000 PUSH1 0x44 DUP3 ADD MSTORE PUSH1 0x64 SWAP1 REVERT JUMPDEST PUSH1 0x40 MLOAD PUSH3 0x461BCD PUSH1 0xE5 SHL DUP2 MSTORE PUSH1 0x4 DUP2 ADD DUP5 SWAP1 MSTORE PUSH1 0x1A PUSH1 0x24 DUP3 ADD MSTORE PUSH32 0x496E73756666696369656E7420746F6B656E2062616C616E6365000000000000 PUSH1 0x44 DUP3 ADD MSTORE PUSH1 0x64 SWAP1 REVERT JUMPDEST PUSH1 0x40 MLOAD PUSH3 0x461BCD PUSH1 0xE5 SHL DUP2 MSTORE PUSH1 0x20 PUSH1 0x4 DUP3 ADD MSTORE PUSH1 0x23 PUSH1 0x24 DUP3 ADD MSTORE PUSH32 0x546F6B656E20616D6F756E74206D757374206265206772656174657220746861 PUSH1 0x44 DUP3 ADD MSTORE PUSH3 0x6E203 PUSH1 0xEC SHL PUSH1 0x64 DUP3 ADD MSTORE PUSH1 0x84 SWAP1 REVERT JUMPDEST CALLVALUE PUSH3 0x1D8 JUMPI PUSH1 0x20 CALLDATASIZE PUSH1 0x3 NOT ADD SLT PUSH3 0x1D8 JUMPI PUSH1 0x1 PUSH1 0x1 PUSH1 0xA0 SHL SUB PUSH3 0xC34 PUSH3 0x16CF JUMP JUMPDEST AND PUSH1 0x0 MSTORE PUSH1 0x11 PUSH1 0x20 MSTORE PUSH1 0x20 PUSH1 0xFF PUSH1 0x40 PUSH1 0x0 KECCAK256 SLOAD AND PUSH1 0x40 MLOAD SWAP1 ISZERO ISZERO DUP2 MSTORE RETURN JUMPDEST CALLVALUE PUSH3 0x1D8 JUMPI PUSH1 0x0 CALLDATASIZE PUSH1 0x3 NOT ADD SLT PUSH3 0x1D8 JUMPI PUSH1 0x20 PUSH1 0xFF PUSH1 0xA SLOAD AND PUSH1 0x40 MLOAD SWAP1 DUP2 MSTORE RETURN JUMPDEST CALLVALUE PUSH3 0x1D8 JUMPI PUSH1 0x0 CALLDATASIZE PUSH1 0x3 NOT ADD SLT PUSH3 0x1D8 JUMPI PUSH1 0x15 SLOAD PUSH8 0xFFFFFFFFFFFFFFFF DUP2 GT PUSH3 0x661 JUMPI PUSH1 0x40 MLOAD PUSH1 0x20 SWAP1 PUSH3 0xCB2 DUP3 DUP5 PUSH1 0x5 SHL ADD DUP3 PUSH3 0x166A JUMP JUMPDEST DUP3 DUP2 MSTORE DUP2 DUP2 ADD SWAP3 DUP4 PUSH1 0x15 PUSH1 0x0 MSTORE PUSH32 0x55F448FDEA98C4D29EB340757EF0A66CD03DBB9538908A6A81D96026B71EC475 PUSH1 0x0 SWAP2 JUMPDEST DUP4 DUP4 LT PUSH3 0xD32 JUMPI PUSH1 0x40 DUP1 MLOAD DUP8 DUP2 MSTORE DUP7 MLOAD DUP2 DUP10 ADD DUP2 SWAP1 MSTORE DUP10 SWAP3 DUP3 ADD SWAP1 DUP10 PUSH1 0x0 JUMPDEST DUP3 DUP2 LT PUSH3 0xD12 JUMPI DUP5 DUP5 SUB DUP6 RETURN JUMPDEST DUP6 MLOAD DUP1 MLOAD DUP6 MSTORE DUP3 ADD MLOAD DUP5 DUP4 ADD MSTORE SWAP5 DUP2 ADD SWAP5 PUSH1 0x40 SWAP1 SWAP4 ADD SWAP3 PUSH1 0x1 ADD PUSH3 0xD04 JUMP JUMPDEST PUSH1 0x2 DUP7 PUSH1 0x1 SWAP3 PUSH1 0x40 MLOAD PUSH3 0xD46 DUP2 PUSH3 0x164D JUMP JUMPDEST DUP6 SLOAD DUP2 MSTORE DUP5 DUP7 ADD SLOAD DUP4 DUP3 ADD MSTORE DUP2 MSTORE ADD SWAP3 ADD SWAP3 ADD SWAP2 SWAP1 PUSH3 0xCE4 JUMP JUMPDEST CALLVALUE PUSH3 0x1D8 JUMPI PUSH1 0x20 CALLDATASIZE PUSH1 0x3 NOT ADD SLT PUSH3 0x1D8 JUMPI PUSH1 0x1 PUSH1 0x1 PUSH1 0xA0 SHL SUB PUSH3 0xD86 PUSH3 0x16CF JUMP JUMPDEST AND PUSH1 0x0 MSTORE PUSH1 0xF PUSH1 0x20 MSTORE PUSH1 0x20 PUSH1 0x40 PUSH1 0x0 KECCAK256 SLOAD PUSH1 0x40 MLOAD SWAP1 DUP2 MSTORE RETURN JUMPDEST CALLVALUE PUSH3 0x1D8 JUMPI PUSH1 0x0 CALLDATASIZE PUSH1 0x3 NOT ADD SLT PUSH3 0x1D8 JUMPI PUSH1 0x20 PUSH1 0xE SLOAD PUSH1 0x40 MLOAD SWAP1 DUP2 MSTORE RETURN JUMPDEST CALLVALUE PUSH3 0x1D8 JUMPI PUSH1 0x0 CALLDATASIZE PUSH1 0x3 NOT ADD SLT PUSH3 0x1D8 JUMPI PUSH1 0x12 SLOAD PUSH1 0x40 MLOAD PUSH1 0x1 PUSH1 0x1 PUSH1 0xA0 SHL SUB SWAP1 SWAP2 AND DUP2 MSTORE PUSH1 0x20 SWAP1 RETURN JUMPDEST CALLVALUE PUSH3 0x1D8 JUMPI PUSH1 0x0 CALLDATASIZE PUSH1 0x3 NOT ADD SLT PUSH3 0x1D8 JUMPI PUSH1 0x20 PUSH1 0x10 SLOAD PUSH1 0x40 MLOAD SWAP1 DUP2 MSTORE RETURN JUMPDEST CALLVALUE PUSH3 0x1D8 JUMPI PUSH1 0x0 CALLDATASIZE PUSH1 0x3 NOT ADD SLT PUSH3 0x1D8 JUMPI PUSH1 0x40 MLOAD DUP1 PUSH1 0x10 SLOAD DUP1 DUP4 MSTORE PUSH1 0x20 DUP1 SWAP4 ADD DUP1 SWAP2 PUSH1 0x10 PUSH1 0x0 MSTORE PUSH32 0x1B6847DC741A1B0CD08D278845F9D819D87B734759AFB55FE2DE5CB82A9AE672 SWAP1 PUSH1 0x0 JUMPDEST DUP7 DUP3 DUP3 LT PUSH3 0xEBC JUMPI DUP7 DUP7 PUSH3 0xE71 DUP3 DUP9 SUB DUP4 PUSH3 0x166A JUMP JUMPDEST PUSH1 0x40 MLOAD SWAP3 DUP4 SWAP3 DUP2 DUP5 ADD SWAP1 DUP3 DUP6 MSTORE MLOAD DUP1 SWAP2 MSTORE PUSH1 0x40 DUP5 ADD SWAP3 SWAP2 PUSH1 0x0 JUMPDEST DUP3 DUP2 LT PUSH3 0xE9B JUMPI POP POP POP POP SUB SWAP1 RETURN JUMPDEST DUP4 MLOAD PUSH1 0x1 PUSH1 0x1 PUSH1 0xA0 SHL SUB AND DUP6 MSTORE DUP7 SWAP6 POP SWAP4 DUP2 ADD SWAP4 SWAP3 DUP2 ADD SWAP3 PUSH1 0x1 ADD PUSH3 0xE8B JUMP JUMPDEST DUP4 SLOAD PUSH1 0x1 PUSH1 0x1 PUSH1 0xA0 SHL SUB AND DUP6 MSTORE SWAP1 SWAP4 ADD SWAP3 PUSH1 0x1 SWAP3 DUP4 ADD SWAP3 ADD PUSH3 0xE58 JUMP JUMPDEST CALLVALUE PUSH3 0x1D8 JUMPI PUSH1 0x0 CALLDATASIZE PUSH1 0x3 NOT ADD SLT PUSH3 0x1D8 JUMPI PUSH1 0x20 PUSH1 0xFF PUSH1 0xA SLOAD PUSH1 0x10 SHR AND PUSH1 0x40 MLOAD SWAP1 ISZERO ISZERO DUP2 MSTORE RETURN JUMPDEST CALLVALUE PUSH3 0x1D8 JUMPI PUSH1 0x60 CALLDATASIZE PUSH1 0x3 NOT ADD SLT PUSH3 0x1D8 JUMPI PUSH3 0xF1F PUSH3 0x16CF JUMP JUMPDEST PUSH1 0x24 CALLDATALOAD PUSH1 0x1 PUSH1 0x1 PUSH1 0xA0 SHL SUB DUP2 AND DUP2 SUB PUSH3 0x1D8 JUMPI PUSH1 0x44 CALLDATALOAD SWAP1 PUSH1 0x1 PUSH1 0x1 PUSH1 0xA0 SHL SUB DUP3 AND DUP3 SUB PUSH3 0x1D8 JUMPI PUSH3 0xF5F PUSH1 0x1 DUP1 PUSH1 0xA0 SHL SUB PUSH1 0x6 SLOAD AND CALLER EQ PUSH3 0x23EE JUMP JUMPDEST PUSH3 0xF69 PUSH3 0x2516 JUMP JUMPDEST PUSH1 0xA SLOAD PUSH3 0xF7E PUSH1 0xFF DUP3 PUSH1 0x8 SHR AND ISZERO PUSH3 0x242A JUMP JUMPDEST PUSH1 0x8 SLOAD PUSH1 0xD SLOAD GT PUSH3 0x14B1 JUMPI PUSH1 0xFF DUP2 PUSH1 0x10 SHR AND ISZERO PUSH3 0x147F JUMPI PUSH2 0xFF00 NOT AND PUSH2 0x100 OR PUSH1 0xA SSTORE PUSH1 0x40 MLOAD PUSH3 0xFD9 PUSH1 0x8 DUP3 PUSH3 0xFBB PUSH1 0x20 DUP3 ADD PUSH3 0x25D4 JUMP JUMPDEST PUSH8 0x706F736974697665 PUSH1 0xC0 SHL DUP2 MSTORE SUB PUSH1 0x17 NOT DUP2 ADD DUP5 MSTORE ADD DUP3 PUSH3 0x166A JUMP JUMPDEST PUSH1 0x40 MLOAD PUSH3 0x100A PUSH1 0x3 DUP3 PUSH3 0xFF1 PUSH1 0x20 DUP3 ADD PUSH3 0x2668 JUMP JUMPDEST PUSH3 0x706F73 PUSH1 0xE8 SHL DUP2 MSTORE SUB PUSH1 0x1C NOT DUP2 ADD DUP5 MSTORE ADD DUP3 PUSH3 0x166A JUMP JUMPDEST PUSH1 0x7 SLOAD PUSH1 0x40 MLOAD SWAP3 DUP4 PUSH2 0xCE9 DUP2 ADD LT PUSH8 0xFFFFFFFFFFFFFFFF PUSH2 0xCE9 DUP7 ADD GT OR PUSH3 0x661 JUMPI DUP4 SWAP3 PUSH3 0x104C SWAP3 PUSH2 0xCE9 PUSH3 0x2753 DUP7 CODECOPY PUSH1 0x1 SHR SWAP2 PUSH2 0xCE9 DUP6 ADD PUSH3 0x26EA JUMP JUMPDEST SUB SWAP1 PUSH1 0x0 CREATE DUP1 ISZERO PUSH3 0x39E JUMPI PUSH1 0x40 MLOAD PUSH3 0x108E PUSH1 0x8 DUP3 PUSH3 0x1070 PUSH1 0x20 DUP3 ADD PUSH3 0x25D4 JUMP JUMPDEST PUSH8 0x6E65676174697665 PUSH1 0xC0 SHL DUP2 MSTORE SUB PUSH1 0x17 NOT DUP2 ADD DUP5 MSTORE ADD DUP3 PUSH3 0x166A JUMP JUMPDEST PUSH1 0x40 MLOAD SWAP1 PUSH3 0x10C0 PUSH1 0x3 DUP4 PUSH3 0x10A7 PUSH1 0x20 DUP3 ADD PUSH3 0x2668 JUMP JUMPDEST PUSH3 0x6E6567 PUSH1 0xE8 SHL DUP2 MSTORE SUB PUSH1 0x1C NOT DUP2 ADD DUP6 MSTORE ADD DUP4 PUSH3 0x166A JUMP JUMPDEST PUSH1 0x7 SLOAD PUSH1 0x1 SHR SWAP2 PUSH1 0x40 MLOAD SWAP3 PUSH2 0xCE9 DUP5 ADD SWAP2 DUP5 DUP4 LT PUSH8 0xFFFFFFFFFFFFFFFF DUP5 GT OR PUSH3 0x661 JUMPI DUP5 SWAP4 PUSH3 0x10FB SWAP4 PUSH2 0xCE9 PUSH3 0x2753 DUP8 CODECOPY PUSH3 0x26EA JUMP JUMPDEST SUB SWAP1 PUSH1 0x0 CREATE SWAP4 DUP5 ISZERO PUSH3 0x39E JUMPI PUSH12 0xFFFFFFFFFFFFFFFFFFFFFFFF PUSH1 0xA0 SHL PUSH1 0x1 DUP1 PUSH1 0xA0 SHL SUB DUP4 AND DUP2 PUSH1 0x3 SLOAD AND OR PUSH1 0x3 SSTORE PUSH1 0x1 DUP1 PUSH1 0xA0 SHL SUB DUP7 AND SWAP1 PUSH1 0x4 SLOAD AND OR PUSH1 0x4 SSTORE PUSH3 0x114D PUSH1 0x7 SLOAD PUSH1 0xE SLOAD SWAP1 PUSH3 0x17D8 JUMP JUMPDEST SWAP5 PUSH1 0x8 SLOAD PUSH1 0xFF PUSH1 0xA SLOAD AND PUSH1 0x64 SUB PUSH1 0xFF DUP2 GT PUSH3 0x6E3 JUMPI PUSH1 0x64 SWAP2 PUSH1 0xFF PUSH3 0x1175 SWAP3 AND SWAP1 PUSH3 0x24A5 JUMP JUMPDEST PUSH1 0x40 MLOAD PUSH4 0x95EA7B3 PUSH1 0xE0 SHL DUP2 MSTORE PUSH1 0x1 PUSH1 0x1 PUSH1 0xA0 SHL SUB DUP6 AND PUSH1 0x4 DUP3 ADD MSTORE PUSH1 0x1 DUP10 SWAP1 SHR PUSH1 0x24 DUP3 ADD MSTORE SWAP2 SWAP1 DIV SWAP4 PUSH1 0x20 SWAP1 DUP3 SWAP1 DUP2 PUSH1 0x0 DUP2 PUSH1 0x44 DUP2 ADD SUB SWAP3 PUSH1 0x1 PUSH1 0x1 PUSH1 0xA0 SHL SUB AND GAS CALL DUP1 ISZERO PUSH3 0x39E JUMPI PUSH3 0x145B JUMPI JUMPDEST POP PUSH1 0x40 MLOAD PUSH4 0x95EA7B3 PUSH1 0xE0 SHL DUP2 MSTORE PUSH1 0x1 PUSH1 0x1 PUSH1 0xA0 SHL SUB DUP4 DUP2 AND PUSH1 0x4 DUP4 ADD MSTORE PUSH1 0x1 DUP9 SWAP1 SHR PUSH1 0x24 DUP4 ADD MSTORE SWAP1 SWAP2 PUSH1 0x20 SWAP2 DUP4 SWAP2 PUSH1 0x44 SWAP2 DUP4 SWAP2 PUSH1 0x0 SWAP2 AND GAS CALL DUP1 ISZERO PUSH3 0x39E JUMPI PUSH3 0x1437 JUMPI JUMPDEST POP PUSH2 0x4B0 TIMESTAMP ADD SWAP1 DUP2 TIMESTAMP GT PUSH3 0x6E3 JUMPI PUSH1 0x3 SLOAD PUSH1 0x40 MLOAD PUSH4 0xF305D719 PUSH1 0xE0 SHL DUP1 DUP3 MSTORE PUSH1 0x1 PUSH1 0x1 PUSH1 0xA0 SHL SUB SWAP3 DUP4 AND PUSH1 0x4 DUP4 ADD MSTORE PUSH1 0x1 DUP10 DUP2 SHR PUSH1 0x24 DUP5 ADD MSTORE PUSH1 0x0 PUSH1 0x44 DUP5 ADD MSTORE SWAP6 SWAP1 SWAP6 SHR PUSH1 0x64 DUP3 ADD DUP2 SWAP1 MSTORE ADDRESS PUSH1 0x84 DUP4 ADD MSTORE PUSH1 0xA4 DUP3 ADD DUP6 SWAP1 MSTORE SWAP1 SWAP4 SWAP1 SWAP3 SWAP1 SWAP2 AND SWAP1 PUSH1 0x60 DUP5 PUSH1 0xC4 DUP2 DUP7 DUP7 GAS CALL DUP1 ISZERO PUSH3 0x39E JUMPI DUP9 SWAP6 PUSH1 0x60 SWAP6 DUP6 SWAP3 PUSH3 0x1415 JUMPI JUMPDEST POP PUSH1 0x4 DUP1 SLOAD PUSH1 0x40 MLOAD SWAP3 DUP4 MSTORE PUSH1 0x1 PUSH1 0x1 PUSH1 0xA0 SHL SUB AND SWAP1 DUP3 ADD MSTORE PUSH1 0x1 SWAP7 SWAP1 SWAP7 SHR PUSH1 0x24 DUP8 ADD MSTORE PUSH1 0x0 PUSH1 0x44 DUP8 ADD MSTORE PUSH1 0x64 DUP7 ADD SWAP4 SWAP1 SWAP4 MSTORE ADDRESS PUSH1 0x84 DUP7 ADD MSTORE PUSH1 0xA4 DUP6 ADD MSTORE DUP4 SWAP2 PUSH1 0xC4 SWAP2 DUP4 SWAP2 SWAP1 GAS CALL DUP1 ISZERO PUSH3 0x39E JUMPI PUSH3 0x13DF JUMPI JUMPDEST POP SELFBALANCE DUP1 ISZERO PUSH3 0x139A JUMPI PUSH1 0x1 SHR SWAP1 PUSH1 0x0 DUP1 DUP1 DUP1 DUP6 DUP2 DUP2 ISZERO SWAP7 DUP8 PUSH3 0x138F JUMPI JUMPDEST PUSH1 0x1 PUSH1 0x1 PUSH1 0xA0 SHL SUB AND SWAP1 CALL ISZERO PUSH3 0x39E JUMPI PUSH1 0x0 DUP1 DUP1 SWAP4 DUP2 SWAP4 DUP8 SWAP7 DUP4 SWAP2 PUSH3 0x1384 JUMPI JUMPDEST PUSH1 0x1 PUSH1 0x1 PUSH1 0xA0 SHL SUB AND SWAP1 CALL ISZERO PUSH3 0x39E JUMPI PUSH1 0x1 DUP1 PUSH1 0xA0 SHL SUB PUSH1 0x3 SLOAD AND PUSH1 0x1 DUP1 PUSH1 0xA0 SHL SUB PUSH1 0x4 SLOAD AND SWAP2 PUSH1 0x40 MLOAD SWAP1 PUSH1 0x1 SHR DUP2 MSTORE TIMESTAMP PUSH1 0x20 DUP3 ADD MSTORE PUSH32 0xFEDB51B13E7432BCB4A213B2BE92EE7637C20671F653BF0892174F0E4A261755 PUSH1 0x40 ADDRESS SWAP3 LOG4 PUSH1 0x1 PUSH1 0x0 SSTORE STOP JUMPDEST PUSH2 0x8FC SWAP2 POP PUSH3 0x1320 JUMP JUMPDEST PUSH2 0x8FC SWAP2 POP PUSH3 0x12FE JUMP JUMPDEST PUSH1 0x40 MLOAD PUSH3 0x461BCD PUSH1 0xE5 SHL DUP2 MSTORE PUSH1 0x20 PUSH1 0x4 DUP3 ADD MSTORE PUSH1 0x1C PUSH1 0x24 DUP3 ADD MSTORE PUSH32 0x4E6F2062616C616E636520666F722063726561746F7220736861726500000000 PUSH1 0x44 DUP3 ADD MSTORE PUSH1 0x64 SWAP1 REVERT JUMPDEST PUSH3 0x1405 SWAP1 PUSH1 0x60 RETURNDATASIZE PUSH1 0x60 GT PUSH3 0x140D JUMPI JUMPDEST PUSH3 0x13FC DUP2 DUP4 PUSH3 0x166A JUMP JUMPDEST DUP2 ADD SWAP1 PUSH3 0x2736 JUMP JUMPDEST POP POP PUSH3 0x12E0 JUMP JUMPDEST POP RETURNDATASIZE PUSH3 0x13F0 JUMP JUMPDEST PUSH3 0x142F SWAP1 DUP8 RETURNDATASIZE DUP10 GT PUSH3 0x140D JUMPI PUSH3 0x13FC DUP2 DUP4 PUSH3 0x166A JUMP JUMPDEST POP POP PUSH3 0x128C JUMP JUMPDEST PUSH3 0x1453 SWAP1 PUSH1 0x20 RETURNDATASIZE PUSH1 0x20 GT PUSH3 0x396 JUMPI PUSH3 0x385 DUP2 DUP4 PUSH3 0x166A JUMP JUMPDEST POP DUP6 PUSH3 0x120D JUMP JUMPDEST PUSH3 0x1477 SWAP1 PUSH1 0x20 RETURNDATASIZE PUSH1 0x20 GT PUSH3 0x396 JUMPI PUSH3 0x385 DUP2 DUP4 PUSH3 0x166A JUMP JUMPDEST POP DUP7 PUSH3 0x11C6 JUMP JUMPDEST PUSH1 0x40 MLOAD PUSH3 0x461BCD PUSH1 0xE5 SHL DUP2 MSTORE PUSH1 0x20 PUSH1 0x4 DUP3 ADD MSTORE PUSH1 0xA PUSH1 0x24 DUP3 ADD MSTORE PUSH10 0x1B9BDD08189BDB991959 PUSH1 0xB2 SHL PUSH1 0x44 DUP3 ADD MSTORE PUSH1 0x64 SWAP1 REVERT JUMPDEST PUSH1 0x40 MLOAD PUSH3 0x461BCD PUSH1 0xE5 SHL DUP2 MSTORE PUSH1 0x20 PUSH1 0x4 DUP3 ADD MSTORE PUSH1 0x15 PUSH1 0x24 DUP3 ADD MSTORE PUSH21 0x14D85B194819DBD85B081B9BDD081C995858DA1959 PUSH1 0x5A SHL PUSH1 0x44 DUP3 ADD MSTORE PUSH1 0x64 SWAP1 REVERT JUMPDEST CALLVALUE PUSH3 0x1D8 JUMPI PUSH1 0x20 CALLDATASIZE PUSH1 0x3 NOT ADD SLT PUSH3 0x1D8 JUMPI PUSH1 0x20 PUSH3 0x1510 PUSH1 0x4 CALLDATALOAD PUSH3 0x218E JUMP JUMPDEST PUSH1 0x40 MLOAD SWAP1 DUP2 MSTORE RETURN JUMPDEST CALLVALUE PUSH3 0x1D8 JUMPI PUSH1 0x20 CALLDATASIZE PUSH1 0x3 NOT ADD SLT PUSH3 0x1D8 JUMPI PUSH1 0x20 PUSH3 0x1510 PUSH1 0x4 CALLDATALOAD PUSH3 0x176F JUMP JUMPDEST CALLVALUE PUSH3 0x1D8 JUMPI PUSH1 0x0 CALLDATASIZE PUSH1 0x3 NOT ADD SLT PUSH3 0x1D8 JUMPI PUSH1 0x40 MLOAD PUSH1 0x0 PUSH1 0x1 DUP1 SLOAD SWAP1 PUSH3 0x1562 DUP3 PUSH3 0x1610 JUMP JUMPDEST DUP1 DUP6 MSTORE SWAP2 DUP2 DUP2 AND SWAP1 DUP2 ISZERO PUSH3 0x87C JUMPI POP PUSH1 0x1 EQ PUSH3 0x158D JUMPI PUSH3 0x819 DUP5 PUSH3 0x804 DUP2 DUP7 SUB DUP3 PUSH3 0x166A JUMP JUMPDEST PUSH1 0x0 DUP2 DUP2 MSTORE SWAP3 POP PUSH32 0xB10E2D527612073B26EECDFD717E6A320CF44B4AFAC2B0732D9FCBE2B7FA0CF6 JUMPDEST DUP3 DUP5 LT PUSH3 0x15D1 JUMPI POP POP POP DUP2 ADD PUSH1 0x20 ADD PUSH3 0x804 DUP3 PUSH3 0x7F1 JUMP JUMPDEST DUP1 SLOAD PUSH1 0x20 DUP6 DUP8 ADD DUP2 ADD SWAP2 SWAP1 SWAP2 MSTORE SWAP1 SWAP4 ADD SWAP3 DUP2 ADD PUSH3 0x15B6 JUMP JUMPDEST CALLVALUE PUSH3 0x1D8 JUMPI PUSH1 0x0 CALLDATASIZE PUSH1 0x3 NOT ADD SLT PUSH3 0x1D8 JUMPI PUSH1 0x5 SLOAD PUSH1 0x1 PUSH1 0x1 PUSH1 0xA0 SHL SUB AND DUP2 MSTORE PUSH1 0x20 SWAP1 RETURN JUMPDEST SWAP1 PUSH1 0x1 DUP3 DUP2 SHR SWAP3 AND DUP1 ISZERO PUSH3 0x1642 JUMPI JUMPDEST PUSH1 0x20 DUP4 LT EQ PUSH3 0x162C JUMPI JUMP JUMPDEST PUSH4 0x4E487B71 PUSH1 0xE0 SHL PUSH1 0x0 MSTORE PUSH1 0x22 PUSH1 0x4 MSTORE PUSH1 0x24 PUSH1 0x0 REVERT JUMPDEST SWAP2 PUSH1 0x7F AND SWAP2 PUSH3 0x1620 JUMP JUMPDEST PUSH1 0x40 DUP2 ADD SWAP1 DUP2 LT PUSH8 0xFFFFFFFFFFFFFFFF DUP3 GT OR PUSH3 0x661 JUMPI PUSH1 0x40 MSTORE JUMP JUMPDEST SWAP1 PUSH1 0x1F DUP1 NOT SWAP2 ADD AND DUP2 ADD SWAP1 DUP2 LT PUSH8 0xFFFFFFFFFFFFFFFF DUP3 GT OR PUSH3 0x661 JUMPI PUSH1 0x40 MSTORE JUMP JUMPDEST SWAP2 SWAP1 DUP3 MLOAD SWAP3 DUP4 DUP3 MSTORE PUSH1 0x0 JUMPDEST DUP5 DUP2 LT PUSH3 0x16BA JUMPI POP POP DUP3 PUSH1 0x0 PUSH1 0x20 DUP1 SWAP5 SWAP6 DUP5 ADD ADD MSTORE PUSH1 0x1F DUP1 NOT SWAP2 ADD AND ADD ADD SWAP1 JUMP JUMPDEST PUSH1 0x20 DUP2 DUP4 ADD DUP2 ADD MLOAD DUP5 DUP4 ADD DUP3 ADD MSTORE ADD PUSH3 0x1698 JUMP JUMPDEST PUSH1 0x4 CALLDATALOAD SWAP1 PUSH1 0x1 PUSH1 0x1 PUSH1 0xA0 SHL SUB DUP3 AND DUP3 SUB PUSH3 0x1D8 JUMPI JUMP JUMPDEST PUSH1 0x10 SLOAD DUP2 LT ISZERO PUSH3 0x171E JUMPI PUSH1 0x10 PUSH1 0x0 MSTORE PUSH32 0x1B6847DC741A1B0CD08D278845F9D819D87B734759AFB55FE2DE5CB82A9AE672 ADD SWAP1 PUSH1 0x0 SWAP1 JUMP JUMPDEST PUSH4 0x4E487B71 PUSH1 0xE0 SHL PUSH1 0x0 MSTORE PUSH1 0x32 PUSH1 0x4 MSTORE PUSH1 0x24 PUSH1 0x0 REVERT JUMPDEST PUSH1 0x15 SLOAD DUP2 LT ISZERO PUSH3 0x171E JUMPI PUSH1 0x15 PUSH1 0x0 MSTORE PUSH1 0x1 SHL PUSH32 0x55F448FDEA98C4D29EB340757EF0A66CD03DBB9538908A6A81D96026B71EC475 ADD SWAP1 PUSH1 0x0 SWAP1 JUMP JUMPDEST PUSH3 0x17D5 SWAP1 PUSH3 0x17CE PUSH1 0xE SLOAD SWAP2 PUSH3 0x17BA PUSH3 0x17B3 PUSH3 0x17AD PUSH1 0xB SLOAD SWAP4 PUSH3 0x17C7 PUSH1 0xC SLOAD SWAP2 PUSH3 0x17C0 DUP8 PUSH3 0x17BA PUSH3 0x17B3 PUSH3 0x17AD DUP14 DUP9 PUSH3 0x20F6 JUMP JUMPDEST PUSH3 0x17E6 JUMP JUMPDEST DUP3 PUSH3 0x20F6 JUMP JUMPDEST PUSH3 0x17D8 JUMP JUMPDEST SWAP9 PUSH3 0x17D8 JUMP JUMPDEST SWAP1 PUSH3 0x20F6 JUMP JUMPDEST SWAP1 PUSH3 0x17D8 JUMP JUMPDEST SWAP1 JUMP JUMPDEST SWAP2 SWAP1 DUP3 SUB SWAP2 DUP3 GT PUSH3 0x6E3 JUMPI JUMP JUMPDEST PUSH9 0x736EA4425C11AC630 DUP2 GT PUSH3 0x20DE JUMPI PUSH8 0x14057B7EF767814F SWAP1 PUSH8 0xDE0B6B3A7640000 SWAP2 DUP3 SWAP2 MUL DIV SWAP1 PUSH9 0xA688906BD8AFFFFFF DUP3 GT PUSH3 0x20C5 JUMPI PUSH1 0x40 SWAP2 DUP3 SHL DUP2 SWAP1 DIV SWAP1 PUSH1 0x1 PUSH1 0xBF SHL PUSH8 0xFF00000000000000 DUP4 AND PUSH3 0x1FA4 JUMPI JUMPDEST PUSH7 0xFF000000000000 DUP4 AND PUSH3 0x1E8C JUMPI JUMPDEST PUSH6 0xFF0000000000 DUP4 AND PUSH3 0x1D7C JUMPI JUMPDEST PUSH5 0xFF00000000 DUP4 AND PUSH3 0x1C74 JUMPI JUMPDEST PUSH4 0xFF000000 DUP4 AND PUSH3 0x1B74 JUMPI JUMPDEST PUSH3 0xFF0000 DUP4 AND PUSH3 0x1A7C JUMPI JUMPDEST PUSH2 0xFF00 DUP4 AND PUSH3 0x198C JUMPI JUMPDEST PUSH1 0xFF DUP4 AND PUSH3 0x18A5 JUMPI JUMPDEST MUL SWAP2 SHR PUSH1 0xBF SUB SHR SWAP1 JUMP JUMPDEST PUSH1 0x80 DUP4 AND PUSH3 0x1979 JUMPI JUMPDEST DUP4 DUP4 AND PUSH3 0x1966 JUMPI JUMPDEST PUSH1 0x20 DUP4 AND PUSH3 0x1953 JUMPI JUMPDEST PUSH1 0x10 DUP4 AND PUSH3 0x1940 JUMPI JUMPDEST PUSH1 0x8 DUP4 AND PUSH3 0x192D JUMPI JUMPDEST PUSH1 0x4 DUP4 AND PUSH3 0x191A JUMPI JUMPDEST PUSH1 0x2 DUP4 AND PUSH3 0x1907 JUMPI JUMPDEST PUSH1 0x1 DUP4 AND ISZERO PUSH3 0x189B JUMPI PUSH9 0x10000000000000001 MUL DUP4 SHR PUSH3 0x189B JUMP JUMPDEST PUSH9 0x10000000000000001 MUL DUP4 SHR PUSH3 0x18EA JUMP JUMPDEST PUSH9 0x10000000000000003 MUL DUP4 SHR PUSH3 0x18E0 JUMP JUMPDEST PUSH9 0x10000000000000006 MUL DUP4 SHR PUSH3 0x18D6 JUMP JUMPDEST PUSH9 0x1000000000000000B MUL DUP4 SHR PUSH3 0x18CC JUMP JUMPDEST PUSH9 0x10000000000000016 MUL DUP4 SHR PUSH3 0x18C2 JUMP JUMPDEST PUSH9 0x1000000000000002C MUL DUP4 SHR PUSH3 0x18B8 JUMP JUMPDEST PUSH9 0x10000000000000059 MUL DUP4 SHR PUSH3 0x18AF JUMP JUMPDEST PUSH2 0x8000 DUP4 AND PUSH3 0x1A69 JUMPI JUMPDEST PUSH2 0x4000 DUP4 AND PUSH3 0x1A56 JUMPI JUMPDEST PUSH2 0x2000 DUP4 AND PUSH3 0x1A43 JUMPI JUMPDEST PUSH2 0x1000 DUP4 AND PUSH3 0x1A30 JUMPI JUMPDEST PUSH2 0x800 DUP4 AND PUSH3 0x1A1D JUMPI JUMPDEST PUSH2 0x400 DUP4 AND PUSH3 0x1A0A JUMPI JUMPDEST PUSH2 0x200 DUP4 AND PUSH3 0x19F7 JUMPI JUMPDEST PUSH2 0x100 DUP4 AND ISZERO PUSH3 0x1891 JUMPI PUSH9 0x100000000000000B1 MUL DUP4 SHR PUSH3 0x1891 JUMP JUMPDEST PUSH9 0x10000000000000163 MUL DUP4 SHR PUSH3 0x19D9 JUMP JUMPDEST PUSH9 0x100000000000002C6 MUL DUP4 SHR PUSH3 0x19CE JUMP JUMPDEST PUSH9 0x1000000000000058C MUL DUP4 SHR PUSH3 0x19C3 JUMP JUMPDEST PUSH9 0x10000000000000B17 MUL DUP4 SHR PUSH3 0x19B8 JUMP JUMPDEST PUSH9 0x1000000000000162E MUL DUP4 SHR PUSH3 0x19AD JUMP JUMPDEST PUSH9 0x10000000000002C5D MUL DUP4 SHR PUSH3 0x19A2 JUMP JUMPDEST PUSH9 0x100000000000058B9 MUL DUP4 SHR PUSH3 0x1997 JUMP JUMPDEST PUSH3 0x800000 DUP4 AND PUSH3 0x1B61 JUMPI JUMPDEST PUSH3 0x400000 DUP4 AND PUSH3 0x1B4E JUMPI JUMPDEST PUSH3 0x200000 DUP4 AND PUSH3 0x1B3B JUMPI JUMPDEST PUSH3 0x100000 DUP4 AND PUSH3 0x1B28 JUMPI JUMPDEST PUSH3 0x80000 DUP4 AND PUSH3 0x1B15 JUMPI JUMPDEST PUSH3 0x40000 DUP4 AND PUSH3 0x1B02 JUMPI JUMPDEST PUSH3 0x20000 DUP4 AND PUSH3 0x1AEF JUMPI JUMPDEST PUSH3 0x10000 DUP4 AND ISZERO PUSH3 0x1886 JUMPI PUSH9 0x1000000000000B172 MUL DUP4 SHR PUSH3 0x1886 JUMP JUMPDEST PUSH9 0x100000000000162E4 MUL DUP4 SHR PUSH3 0x1AD0 JUMP JUMPDEST PUSH9 0x1000000000002C5C8 MUL DUP4 SHR PUSH3 0x1AC4 JUMP JUMPDEST PUSH9 0x10000000000058B91 MUL DUP4 SHR PUSH3 0x1AB8 JUMP JUMPDEST PUSH9 0x100000000000B1721 MUL DUP4 SHR PUSH3 0x1AAC JUMP JUMPDEST PUSH9 0x10000000000162E43 MUL DUP4 SHR PUSH3 0x1AA0 JUMP JUMPDEST PUSH9 0x100000000002C5C86 MUL DUP4 SHR PUSH3 0x1A94 JUMP JUMPDEST PUSH9 0x1000000000058B90C MUL DUP4 SHR PUSH3 0x1A88 JUMP JUMPDEST PUSH4 0x80000000 DUP4 AND PUSH3 0x1C61 JUMPI JUMPDEST PUSH4 0x40000000 DUP4 AND PUSH3 0x1C4E JUMPI JUMPDEST PUSH4 0x20000000 DUP4 AND PUSH3 0x1C3B JUMPI JUMPDEST PUSH4 0x10000000 DUP4 AND PUSH3 0x1C28 JUMPI JUMPDEST PUSH4 0x8000000 DUP4 AND PUSH3 0x1C15 JUMPI JUMPDEST PUSH4 0x4000000 DUP4 AND PUSH3 0x1C02 JUMPI JUMPDEST PUSH4 0x2000000 DUP4 AND PUSH3 0x1BEF JUMPI JUMPDEST PUSH4 0x1000000 DUP4 AND ISZERO PUSH3 0x187A JUMPI PUSH9 0x10000000000B17218 MUL DUP4 SHR PUSH3 0x187A JUMP JUMPDEST PUSH9 0x1000000000162E430 MUL DUP4 SHR PUSH3 0x1BCF JUMP JUMPDEST PUSH9 0x10000000002C5C860 MUL DUP4 SHR PUSH3 0x1BC2 JUMP JUMPDEST PUSH9 0x100000000058B90C0 MUL DUP4 SHR PUSH3 0x1BB5 JUMP JUMPDEST PUSH9 0x1000000000B17217F MUL DUP4 SHR PUSH3 0x1BA8 JUMP JUMPDEST PUSH9 0x100000000162E42FF MUL DUP4 SHR PUSH3 0x1B9B JUMP JUMPDEST PUSH9 0x1000000002C5C85FE MUL DUP4 SHR PUSH3 0x1B8E JUMP JUMPDEST PUSH9 0x10000000058B90BFC MUL DUP4 SHR PUSH3 0x1B81 JUMP JUMPDEST PUSH5 0x8000000000 DUP4 AND PUSH3 0x1D69 JUMPI JUMPDEST PUSH5 0x4000000000 DUP4 AND PUSH3 0x1D56 JUMPI JUMPDEST PUSH5 0x2000000000 DUP4 AND PUSH3 0x1D43 JUMPI JUMPDEST PUSH5 0x1000000000 DUP4 AND PUSH3 0x1D30 JUMPI JUMPDEST PUSH5 0x800000000 DUP4 AND PUSH3 0x1D1D JUMPI JUMPDEST PUSH5 0x400000000 DUP4 AND PUSH3 0x1D0A JUMPI JUMPDEST PUSH5 0x200000000 DUP4 AND PUSH3 0x1CF7 JUMPI JUMPDEST PUSH5 0x100000000 DUP4 AND ISZERO PUSH3 0x186D JUMPI PUSH9 0x100000000B17217F8 MUL DUP4 SHR PUSH3 0x186D JUMP JUMPDEST PUSH9 0x10000000162E42FF1 MUL DUP4 SHR PUSH3 0x1CD6 JUMP JUMPDEST PUSH9 0x100000002C5C85FE3 MUL DUP4 SHR PUSH3 0x1CC8 JUMP JUMPDEST PUSH9 0x1000000058B90BFCE MUL DUP4 SHR PUSH3 0x1CBA JUMP JUMPDEST PUSH9 0x10000000B17217FBB MUL DUP4 SHR PUSH3 0x1CAC JUMP JUMPDEST PUSH9 0x1000000162E42FFF0 MUL DUP4 SHR PUSH3 0x1C9E JUMP JUMPDEST PUSH9 0x10000002C5C8601CC MUL DUP4 SHR PUSH3 0x1C90 JUMP JUMPDEST PUSH9 0x100000058B90C0B49 MUL DUP4 SHR PUSH3 0x1C82 JUMP JUMPDEST PUSH6 0x800000000000 DUP4 AND PUSH3 0x1E79 JUMPI JUMPDEST PUSH6 0x400000000000 DUP4 AND PUSH3 0x1E66 JUMPI JUMPDEST PUSH6 0x200000000000 DUP4 AND PUSH3 0x1E53 JUMPI JUMPDEST PUSH6 0x100000000000 DUP4 AND PUSH3 0x1E40 JUMPI JUMPDEST PUSH6 0x80000000000 DUP4 AND PUSH3 0x1E2D JUMPI JUMPDEST PUSH6 0x40000000000 DUP4 AND PUSH3 0x1E1A JUMPI JUMPDEST PUSH6 0x20000000000 DUP4 AND PUSH3 0x1E07 JUMPI JUMPDEST PUSH6 0x10000000000 DUP4 AND ISZERO PUSH3 0x185F JUMPI PUSH9 0x1000000B172183551 MUL DUP4 SHR PUSH3 0x185F JUMP JUMPDEST PUSH9 0x100000162E430E5A2 MUL DUP4 SHR PUSH3 0x1DE5 JUMP JUMPDEST PUSH9 0x1000002C5C863B73F MUL DUP4 SHR PUSH3 0x1DD6 JUMP JUMPDEST PUSH9 0x10000058B90CF1E6E MUL DUP4 SHR PUSH3 0x1DC7 JUMP JUMPDEST PUSH9 0x100000B1721BCFC9A MUL DUP4 SHR PUSH3 0x1DB8 JUMP JUMPDEST PUSH9 0x10000162E43F4F831 MUL DUP4 SHR PUSH3 0x1DA9 JUMP JUMPDEST PUSH9 0x100002C5C89D5EC6D MUL DUP4 SHR PUSH3 0x1D9A JUMP JUMPDEST PUSH9 0x1000058B91B5BC9AE MUL DUP4 SHR PUSH3 0x1D8B JUMP JUMPDEST PUSH7 0x80000000000000 DUP4 AND PUSH3 0x1F91 JUMPI JUMPDEST PUSH7 0x40000000000000 DUP4 AND PUSH3 0x1F7E JUMPI JUMPDEST PUSH7 0x20000000000000 DUP4 AND PUSH3 0x1F6B JUMPI JUMPDEST PUSH7 0x10000000000000 DUP4 AND PUSH3 0x1F58 JUMPI JUMPDEST PUSH7 0x8000000000000 DUP4 AND PUSH3 0x1F45 JUMPI JUMPDEST PUSH7 0x4000000000000 DUP4 AND PUSH3 0x1F32 JUMPI JUMPDEST PUSH7 0x2000000000000 DUP4 AND PUSH3 0x1F1F JUMPI JUMPDEST PUSH7 0x1000000000000 DUP4 AND ISZERO PUSH3 0x1850 JUMPI PUSH9 0x10000B17255775C04 MUL DUP4 SHR PUSH3 0x1850 JUMP JUMPDEST PUSH9 0x1000162E525EE0547 MUL DUP4 SHR PUSH3 0x1EFC JUMP JUMPDEST PUSH9 0x10002C5CC37DA9492 MUL DUP4 SHR PUSH3 0x1EEC JUMP JUMPDEST PUSH9 0x100058BA01FB9F96D MUL DUP4 SHR PUSH3 0x1EDC JUMP JUMPDEST PUSH9 0x1000B175EFFDC76BA MUL DUP4 SHR PUSH3 0x1ECC JUMP JUMPDEST PUSH9 0x100162F3904051FA1 MUL DUP4 SHR PUSH3 0x1EBC JUMP JUMPDEST PUSH9 0x1002C605E2E8CEC50 MUL DUP4 SHR PUSH3 0x1EAC JUMP JUMPDEST PUSH9 0x10058C86DA1C09EA2 MUL DUP4 SHR PUSH3 0x1E9C JUMP JUMPDEST PUSH8 0x8000000000000000 DUP4 AND PUSH3 0x20B1 JUMPI JUMPDEST PUSH8 0x4000000000000000 DUP4 AND PUSH3 0x209E JUMPI JUMPDEST PUSH8 0x2000000000000000 DUP4 AND PUSH3 0x208B JUMPI JUMPDEST PUSH8 0x1000000000000000 DUP4 AND PUSH3 0x2078 JUMPI JUMPDEST PUSH8 0x800000000000000 DUP4 AND PUSH3 0x2065 JUMPI JUMPDEST PUSH8 0x400000000000000 DUP4 AND PUSH3 0x2052 JUMPI JUMPDEST PUSH8 0x200000000000000 DUP4 AND PUSH3 0x203F JUMPI JUMPDEST PUSH8 0x100000000000000 DUP4 AND ISZERO PUSH3 0x1840 JUMPI PUSH9 0x100B1AFA5ABCBED61 MUL DUP4 SHR PUSH3 0x1840 JUMP JUMPDEST PUSH9 0x10163DA9FB33356D8 MUL DUP4 SHR PUSH3 0x201B JUMP JUMPDEST PUSH9 0x102C9A3E778060EE7 MUL DUP4 SHR PUSH3 0x200A JUMP JUMPDEST PUSH9 0x1059B0D31585743AE MUL DUP4 SHR PUSH3 0x1FF9 JUMP JUMPDEST PUSH9 0x10B5586CF9890F62A MUL DUP4 SHR PUSH3 0x1FE8 JUMP JUMPDEST PUSH9 0x1172B83C7D517ADCE MUL DUP4 SHR PUSH3 0x1FD7 JUMP JUMPDEST PUSH9 0x1306FE0A31B7152DF MUL DUP4 SHR PUSH3 0x1FC6 JUMP JUMPDEST POP PUSH9 0x16A09E667F3BCC909 PUSH1 0x7F SHL PUSH3 0x1FB5 JUMP JUMPDEST PUSH1 0x40 MLOAD PUSH4 0xB3B6BA1F PUSH1 0xE0 SHL DUP2 MSTORE PUSH1 0x4 DUP2 ADD DUP4 SWAP1 MSTORE PUSH1 0x24 SWAP1 REVERT JUMPDEST PUSH1 0x24 SWAP1 PUSH1 0x40 MLOAD SWAP1 PUSH4 0xD7B1D65 PUSH1 0xE1 SHL DUP3 MSTORE PUSH1 0x4 DUP3 ADD MSTORE REVERT JUMPDEST SWAP1 SWAP2 SWAP1 PUSH1 0x0 NOT DUP4 DUP3 MULMOD DUP4 DUP3 MUL SWAP2 DUP3 DUP1 DUP4 LT SWAP3 SUB SWAP2 DUP1 DUP4 SUB SWAP3 EQ PUSH3 0x217D JUMPI PUSH8 0xDE0B6B3A7640000 SWAP1 DUP2 DUP4 LT ISZERO PUSH3 0x215F JUMPI SWAP5 PUSH32 0xACCB18165BD6FE31AE1CF318DC5B51EEE0E1BA569B88CD74C1773B91FAC10669 SWAP5 SWAP6 MULMOD SWAP1 DUP3 DUP3 GT SWAP1 SUB PUSH1 0xEE SHL SWAP2 SUB PUSH1 0x12 SHR OR MUL SWAP1 JUMP JUMPDEST PUSH1 0x44 SWAP1 DUP7 PUSH1 0x40 MLOAD SWAP2 PUSH4 0x5173648D PUSH1 0xE0 SHL DUP4 MSTORE PUSH1 0x4 DUP4 ADD MSTORE PUSH1 0x24 DUP3 ADD MSTORE REVERT JUMPDEST POP POP PUSH8 0xDE0B6B3A7640000 SWAP1 DIV SWAP2 POP JUMP JUMPDEST PUSH3 0x17D5 SWAP1 PUSH3 0x17BA PUSH1 0x8 SLOAD SWAP2 PUSH1 0xB SLOAD SWAP1 PUSH1 0xC SLOAD SWAP2 PUSH3 0x21EF PUSH3 0x21E9 PUSH3 0x21E3 DUP4 PUSH3 0x21FE PUSH8 0x14057B7EF767814F SWAP7 PUSH3 0x21F7 DUP10 DUP10 DUP14 PUSH3 0x21EF PUSH3 0x21E9 PUSH3 0x21E3 PUSH8 0xDE0B6B3A7640000 SWAP14 DUP15 SWAP5 PUSH3 0x2228 JUMP JUMPDEST PUSH3 0x2204 JUMP JUMPDEST PUSH3 0x22F2 JUMP JUMPDEST MUL DIV PUSH3 0x2228 JUMP JUMPDEST SWAP11 PUSH3 0x221A JUMP JUMPDEST PUSH3 0x2228 JUMP JUMPDEST SWAP1 PUSH8 0xDE0B6B3A7640000 DUP3 ADD DUP1 SWAP3 GT PUSH3 0x6E3 JUMPI JUMP JUMPDEST SWAP2 SWAP1 DUP3 ADD DUP1 SWAP3 GT PUSH3 0x6E3 JUMPI JUMP JUMPDEST PUSH8 0xDE0B6B3A7640000 SWAP2 PUSH1 0x0 NOT DUP4 DUP4 MULMOD SWAP3 DUP1 DUP4 MUL SWAP3 DUP4 DUP1 DUP7 LT SWAP6 SUB SWAP5 DUP1 DUP7 SUB SWAP6 EQ PUSH3 0x22CD JUMPI DUP3 DUP6 LT ISZERO PUSH3 0x22AA JUMPI SWAP1 DUP3 SWAP2 MULMOD PUSH1 0x1 DUP3 NOT ADD DUP3 AND DUP1 SWAP3 DIV PUSH1 0x2 DUP1 DUP3 PUSH1 0x3 MUL XOR DUP1 DUP4 MUL DUP3 SUB MUL DUP1 DUP4 MUL DUP3 SUB MUL DUP1 DUP4 MUL DUP3 SUB MUL DUP1 DUP4 MUL DUP3 SUB MUL DUP1 DUP4 MUL DUP3 SUB MUL DUP1 SWAP3 MUL SWAP1 SUB MUL SWAP4 PUSH1 0x1 DUP4 DUP1 PUSH1 0x0 SUB DIV ADD SWAP1 DUP5 DUP4 GT SWAP1 SUB MUL SWAP3 SUB DIV OR MUL SWAP1 JUMP JUMPDEST DUP3 PUSH1 0x64 SWAP3 PUSH1 0x40 MLOAD SWAP3 PUSH4 0xC740AEF PUSH1 0xE3 SHL DUP5 MSTORE PUSH1 0x4 DUP5 ADD MSTORE PUSH1 0x24 DUP4 ADD MSTORE PUSH1 0x44 DUP3 ADD MSTORE REVERT JUMPDEST POP POP DUP1 SWAP3 POP ISZERO PUSH3 0x22DC JUMPI DIV SWAP1 JUMP JUMPDEST PUSH4 0x4E487B71 PUSH1 0xE0 SHL PUSH1 0x0 MSTORE PUSH1 0x12 PUSH1 0x4 MSTORE PUSH1 0x24 PUSH1 0x0 REVERT JUMPDEST SWAP1 PUSH8 0xDE0B6B3A7640000 SWAP2 DUP3 DUP2 LT PUSH3 0x23D6 JUMPI DUP3 DUP2 DIV PUSH16 0xFFFFFFFFFFFFFFFFFFFFFFFFFFFFFFFF DUP2 GT PUSH1 0x7 SHL SWAP1 DUP2 SHR SWAP1 PUSH8 0xFFFFFFFFFFFFFFFF DUP3 GT PUSH1 0x6 SHL SWAP2 DUP3 SHR PUSH4 0xFFFFFFFF DUP2 GT PUSH1 0x5 SHL SWAP1 DUP2 SHR PUSH2 0xFFFF DUP2 GT PUSH1 0x4 SHL SWAP1 DUP2 SHR PUSH1 0xFF DUP2 GT PUSH1 0x3 SHL SWAP1 DUP2 SHR SWAP2 PUSH1 0xF DUP4 GT PUSH1 0x2 SHL SWAP3 DUP4 SHR SWAP4 PUSH1 0x1 SWAP7 DUP8 PUSH1 0x3 DUP8 GT DUP2 SHL SWAP7 DUP8 SHR GT SWAP7 OR OR OR OR OR OR OR SWAP2 DUP5 DUP4 MUL SWAP3 SHR SWAP4 DUP1 DUP6 EQ PUSH3 0x23CF JUMPI PUSH8 0x6F05B59D3B20000 SWAP5 DUP6 JUMPDEST PUSH3 0x239F JUMPI POP SWAP2 SWAP4 POP POP POP JUMP JUMPDEST DUP1 DUP3 SWAP2 MUL DIV SWAP5 PUSH8 0x1BC16D674EC80000 DUP7 LT ISZERO PUSH3 0x23C1 JUMPI JUMPDEST DUP3 SHR SWAP5 DUP6 PUSH3 0x2392 JUMP JUMPDEST DUP1 SWAP6 SWAP4 ADD SWAP3 DUP3 SHR SWAP5 PUSH3 0x23B7 JUMP JUMPDEST POP SWAP1 SWAP3 POP POP JUMP JUMPDEST PUSH1 0x24 SWAP1 PUSH1 0x40 MLOAD SWAP1 PUSH4 0x36D32EF PUSH1 0xE4 SHL DUP3 MSTORE PUSH1 0x4 DUP3 ADD MSTORE REVERT JUMPDEST ISZERO PUSH3 0x23F6 JUMPI JUMP JUMPDEST PUSH1 0x40 MLOAD PUSH3 0x461BCD PUSH1 0xE5 SHL DUP2 MSTORE PUSH1 0x20 PUSH1 0x4 DUP3 ADD MSTORE PUSH1 0xC PUSH1 0x24 DUP3 ADD MSTORE PUSH12 0x4F6E6C7920666163746F7279 PUSH1 0xA0 SHL PUSH1 0x44 DUP3 ADD MSTORE PUSH1 0x64 SWAP1 REVERT JUMPDEST ISZERO PUSH3 0x2432 JUMPI JUMP JUMPDEST PUSH1 0x40 MLOAD PUSH3 0x461BCD PUSH1 0xE5 SHL DUP2 MSTORE PUSH1 0x20 PUSH1 0x4 DUP3 ADD MSTORE PUSH1 0x15 PUSH1 0x24 DUP3 ADD MSTORE PUSH21 0x14D85B1948185B1C9958591E481B185D5B98DA1959 PUSH1 0x5A SHL PUSH1 0x44 DUP3 ADD MSTORE PUSH1 0x64 SWAP1 REVERT JUMPDEST ISZERO PUSH3 0x2477 JUMPI JUMP JUMPDEST PUSH1 0x40 MLOAD PUSH3 0x461BCD PUSH1 0xE5 SHL DUP2 MSTORE PUSH1 0x20 PUSH1 0x4 DUP3 ADD MSTORE PUSH1 0x6 PUSH1 0x24 DUP3 ADD MSTORE PUSH6 0x189BDB991959 PUSH1 0xD2 SHL PUSH1 0x44 DUP3 ADD MSTORE PUSH1 0x64 SWAP1 REVERT JUMPDEST DUP2 DUP2 MUL SWAP3 SWAP2 DUP2 ISZERO SWAP2 DUP5 DIV EQ OR ISZERO PUSH3 0x6E3 JUMPI JUMP JUMPDEST ISZERO PUSH3 0x24C1 JUMPI JUMP JUMPDEST PUSH1 0x40 MLOAD PUSH3 0x461BCD PUSH1 0xE5 SHL DUP2 MSTORE PUSH1 0x20 PUSH1 0x4 DUP3 ADD MSTORE PUSH1 0x27 PUSH1 0x24 DUP3 ADD MSTORE PUSH32 0x536C69707061676520746F6F20686967682C207472616E73616374696F6E2072 PUSH1 0x44 DUP3 ADD MSTORE PUSH7 0x195D995C9D1959 PUSH1 0xCA SHL PUSH1 0x64 DUP3 ADD MSTORE PUSH1 0x84 SWAP1 REVERT JUMPDEST PUSH1 0x2 PUSH1 0x0 SLOAD EQ PUSH3 0x2528 JUMPI PUSH1 0x2 PUSH1 0x0 SSTORE JUMP JUMPDEST PUSH1 0x40 MLOAD PUSH3 0x461BCD PUSH1 0xE5 SHL DUP2 MSTORE PUSH1 0x20 PUSH1 0x4 DUP3 ADD MSTORE PUSH1 0x1F PUSH1 0x24 DUP3 ADD MSTORE PUSH32 0x5265656E7472616E637947756172643A207265656E7472616E742063616C6C00 PUSH1 0x44 DUP3 ADD MSTORE PUSH1 0x64 SWAP1 REVERT JUMPDEST PUSH1 0x8 SLOAD PUSH1 0x40 MLOAD PUSH3 0x257E DUP2 PUSH3 0x164D JUMP JUMPDEST TIMESTAMP DUP2 MSTORE PUSH1 0x20 DUP2 ADD SWAP2 DUP3 MSTORE PUSH1 0x15 SLOAD PUSH1 0x1 PUSH1 0x40 SHL DUP2 LT ISZERO PUSH3 0x661 JUMPI DUP1 PUSH1 0x1 PUSH3 0x25AA SWAP3 ADD PUSH1 0x15 SSTORE PUSH3 0x1734 JUMP JUMPDEST SWAP3 SWAP1 SWAP3 PUSH3 0x25BE JUMPI PUSH1 0x1 SWAP2 MLOAD DUP4 SSTORE MLOAD SWAP2 ADD SSTORE JUMP JUMPDEST PUSH4 0x4E487B71 PUSH1 0xE0 SHL PUSH1 0x0 MSTORE PUSH1 0x0 PUSH1 0x4 MSTORE PUSH1 0x24 PUSH1 0x0 REVERT JUMPDEST SWAP1 PUSH1 0x0 SWAP2 PUSH1 0x1 SWAP1 DUP2 SLOAD SWAP2 PUSH3 0x25E9 DUP4 PUSH3 0x1610 JUMP JUMPDEST SWAP3 DUP2 DUP2 AND SWAP1 DUP2 ISZERO PUSH3 0x2655 JUMPI POP PUSH1 0x1 EQ PUSH3 0x2603 JUMPI POP POP POP JUMP JUMPDEST DUP1 SWAP2 SWAP3 SWAP4 SWAP5 POP PUSH1 0x0 MSTORE PUSH32 0xB10E2D527612073B26EECDFD717E6A320CF44B4AFAC2B0732D9FCBE2B7FA0CF6 SWAP1 PUSH1 0x0 SWAP2 JUMPDEST DUP5 DUP4 LT PUSH3 0x2641 JUMPI POP POP POP ADD SWAP1 JUMP JUMPDEST DUP2 DUP2 PUSH1 0x20 SWAP3 SLOAD DUP6 DUP8 ADD MSTORE ADD SWAP3 ADD SWAP2 PUSH3 0x2632 JUMP JUMPDEST PUSH1 0xFF NOT AND DUP4 MSTORE POP POP DUP2 ISZERO ISZERO SWAP1 SWAP2 MUL ADD SWAP2 POP JUMP JUMPDEST PUSH1 0x2 SLOAD PUSH1 0x0 SWAP3 SWAP2 PUSH3 0x267A DUP3 PUSH3 0x1610 JUMP JUMPDEST SWAP2 PUSH1 0x1 SWAP1 DUP2 DUP2 AND SWAP1 DUP2 ISZERO PUSH3 0x2655 JUMPI POP PUSH1 0x1 EQ PUSH3 0x2697 JUMPI POP POP POP JUMP JUMPDEST SWAP1 SWAP2 SWAP3 SWAP4 POP PUSH1 0x2 PUSH1 0x0 MSTORE PUSH32 0x405787FA12A823E0F2B7631CC41B3BA8828B3321CA811111FA75CD3AA3BB5ACE SWAP1 PUSH1 0x0 SWAP2 JUMPDEST DUP5 DUP4 LT PUSH3 0x26D6 JUMPI POP POP POP ADD SWAP1 JUMP JUMPDEST DUP2 DUP2 PUSH1 0x20 SWAP3 SLOAD DUP6 DUP8 ADD MSTORE ADD SWAP3 ADD SWAP2 PUSH3 0x26C7 JUMP JUMPDEST SWAP4 SWAP3 SWAP2 PUSH3 0x2717 SWAP1 PUSH3 0x2708 PUSH1 0x40 SWAP4 PUSH1 0x60 DUP9 MSTORE PUSH1 0x60 DUP9 ADD SWAP1 PUSH3 0x168D JUMP JUMPDEST SWAP1 DUP7 DUP3 SUB PUSH1 0x20 DUP9 ADD MSTORE PUSH3 0x168D JUMP JUMPDEST SWAP4 ADD MSTORE JUMP JUMPDEST SWAP1 DUP2 PUSH1 0x20 SWAP2 SUB SLT PUSH3 0x1D8 JUMPI MLOAD DUP1 ISZERO ISZERO DUP2 SUB PUSH3 0x1D8 JUMPI SWAP1 JUMP JUMPDEST SWAP1 DUP2 PUSH1 0x60 SWAP2 SUB SLT PUSH3 0x1D8 JUMPI DUP1 MLOAD SWAP2 PUSH1 0x40 PUSH1 0x20 DUP4 ADD MLOAD SWAP3 ADD MLOAD SWAP1 JUMP INVALID PUSH1 0x40 PUSH1 0x80 DUP2 MSTORE CALLVALUE PUSH3 0x3CB JUMPI PUSH3 0xCE9 DUP1 CODESIZE SUB DUP1 PUSH3 0x1E DUP2 PUSH3 0x3D0 JUMP JUMPDEST SWAP3 DUP4 CODECOPY DUP2 ADD PUSH1 0x60 DUP3 DUP3 SUB SLT PUSH3 0x3CB JUMPI DUP2 MLOAD PUSH1 0x1 PUSH1 0x1 PUSH1 0x40 SHL SUB SWAP3 SWAP1 DUP4 DUP2 GT PUSH3 0x3CB JUMPI DUP3 PUSH3 0x50 SWAP2 DUP4 ADD PUSH3 0x3F6 JUMP JUMPDEST SWAP3 PUSH1 0x20 SWAP3 DUP4 DUP4 ADD MLOAD DUP3 DUP2 GT PUSH3 0x3CB JUMPI DUP7 SWAP2 PUSH3 0x6F SWAP2 DUP6 ADD PUSH3 0x3F6 JUMP JUMPDEST SWAP3 ADD MLOAD SWAP4 DUP1 MLOAD SWAP2 DUP1 DUP4 GT PUSH3 0x2CB JUMPI PUSH1 0x3 DUP1 SLOAD SWAP4 PUSH1 0x1 SWAP4 DUP5 DUP7 DUP2 SHR SWAP7 AND DUP1 ISZERO PUSH3 0x3C0 JUMPI JUMPDEST DUP9 DUP8 LT EQ PUSH3 0x3AA JUMPI DUP2 SWAP1 PUSH1 0x1F SWAP7 DUP8 DUP2 GT PUSH3 0x354 JUMPI JUMPDEST POP DUP9 SWAP1 DUP8 DUP4 GT PUSH1 0x1 EQ PUSH3 0x2ED JUMPI PUSH1 0x0 SWAP3 PUSH3 0x2E1 JUMPI JUMPDEST POP POP PUSH1 0x0 NOT DUP3 DUP5 SHL SHR NOT AND SWAP1 DUP5 SHL OR DUP2 SSTORE JUMPDEST DUP5 MLOAD SWAP2 DUP3 GT PUSH3 0x2CB JUMPI PUSH1 0x4 SWAP5 DUP6 SLOAD DUP5 DUP2 DUP2 SHR SWAP2 AND DUP1 ISZERO PUSH3 0x2C0 JUMPI JUMPDEST DUP9 DUP3 LT EQ PUSH3 0x2AB JUMPI DUP6 DUP2 GT PUSH3 0x260 JUMPI JUMPDEST POP DUP7 SWAP1 DUP6 DUP5 GT PUSH1 0x1 EQ PUSH3 0x1F5 JUMPI SWAP4 DUP4 SWAP5 SWAP2 DUP5 SWAP3 PUSH1 0x0 SWAP6 PUSH3 0x1E9 JUMPI JUMPDEST POP POP SHL SWAP3 PUSH1 0x0 NOT SWAP2 SHL SHR NOT AND OR DUP3 SSTORE JUMPDEST CALLER ISZERO PUSH3 0x1AA JUMPI POP PUSH1 0x2 SLOAD SWAP1 DUP4 DUP3 ADD DUP1 SWAP3 GT PUSH3 0x195 JUMPI POP PUSH1 0x0 SWAP2 PUSH32 0xDDF252AD1BE2C89B69C2B068FC378DAA952BA7F163C4A11628F55A4DF523B3EF SWAP2 PUSH1 0x2 SSTORE CALLER DUP4 MSTORE DUP3 DUP2 MSTORE DUP5 DUP4 KECCAK256 DUP5 DUP2 SLOAD ADD SWAP1 SSTORE DUP5 MLOAD SWAP4 DUP5 MSTORE CALLER SWAP4 LOG3 MLOAD PUSH2 0x880 SWAP1 DUP2 PUSH3 0x469 DUP3 CODECOPY RETURN JUMPDEST PUSH1 0x11 SWAP1 PUSH4 0x4E487B71 PUSH1 0xE0 SHL PUSH1 0x0 MSTORE MSTORE PUSH1 0x24 PUSH1 0x0 REVERT JUMPDEST PUSH1 0x64 SWAP3 DUP6 MLOAD SWAP3 PUSH3 0x461BCD PUSH1 0xE5 SHL DUP5 MSTORE DUP4 ADD MSTORE PUSH1 0x24 DUP3 ADD MSTORE PUSH32 0x45524332303A206D696E7420746F20746865207A65726F206164647265737300 PUSH1 0x44 DUP3 ADD MSTORE REVERT JUMPDEST ADD MLOAD SWAP4 POP CODESIZE DUP1 PUSH3 0x120 JUMP JUMPDEST SWAP2 SWAP1 PUSH1 0x1F NOT DUP5 AND SWAP3 DUP8 PUSH1 0x0 MSTORE DUP5 DUP10 PUSH1 0x0 KECCAK256 SWAP5 PUSH1 0x0 JUMPDEST DUP12 DUP10 DUP4 DUP4 LT PUSH3 0x248 JUMPI POP POP POP LT PUSH3 0x22D JUMPI JUMPDEST POP POP POP POP DUP2 SHL ADD DUP3 SSTORE PUSH3 0x130 JUMP JUMPDEST ADD MLOAD SWAP1 PUSH1 0xF8 DUP5 PUSH1 0x0 NOT SWAP3 SHL AND SHR NOT AND SWAP1 SSTORE CODESIZE DUP1 DUP1 DUP1 PUSH3 0x21E JUMP JUMPDEST DUP7 DUP7 ADD MLOAD DUP10 SSTORE SWAP1 SWAP8 ADD SWAP7 SWAP5 DUP6 ADD SWAP5 DUP9 SWAP4 POP ADD PUSH3 0x20A JUMP JUMPDEST DUP7 PUSH1 0x0 MSTORE DUP8 PUSH1 0x0 KECCAK256 DUP7 DUP1 DUP7 ADD PUSH1 0x5 SHR DUP3 ADD SWAP3 DUP11 DUP8 LT PUSH3 0x2A1 JUMPI JUMPDEST ADD PUSH1 0x5 SHR ADD SWAP1 DUP6 SWAP1 JUMPDEST DUP3 DUP2 LT PUSH3 0x294 JUMPI POP POP PUSH3 0x103 JUMP JUMPDEST PUSH1 0x0 DUP2 SSTORE ADD DUP6 SWAP1 PUSH3 0x284 JUMP JUMPDEST SWAP3 POP DUP2 SWAP3 PUSH3 0x27B JUMP JUMPDEST PUSH1 0x22 DUP8 PUSH4 0x4E487B71 PUSH1 0xE0 SHL PUSH1 0x0 MSTORE MSTORE PUSH1 0x24 PUSH1 0x0 REVERT JUMPDEST SWAP1 PUSH1 0x7F AND SWAP1 PUSH3 0xF1 JUMP JUMPDEST PUSH4 0x4E487B71 PUSH1 0xE0 SHL PUSH1 0x0 MSTORE PUSH1 0x41 PUSH1 0x4 MSTORE PUSH1 0x24 PUSH1 0x0 REVERT JUMPDEST ADD MLOAD SWAP1 POP CODESIZE DUP1 PUSH3 0xC2 JUMP JUMPDEST SWAP1 DUP7 SWAP4 POP PUSH1 0x1F NOT DUP4 AND SWAP2 DUP6 PUSH1 0x0 MSTORE DUP11 PUSH1 0x0 KECCAK256 SWAP3 PUSH1 0x0 JUMPDEST DUP13 DUP3 DUP3 LT PUSH3 0x33D JUMPI POP POP DUP5 GT PUSH3 0x324 JUMPI JUMPDEST POP POP POP DUP2 SHL ADD DUP2 SSTORE PUSH3 0xD4 JUMP JUMPDEST ADD MLOAD PUSH1 0x0 NOT DUP4 DUP7 SHL PUSH1 0xF8 AND SHR NOT AND SWAP1 SSTORE CODESIZE DUP1 DUP1 PUSH3 0x316 JUMP JUMPDEST DUP4 DUP6 ADD MLOAD DUP7 SSTORE DUP11 SWAP8 SWAP1 SWAP6 ADD SWAP5 SWAP4 DUP5 ADD SWAP4 ADD PUSH3 0x303 JUMP JUMPDEST SWAP1 SWAP2 POP DUP4 PUSH1 0x0 MSTORE DUP9 PUSH1 0x0 KECCAK256 DUP8 DUP1 DUP6 ADD PUSH1 0x5 SHR DUP3 ADD SWAP3 DUP12 DUP7 LT PUSH3 0x3A0 JUMPI JUMPDEST SWAP2 DUP9 SWAP2 DUP7 SWAP6 SWAP5 SWAP4 ADD PUSH1 0x5 SHR ADD SWAP2 JUMPDEST DUP3 DUP2 LT PUSH3 0x390 JUMPI POP POP PUSH3 0xAB JUMP JUMPDEST PUSH1 0x0 DUP2 SSTORE DUP6 SWAP5 POP DUP9 SWAP2 ADD PUSH3 0x380 JUMP JUMPDEST SWAP3 POP DUP2 SWAP3 PUSH3 0x372 JUMP JUMPDEST PUSH4 0x4E487B71 PUSH1 0xE0 SHL PUSH1 0x0 MSTORE PUSH1 0x22 PUSH1 0x4 MSTORE PUSH1 0x24 PUSH1 0x0 REVERT JUMPDEST SWAP6 PUSH1 0x7F AND SWAP6 PUSH3 0x94 JUMP JUMPDEST PUSH1 0x0 DUP1 REVERT JUMPDEST PUSH1 0x40 MLOAD SWAP2 SWAP1 PUSH1 0x1F ADD PUSH1 0x1F NOT AND DUP3 ADD PUSH1 0x1 PUSH1 0x1 PUSH1 0x40 SHL SUB DUP2 GT DUP4 DUP3 LT OR PUSH3 0x2CB JUMPI PUSH1 0x40 MSTORE JUMP JUMPDEST SWAP2 SWAP1 DUP1 PUSH1 0x1F DUP5 ADD SLT ISZERO PUSH3 0x3CB JUMPI DUP3 MLOAD PUSH1 0x1 PUSH1 0x1 PUSH1 0x40 SHL SUB DUP2 GT PUSH3 0x2CB JUMPI PUSH1 0x20 SWAP1 PUSH3 0x42C PUSH1 0x1F DUP3 ADD PUSH1 0x1F NOT AND DUP4 ADD PUSH3 0x3D0 JUMP JUMPDEST SWAP3 DUP2 DUP5 MSTORE DUP3 DUP3 DUP8 ADD ADD GT PUSH3 0x3CB JUMPI PUSH1 0x0 JUMPDEST DUP2 DUP2 LT PUSH3 0x454 JUMPI POP DUP3 PUSH1 0x0 SWAP4 SWAP5 SWAP6 POP ADD ADD MSTORE SWAP1 JUMP JUMPDEST DUP6 DUP2 ADD DUP4 ADD MLOAD DUP5 DUP3 ADD DUP5 ADD MSTORE DUP3 ADD PUSH3 0x43E JUMP INVALID PUSH1 0x80 PUSH1 0x40 DUP2 DUP2 MSTORE PUSH1 0x4 SWAP2 DUP3 CALLDATASIZE LT ISZERO PUSH2 0x16 JUMPI PUSH1 0x0 DUP1 REVERT JUMPDEST PUSH1 0x0 SWAP3 DUP4 CALLDATALOAD PUSH1 0xE0 SHR SWAP2 DUP3 PUSH4 0x6FDDE03 EQ PUSH2 0x4AD JUMPI POP DUP2 PUSH4 0x95EA7B3 EQ PUSH2 0x483 JUMPI DUP2 PUSH4 0x18160DDD EQ PUSH2 0x464 JUMPI DUP2 PUSH4 0x23B872DD EQ PUSH2 0x39A JUMPI DUP2 PUSH4 0x313CE567 EQ PUSH2 0x37E JUMPI DUP2 PUSH4 0x39509351 EQ PUSH2 0x317 JUMPI DUP2 PUSH4 0x70A08231 EQ PUSH2 0x2E0 JUMPI DUP2 PUSH4 0x95D89B41 EQ PUSH2 0x1C1 JUMPI DUP2 PUSH4 0xA457C2D7 EQ PUSH2 0x119 JUMPI POP DUP1 PUSH4 0xA9059CBB EQ PUSH2 0xE9 JUMPI PUSH4 0xDD62ED3E EQ PUSH2 0x9E JUMPI PUSH1 0x0 DUP1 REVERT JUMPDEST CALLVALUE PUSH2 0xE5 JUMPI DUP1 PUSH1 0x3 NOT CALLDATASIZE ADD SLT PUSH2 0xE5 JUMPI DUP1 PUSH1 0x20 SWAP3 PUSH2 0xBA PUSH2 0x5D2 JUMP JUMPDEST PUSH2 0xC2 PUSH2 0x5ED JUMP JUMPDEST PUSH1 0x1 PUSH1 0x1 PUSH1 0xA0 SHL SUB SWAP2 DUP3 AND DUP4 MSTORE PUSH1 0x1 DUP7 MSTORE DUP4 DUP4 KECCAK256 SWAP2 AND DUP3 MSTORE DUP5 MSTORE KECCAK256 SLOAD SWAP1 MLOAD SWAP1 DUP2 MSTORE RETURN JUMPDEST POP DUP1 REVERT JUMPDEST POP CALLVALUE PUSH2 0xE5 JUMPI DUP1 PUSH1 0x3 NOT CALLDATASIZE ADD SLT PUSH2 0xE5 JUMPI PUSH1 0x20 SWAP1 PUSH2 0x112 PUSH2 0x108 PUSH2 0x5D2 JUMP JUMPDEST PUSH1 0x24 CALLDATALOAD SWAP1 CALLER PUSH2 0x603 JUMP JUMPDEST MLOAD PUSH1 0x1 DUP2 MSTORE RETURN JUMPDEST SWAP1 POP DUP3 CALLVALUE PUSH2 0x1BE JUMPI DUP3 PUSH1 0x3 NOT CALLDATASIZE ADD SLT PUSH2 0x1BE JUMPI PUSH2 0x134 PUSH2 0x5D2 JUMP JUMPDEST SWAP2 DUP4 PUSH1 0x24 CALLDATALOAD SWAP3 CALLER DUP2 MSTORE PUSH1 0x1 PUSH1 0x20 MSTORE DUP2 DUP2 KECCAK256 PUSH1 0x1 DUP1 PUSH1 0xA0 SHL SUB DUP7 AND DUP3 MSTORE PUSH1 0x20 MSTORE KECCAK256 SLOAD SWAP1 DUP3 DUP3 LT PUSH2 0x16D JUMPI PUSH1 0x20 DUP6 PUSH2 0x112 DUP6 DUP6 SUB DUP8 CALLER PUSH2 0x771 JUMP JUMPDEST PUSH1 0x84 SWAP1 PUSH1 0x20 DUP7 MLOAD SWAP2 PUSH3 0x461BCD PUSH1 0xE5 SHL DUP4 MSTORE DUP3 ADD MSTORE PUSH1 0x25 PUSH1 0x24 DUP3 ADD MSTORE PUSH32 0x45524332303A2064656372656173656420616C6C6F77616E63652062656C6F77 PUSH1 0x44 DUP3 ADD MSTORE PUSH5 0x207A65726F PUSH1 0xD8 SHL PUSH1 0x64 DUP3 ADD MSTORE REVERT JUMPDEST DUP1 REVERT JUMPDEST DUP4 DUP4 CALLVALUE PUSH2 0xE5 JUMPI DUP2 PUSH1 0x3 NOT CALLDATASIZE ADD SLT PUSH2 0xE5 JUMPI DUP1 MLOAD SWAP1 DUP3 DUP5 SLOAD PUSH1 0x1 DUP2 DUP2 SHR SWAP1 DUP1 DUP4 AND SWAP3 DUP4 ISZERO PUSH2 0x2D6 JUMPI JUMPDEST PUSH1 0x20 SWAP4 DUP5 DUP5 LT DUP2 EQ PUSH2 0x2C3 JUMPI DUP4 DUP9 MSTORE SWAP1 DUP2 ISZERO PUSH2 0x2A7 JUMPI POP PUSH1 0x1 EQ PUSH2 0x252 JUMPI JUMPDEST POP POP POP DUP3 SWAP1 SUB PUSH1 0x1F ADD PUSH1 0x1F NOT AND DUP3 ADD SWAP3 PUSH8 0xFFFFFFFFFFFFFFFF DUP5 GT DUP4 DUP6 LT OR PUSH2 0x23F JUMPI POP DUP3 SWAP2 DUP3 PUSH2 0x23B SWAP3 MSTORE DUP3 PUSH2 0x589 JUMP JUMPDEST SUB SWAP1 RETURN JUMPDEST PUSH4 0x4E487B71 PUSH1 0xE0 SHL DUP2 MSTORE PUSH1 0x41 DUP6 MSTORE PUSH1 0x24 SWAP1 REVERT JUMPDEST DUP8 DUP8 MSTORE SWAP2 SWAP3 POP DUP6 SWAP2 DUP4 PUSH32 0x8A35ACFBC15FF81A39AE7D344FD709F28E8600B4AA8C65C6B64BFE7FE36BD19B JUMPDEST DUP4 DUP6 LT PUSH2 0x293 JUMPI POP POP POP POP DUP4 ADD ADD DUP6 DUP1 DUP1 PUSH2 0x209 JUMP JUMPDEST DUP1 SLOAD DUP9 DUP7 ADD DUP4 ADD MSTORE SWAP4 ADD SWAP3 DUP5 SWAP1 DUP3 ADD PUSH2 0x27D JUMP JUMPDEST PUSH1 0xFF NOT AND DUP8 DUP6 ADD MSTORE POP POP ISZERO ISZERO PUSH1 0x5 SHL DUP5 ADD ADD SWAP1 POP DUP6 DUP1 DUP1 PUSH2 0x209 JUMP JUMPDEST PUSH4 0x4E487B71 PUSH1 0xE0 SHL DUP10 MSTORE PUSH1 0x22 DUP11 MSTORE PUSH1 0x24 DUP10 REVERT JUMPDEST SWAP2 PUSH1 0x7F AND SWAP2 PUSH2 0x1EA JUMP JUMPDEST POP POP CALLVALUE PUSH2 0xE5 JUMPI PUSH1 0x20 CALLDATASIZE PUSH1 0x3 NOT ADD SLT PUSH2 0xE5 JUMPI PUSH1 0x20 SWAP2 DUP2 SWAP1 PUSH1 0x1 PUSH1 0x1 PUSH1 0xA0 SHL SUB PUSH2 0x308 PUSH2 0x5D2 JUMP JUMPDEST AND DUP2 MSTORE DUP1 DUP5 MSTORE KECCAK256 SLOAD SWAP1 MLOAD SWAP1 DUP2 MSTORE RETURN JUMPDEST DUP3 DUP5 CALLVALUE PUSH2 0x1BE JUMPI DUP2 PUSH1 0x3 NOT CALLDATASIZE ADD SLT PUSH2 0x1BE JUMPI PUSH2 0x331 PUSH2 0x5D2 JUMP JUMPDEST CALLER DUP3 MSTORE PUSH1 0x1 PUSH1 0x20 SWAP1 DUP2 MSTORE DUP4 DUP4 KECCAK256 PUSH1 0x1 PUSH1 0x1 PUSH1 0xA0 SHL SUB DUP4 AND DUP5 MSTORE SWAP1 MSTORE DUP3 DUP3 KECCAK256 SLOAD PUSH1 0x24 CALLDATALOAD DUP2 ADD SWAP3 SWAP1 DUP4 LT PUSH2 0x36B JUMPI PUSH1 0x20 DUP5 PUSH2 0x112 DUP6 DUP6 CALLER PUSH2 0x771 JUMP JUMPDEST PUSH4 0x4E487B71 PUSH1 0xE0 SHL DUP2 MSTORE PUSH1 0x11 DUP6 MSTORE PUSH1 0x24 SWAP1 REVERT JUMPDEST POP POP CALLVALUE PUSH2 0xE5 JUMPI DUP2 PUSH1 0x3 NOT CALLDATASIZE ADD SLT PUSH2 0xE5 JUMPI PUSH1 0x20 SWAP1 MLOAD PUSH1 0x12 DUP2 MSTORE RETURN JUMPDEST DUP4 SWAP2 POP CALLVALUE PUSH2 0xE5 JUMPI PUSH1 0x60 CALLDATASIZE PUSH1 0x3 NOT ADD SLT PUSH2 0xE5 JUMPI PUSH2 0x3B6 PUSH2 0x5D2 JUMP JUMPDEST PUSH2 0x3BE PUSH2 0x5ED JUMP JUMPDEST SWAP2 DUP5 PUSH1 0x44 CALLDATALOAD SWAP5 PUSH1 0x1 DUP1 PUSH1 0xA0 SHL SUB DUP5 AND DUP2 MSTORE PUSH1 0x1 PUSH1 0x20 MSTORE DUP2 DUP2 KECCAK256 CALLER DUP3 MSTORE PUSH1 0x20 MSTORE KECCAK256 SLOAD SWAP1 PUSH1 0x0 NOT DUP3 SUB PUSH2 0x3F8 JUMPI JUMPDEST PUSH1 0x20 DUP7 PUSH2 0x112 DUP8 DUP8 DUP8 PUSH2 0x603 JUMP JUMPDEST DUP5 DUP3 LT PUSH2 0x421 JUMPI POP SWAP2 DUP4 SWAP2 PUSH2 0x416 PUSH1 0x20 SWAP7 SWAP6 PUSH2 0x112 SWAP6 SUB CALLER DUP4 PUSH2 0x771 JUMP JUMPDEST SWAP2 SWAP4 SWAP5 DUP2 SWAP4 POP PUSH2 0x3EA JUMP JUMPDEST PUSH1 0x64 SWAP1 PUSH1 0x20 DUP8 MLOAD SWAP2 PUSH3 0x461BCD PUSH1 0xE5 SHL DUP4 MSTORE DUP3 ADD MSTORE PUSH1 0x1D PUSH1 0x24 DUP3 ADD MSTORE PUSH32 0x45524332303A20696E73756666696369656E7420616C6C6F77616E6365000000 PUSH1 0x44 DUP3 ADD MSTORE REVERT JUMPDEST POP POP CALLVALUE PUSH2 0xE5 JUMPI DUP2 PUSH1 0x3 NOT CALLDATASIZE ADD SLT PUSH2 0xE5 JUMPI PUSH1 0x20 SWAP1 PUSH1 0x2 SLOAD SWAP1 MLOAD SWAP1 DUP2 MSTORE RETURN JUMPDEST POP POP CALLVALUE PUSH2 0xE5 JUMPI DUP1 PUSH1 0x3 NOT CALLDATASIZE ADD SLT PUSH2 0xE5 JUMPI PUSH1 0x20 SWAP1 PUSH2 0x112 PUSH2 0x4A3 PUSH2 0x5D2 JUMP JUMPDEST PUSH1 0x24 CALLDATALOAD SWAP1 CALLER PUSH2 0x771 JUMP JUMPDEST DUP5 SWAP1 DUP5 CALLVALUE PUSH2 0x585 JUMPI DUP3 PUSH1 0x3 NOT CALLDATASIZE ADD SLT PUSH2 0x585 JUMPI DUP3 PUSH1 0x3 SLOAD PUSH1 0x1 DUP2 DUP2 SHR SWAP1 DUP1 DUP4 AND SWAP3 DUP4 ISZERO PUSH2 0x57B JUMPI JUMPDEST PUSH1 0x20 SWAP4 DUP5 DUP5 LT DUP2 EQ PUSH2 0x2C3 JUMPI DUP4 DUP9 MSTORE SWAP1 DUP2 ISZERO PUSH2 0x2A7 JUMPI POP PUSH1 0x1 EQ PUSH2 0x525 JUMPI POP POP POP DUP3 SWAP1 SUB PUSH1 0x1F ADD PUSH1 0x1F NOT AND DUP3 ADD SWAP3 PUSH8 0xFFFFFFFFFFFFFFFF DUP5 GT DUP4 DUP6 LT OR PUSH2 0x23F JUMPI POP DUP3 SWAP2 DUP3 PUSH2 0x23B SWAP3 MSTORE DUP3 PUSH2 0x589 JUMP JUMPDEST PUSH1 0x3 DUP8 MSTORE SWAP2 SWAP3 POP DUP6 SWAP2 DUP4 PUSH32 0xC2575A0E9E593C00F959F8C92F12DB2869C3395A3B0502D05E2516446F71F85B JUMPDEST DUP4 DUP6 LT PUSH2 0x567 JUMPI POP POP POP POP DUP4 ADD ADD DUP6 DUP1 DUP1 PUSH2 0x209 JUMP JUMPDEST DUP1 SLOAD DUP9 DUP7 ADD DUP4 ADD MSTORE SWAP4 ADD SWAP3 DUP5 SWAP1 DUP3 ADD PUSH2 0x551 JUMP JUMPDEST SWAP2 PUSH1 0x7F AND SWAP2 PUSH2 0x4D5 JUMP JUMPDEST DUP3 DUP1 REVERT JUMPDEST PUSH1 0x20 DUP1 DUP3 MSTORE DUP3 MLOAD DUP2 DUP4 ADD DUP2 SWAP1 MSTORE SWAP1 SWAP4 SWAP3 PUSH1 0x0 JUMPDEST DUP3 DUP2 LT PUSH2 0x5BE JUMPI POP POP PUSH1 0x40 SWAP3 SWAP4 POP PUSH1 0x0 DUP4 DUP3 DUP5 ADD ADD MSTORE PUSH1 0x1F DUP1 NOT SWAP2 ADD AND ADD ADD SWAP1 JUMP JUMPDEST DUP2 DUP2 ADD DUP7 ADD MLOAD DUP5 DUP3 ADD PUSH1 0x40 ADD MSTORE DUP6 ADD PUSH2 0x59C JUMP JUMPDEST PUSH1 0x4 CALLDATALOAD SWAP1 PUSH1 0x1 PUSH1 0x1 PUSH1 0xA0 SHL SUB DUP3 AND DUP3 SUB PUSH2 0x5E8 JUMPI JUMP JUMPDEST PUSH1 0x0 DUP1 REVERT JUMPDEST PUSH1 0x24 CALLDATALOAD SWAP1 PUSH1 0x1 PUSH1 0x1 PUSH1 0xA0 SHL SUB DUP3 AND DUP3 SUB PUSH2 0x5E8 JUMPI JUMP JUMPDEST PUSH1 0x1 PUSH1 0x1 PUSH1 0xA0 SHL SUB SWAP1 DUP2 AND SWAP2 DUP3 ISZERO PUSH2 0x71E JUMPI AND SWAP2 DUP3 ISZERO PUSH2 0x6CD JUMPI PUSH1 0x0 DUP3 DUP2 MSTORE DUP1 PUSH1 0x20 MSTORE PUSH1 0x40 DUP2 KECCAK256 SLOAD SWAP2 DUP1 DUP4 LT PUSH2 0x679 JUMPI PUSH1 0x40 DUP3 DUP3 PUSH32 0xDDF252AD1BE2C89B69C2B068FC378DAA952BA7F163C4A11628F55A4DF523B3EF SWAP6 DUP8 PUSH1 0x20 SWAP7 MSTORE DUP3 DUP7 MSTORE SUB DUP3 DUP3 KECCAK256 SSTORE DUP7 DUP2 MSTORE KECCAK256 DUP2 DUP2 SLOAD ADD SWAP1 SSTORE PUSH1 0x40 MLOAD SWAP1 DUP2 MSTORE LOG3 JUMP JUMPDEST PUSH1 0x40 MLOAD PUSH3 0x461BCD PUSH1 0xE5 SHL DUP2 MSTORE PUSH1 0x20 PUSH1 0x4 DUP3 ADD MSTORE PUSH1 0x26 PUSH1 0x24 DUP3 ADD MSTORE PUSH32 0x45524332303A207472616E7366657220616D6F756E7420657863656564732062 PUSH1 0x44 DUP3 ADD MSTORE PUSH6 0x616C616E6365 PUSH1 0xD0 SHL PUSH1 0x64 DUP3 ADD MSTORE PUSH1 0x84 SWAP1 REVERT JUMPDEST PUSH1 0x40 MLOAD PUSH3 0x461BCD PUSH1 0xE5 SHL DUP2 MSTORE PUSH1 0x20 PUSH1 0x4 DUP3 ADD MSTORE PUSH1 0x23 PUSH1 0x24 DUP3 ADD MSTORE PUSH32 0x45524332303A207472616E7366657220746F20746865207A65726F2061646472 PUSH1 0x44 DUP3 ADD MSTORE PUSH3 0x657373 PUSH1 0xE8 SHL PUSH1 0x64 DUP3 ADD MSTORE PUSH1 0x84 SWAP1 REVERT JUMPDEST PUSH1 0x40 MLOAD PUSH3 0x461BCD PUSH1 0xE5 SHL DUP2 MSTORE PUSH1 0x20 PUSH1 0x4 DUP3 ADD MSTORE PUSH1 0x25 PUSH1 0x24 DUP3 ADD MSTORE PUSH32 0x45524332303A207472616E736665722066726F6D20746865207A65726F206164 PUSH1 0x44 DUP3 ADD MSTORE PUSH5 0x6472657373 PUSH1 0xD8 SHL PUSH1 0x64 DUP3 ADD MSTORE PUSH1 0x84 SWAP1 REVERT JUMPDEST PUSH1 0x1 PUSH1 0x1 PUSH1 0xA0 SHL SUB SWAP1 DUP2 AND SWAP2 DUP3 ISZERO PUSH2 0x822 JUMPI AND SWAP2 DUP3 ISZERO PUSH2 0x7D2 JUMPI PUSH1 0x20 PUSH32 0x8C5BE1E5EBEC7D5BD14F71427D1E84F3DD0314C0F7B2291E5B200AC8C7C3B925 SWAP2 DUP4 PUSH1 0x0 MSTORE PUSH1 0x1 DUP3 MSTORE PUSH1 0x40 PUSH1 0x0 KECCAK256 DUP6 PUSH1 0x0 MSTORE DUP3 MSTORE DUP1 PUSH1 0x40 PUSH1 0x0 KECCAK256 SSTORE PUSH1 0x40 MLOAD SWAP1 DUP2 MSTORE LOG3 JUMP JUMPDEST PUSH1 0x40 MLOAD PUSH3 0x461BCD PUSH1 0xE5 SHL DUP2 MSTORE PUSH1 0x20 PUSH1 0x4 DUP3 ADD MSTORE PUSH1 0x22 PUSH1 0x24 DUP3 ADD MSTORE PUSH32 0x45524332303A20617070726F766520746F20746865207A65726F206164647265 PUSH1 0x44 DUP3 ADD MSTORE PUSH2 0x7373 PUSH1 0xF0 SHL PUSH1 0x64 DUP3 ADD MSTORE PUSH1 0x84 SWAP1 REVERT JUMPDEST PUSH1 0x40 MLOAD PUSH3 0x461BCD PUSH1 0xE5 SHL DUP2 MSTORE PUSH1 0x20 PUSH1 0x4 DUP3 ADD MSTORE PUSH1 0x24 DUP1 DUP3 ADD MSTORE PUSH32 0x45524332303A20617070726F76652066726F6D20746865207A65726F20616464 PUSH1 0x44 DUP3 ADD MSTORE PUSH4 0x72657373 PUSH1 0xE0 SHL PUSH1 0x64 DUP3 ADD MSTORE PUSH1 0x84 SWAP1 REVERT INVALID LOG1 PUSH5 0x736F6C6343 STOP ADDMOD SGT STOP EXP LOG1 PUSH5 0x736F6C6343 STOP ADDMOD SGT STOP EXP BLOCKHASH JUMPI DUP8 STATICCALL SLT 0xA8 0x23 0xE0 CALLCODE 0xB7 PUSH4 0x1CC41B3B 0xA8 DUP3 DUP12 CALLER 0x21 0xCA DUP2 GT GT STATICCALL PUSH22 0xCD3AA3BB5ACEB10E2D527612073B26EECDFD717E6A32 0xC DELEGATECALL 0x4B 0x4A STATICCALL 0xC2 0xB0 PUSH20 0x2D9FCBE2B7FA0CF6000000000000000000000000 "},"methodIdentifiers":{"alpha()":"db1d0fd5","buy(address,uint256)":"cce7ec13","claimTokens(address)":"df8de3e7","creator()":"02d05d3f","creatorshare()":"6334a8c4","factory()":"c45a0155","feePercent()":"7fd6f15c","feeWallet()":"f25f4b56","getAllHistoricalData()":"62f39bb4","getAllTokenHolders()":"32fb56ca","getEthIn(uint256)":"089a122c","getTokenHoldersCount()":"468f3dcd","getTokenIn(uint256)":"0efc51a7","historicalData(uint256)":"e963eb33","isTokenHolder(address)":"65731fe9","k()":"b4f40c61","launchSale(address,address,address)":"146ea612","launched()":"8091f3bf","maxContribution()":"8d3d6576","name()":"06fdde03","negativeToken()":"fffe59e7","positiveToken()":"9650b8df","saleGoal()":"c7c049fc","sell(address,uint256,uint256)":"6a272462","status()":"200d2ed2","symbol()":"95d89b41","tokenBalances(address)":"523fba7f","tokenHolders(uint256)":"923108d9","tokensSold()":"518ab2a8","totalRaised()":"c5c4744c","totalTokens()":"7e1c0c09","wethAddress()":"4f0e0ef3"}}}}}