{
  "_format": "hh-sol-artifact-1",
  "contractName": "EtherfunSale",
  "sourceName": "contracts/SaleContract.sol",
  "abi": [
    {
      "inputs": [
        {
          "internalType": "string",
          "name": "_name",
          "type": "string"
        },
        {
          "internalType": "string",
          "name": "_symbol",
          "type": "string"
        },
        {
          "internalType": "address",
          "name": "_creator",
          "type": "address"
        },
        {
          "internalType": "address",
          "name": "_factory",
          "type": "address"
        },
        {
          "internalType": "uint256",
          "name": "_totalTokens",
          "type": "uint256"
        },
        {
          "internalType": "uint256",
          "name": "_k",
          "type": "uint256"
        },
        {
          "internalType": "uint256",
          "name": "_alpha",
          "type": "uint256"
        },
        {
          "internalType": "uint256",
          "name": "_saleGoal",
          "type": "uint256"
        },
        {
          "internalType": "uint8",
          "name": "_creatorshare",
          "type": "uint8"
        },
        {
          "internalType": "uint256",
          "name": "_feePercent",
          "type": "uint256"
        }
      ],
      "stateMutability": "nonpayable",
      "type": "constructor"
    },
    {
      "inputs": [
        {
          "internalType": "uint256",
          "name": "x",
          "type": "uint256"
        },
        {
          "internalType": "uint256",
          "name": "y",
          "type": "uint256"
        }
      ],
      "name": "PRBMath_MulDiv18_Overflow",
      "type": "error"
    },
    {
      "inputs": [
        {
          "internalType": "uint256",
          "name": "x",
          "type": "uint256"
        },
        {
          "internalType": "uint256",
          "name": "y",
          "type": "uint256"
        },
        {
          "internalType": "uint256",
          "name": "denominator",
          "type": "uint256"
        }
      ],
      "name": "PRBMath_MulDiv_Overflow",
      "type": "error"
    },
    {
      "inputs": [
        {
          "internalType": "UD60x18",
          "name": "x",
          "type": "uint256"
        }
      ],
      "name": "PRBMath_UD60x18_Exp2_InputTooBig",
      "type": "error"
    },
    {
      "inputs": [
        {
          "internalType": "UD60x18",
          "name": "x",
          "type": "uint256"
        }
      ],
      "name": "PRBMath_UD60x18_Exp_InputTooBig",
      "type": "error"
    },
    {
      "inputs": [
        {
          "internalType": "UD60x18",
          "name": "x",
          "type": "uint256"
        }
      ],
      "name": "PRBMath_UD60x18_Log_InputTooSmall",
      "type": "error"
    },
    {
      "anonymous": false,
      "inputs": [
        {
          "indexed": true,
          "internalType": "address",
          "name": "commenter",
          "type": "address"
        },
        {
          "indexed": false,
          "internalType": "string",
          "name": "comment",
          "type": "string"
        },
        {
          "indexed": false,
          "internalType": "uint256",
          "name": "negative",
          "type": "uint256"
        },
        {
          "indexed": false,
          "internalType": "uint256",
          "name": "positive",
          "type": "uint256"
        },
        {
          "indexed": false,
          "internalType": "uint256",
          "name": "timestamp",
          "type": "uint256"
        }
      ],
      "name": "Comment",
      "type": "event"
    },
    {
      "anonymous": false,
      "inputs": [
        {
          "indexed": true,
          "internalType": "address",
          "name": "saleContract",
          "type": "address"
        },
        {
          "indexed": true,
          "internalType": "address",
          "name": "negativeToken",
          "type": "address"
        },
        {
          "indexed": true,
          "internalType": "address",
          "name": "positiveToken",
          "type": "address"
        },
        {
          "indexed": false,
          "internalType": "uint256",
          "name": "perTokenAmont",
          "type": "uint256"
        },
        {
          "indexed": false,
          "internalType": "uint256",
          "name": "timeStamp",
          "type": "uint256"
        }
      ],
      "name": "TokenLaunched",
      "type": "event"
    },
    {
      "anonymous": false,
      "inputs": [
        {
          "indexed": true,
          "internalType": "address",
          "name": "buyer",
          "type": "address"
        },
        {
          "indexed": false,
          "internalType": "uint256",
          "name": "ethAmount",
          "type": "uint256"
        },
        {
          "indexed": false,
          "internalType": "uint256",
          "name": "tokenAmount",
          "type": "uint256"
        },
        {
          "indexed": false,
          "internalType": "string",
          "name": "message",
          "type": "string"
        },
        {
          "indexed": false,
          "internalType": "uint256",
          "name": "timestamp",
          "type": "uint256"
        }
      ],
      "name": "TokensPurchased",
      "type": "event"
    },
    {
      "anonymous": false,
      "inputs": [
        {
          "indexed": true,
          "internalType": "address",
          "name": "seller",
          "type": "address"
        },
        {
          "indexed": false,
          "internalType": "uint256",
          "name": "tokenAmount",
          "type": "uint256"
        },
        {
          "indexed": false,
          "internalType": "uint256",
          "name": "ethAmount",
          "type": "uint256"
        },
        {
          "indexed": false,
          "internalType": "uint256",
          "name": "timestamp",
          "type": "uint256"
        }
      ],
      "name": "TokensSold",
      "type": "event"
    },
    {
      "inputs": [],
      "name": "alpha",
      "outputs": [
        {
          "internalType": "uint256",
          "name": "",
          "type": "uint256"
        }
      ],
      "stateMutability": "view",
      "type": "function"
    },
    {
      "inputs": [
        {
          "internalType": "address",
          "name": "user",
          "type": "address"
        },
        {
          "internalType": "uint256",
          "name": "minTokensOut",
          "type": "uint256"
        },
        {
          "internalType": "string",
          "name": "message",
          "type": "string"
        }
      ],
      "name": "buy",
      "outputs": [
        {
          "internalType": "uint256",
          "name": "",
          "type": "uint256"
        },
        {
          "internalType": "uint256",
          "name": "",
          "type": "uint256"
        }
      ],
      "stateMutability": "payable",
      "type": "function"
    },
    {
      "inputs": [
        {
          "internalType": "address",
          "name": "user",
          "type": "address"
        }
      ],
      "name": "claimTokens",
      "outputs": [],
      "stateMutability": "nonpayable",
      "type": "function"
    },
    {
      "inputs": [],
      "name": "creator",
      "outputs": [
        {
          "internalType": "address",
          "name": "",
          "type": "address"
        }
      ],
      "stateMutability": "view",
      "type": "function"
    },
    {
      "inputs": [],
      "name": "creatorshare",
      "outputs": [
        {
          "internalType": "uint8",
          "name": "",
          "type": "uint8"
        }
      ],
      "stateMutability": "view",
      "type": "function"
    },
    {
      "inputs": [],
      "name": "factory",
      "outputs": [
        {
          "internalType": "address",
          "name": "",
          "type": "address"
        }
      ],
      "stateMutability": "view",
      "type": "function"
    },
    {
      "inputs": [],
      "name": "feePercent",
      "outputs": [
        {
          "internalType": "uint256",
          "name": "",
          "type": "uint256"
        }
      ],
      "stateMutability": "view",
      "type": "function"
    },
    {
      "inputs": [],
      "name": "feeWallet",
      "outputs": [
        {
          "internalType": "address",
          "name": "",
          "type": "address"
        }
      ],
      "stateMutability": "view",
      "type": "function"
    },
    {
      "inputs": [],
      "name": "getAllHistoricalData",
      "outputs": [
        {
          "components": [
            {
              "internalType": "uint256",
              "name": "timestamp",
              "type": "uint256"
            },
            {
              "internalType": "uint256",
              "name": "totalRaised",
              "type": "uint256"
            }
          ],
          "internalType": "struct EtherfunSale.HistoricalData[]",
          "name": "",
          "type": "tuple[]"
        }
      ],
      "stateMutability": "view",
      "type": "function"
    },
    {
      "inputs": [],
      "name": "getAllTokenHolders",
      "outputs": [
        {
          "internalType": "address[]",
          "name": "",
          "type": "address[]"
        }
      ],
      "stateMutability": "view",
      "type": "function"
    },
    {
      "inputs": [
        {
          "internalType": "uint256",
          "name": "tokenAmount",
          "type": "uint256"
        }
      ],
      "name": "getEthIn",
      "outputs": [
        {
          "internalType": "uint256",
          "name": "",
          "type": "uint256"
        }
      ],
      "stateMutability": "view",
      "type": "function"
    },
    {
      "inputs": [
        {
          "internalType": "uint256",
          "name": "ethAmount",
          "type": "uint256"
        }
      ],
      "name": "getTokenIn",
      "outputs": [
        {
          "internalType": "uint256",
          "name": "",
          "type": "uint256"
        }
      ],
      "stateMutability": "view",
      "type": "function"
    },
    {
      "inputs": [
        {
          "internalType": "uint256",
          "name": "",
          "type": "uint256"
        }
      ],
      "name": "historicalData",
      "outputs": [
        {
          "internalType": "uint256",
          "name": "timestamp",
          "type": "uint256"
        },
        {
          "internalType": "uint256",
          "name": "totalRaised",
          "type": "uint256"
        }
      ],
      "stateMutability": "view",
      "type": "function"
    },
    {
      "inputs": [
        {
          "internalType": "address",
          "name": "",
          "type": "address"
        }
      ],
      "name": "isTokenHolder",
      "outputs": [
        {
          "internalType": "bool",
          "name": "",
          "type": "bool"
        }
      ],
      "stateMutability": "view",
      "type": "function"
    },
    {
      "inputs": [],
      "name": "k",
      "outputs": [
        {
          "internalType": "uint256",
          "name": "",
          "type": "uint256"
        }
      ],
      "stateMutability": "view",
      "type": "function"
    },
    {
      "inputs": [
        {
          "internalType": "address",
          "name": "_launchContract",
          "type": "address"
        },
        {
          "internalType": "address",
          "name": "firstBuyer",
          "type": "address"
        },
        {
          "internalType": "address",
          "name": "saleInitiator",
          "type": "address"
        }
      ],
      "name": "launchSale",
      "outputs": [],
      "stateMutability": "nonpayable",
      "type": "function"
    },
    {
      "inputs": [],
      "name": "launched",
      "outputs": [
        {
          "internalType": "bool",
          "name": "",
          "type": "bool"
        }
      ],
      "stateMutability": "view",
      "type": "function"
    },
    {
      "inputs": [],
      "name": "maxContribution",
      "outputs": [
        {
          "internalType": "uint256",
          "name": "",
          "type": "uint256"
        }
      ],
      "stateMutability": "view",
      "type": "function"
    },
    {
      "inputs": [],
      "name": "name",
      "outputs": [
        {
          "internalType": "string",
          "name": "",
          "type": "string"
        }
      ],
      "stateMutability": "view",
      "type": "function"
    },
    {
      "inputs": [],
      "name": "negativeToken",
      "outputs": [
        {
          "internalType": "address",
          "name": "",
          "type": "address"
        }
      ],
      "stateMutability": "view",
      "type": "function"
    },
    {
      "inputs": [],
      "name": "positiveToken",
      "outputs": [
        {
          "internalType": "address",
          "name": "",
          "type": "address"
        }
      ],
      "stateMutability": "view",
      "type": "function"
    },
    {
      "inputs": [],
      "name": "saleGoal",
      "outputs": [
        {
          "internalType": "uint256",
          "name": "",
          "type": "uint256"
        }
      ],
      "stateMutability": "view",
      "type": "function"
    },
    {
      "inputs": [
        {
          "internalType": "address",
          "name": "user",
          "type": "address"
        },
        {
          "internalType": "uint256",
          "name": "tokenAmount",
          "type": "uint256"
        },
        {
          "internalType": "uint256",
          "name": "minEthOut",
          "type": "uint256"
        }
      ],
      "name": "sell",
      "outputs": [
        {
          "internalType": "uint256",
          "name": "",
          "type": "uint256"
        },
        {
          "internalType": "uint256",
          "name": "",
          "type": "uint256"
        }
      ],
      "stateMutability": "nonpayable",
      "type": "function"
    },
    {
      "inputs": [],
      "name": "status",
      "outputs": [
        {
          "internalType": "bool",
          "name": "",
          "type": "bool"
        }
      ],
      "stateMutability": "view",
      "type": "function"
    },
    {
      "inputs": [],
      "name": "symbol",
      "outputs": [
        {
          "internalType": "string",
          "name": "",
          "type": "string"
        }
      ],
      "stateMutability": "view",
      "type": "function"
    },
    {
      "inputs": [
        {
          "internalType": "address",
          "name": "",
          "type": "address"
        }
      ],
      "name": "tokenBalances",
      "outputs": [
        {
          "internalType": "uint256",
          "name": "",
          "type": "uint256"
        }
      ],
      "stateMutability": "view",
      "type": "function"
    },
    {
      "inputs": [
        {
          "internalType": "uint256",
          "name": "",
          "type": "uint256"
        }
      ],
      "name": "tokenHolders",
      "outputs": [
        {
          "internalType": "address",
          "name": "",
          "type": "address"
        }
      ],
      "stateMutability": "view",
      "type": "function"
    },
    {
      "inputs": [],
      "name": "tokensSold",
      "outputs": [
        {
          "internalType": "uint256",
          "name": "",
          "type": "uint256"
        }
      ],
      "stateMutability": "view",
      "type": "function"
    },
    {
      "inputs": [],
      "name": "totalRaised",
      "outputs": [
        {
          "internalType": "uint256",
          "name": "",
          "type": "uint256"
        }
      ],
      "stateMutability": "view",
      "type": "function"
    },
    {
      "inputs": [],
      "name": "totalTokens",
      "outputs": [
        {
          "internalType": "uint256",
          "name": "",
          "type": "uint256"
        }
      ],
      "stateMutability": "view",
      "type": "function"
    },
    {
      "inputs": [],
      "name": "wethAddress",
      "outputs": [
        {
          "internalType": "address",
          "name": "",
          "type": "address"
        }
      ],
      "stateMutability": "view",
      "type": "function"
    },
    {
      "stateMutability": "payable",
      "type": "receive"
    }
  ],
  "bytecode": "0x6080604052346200044157620039ef803803806200001d8162000446565b928339810161014082820312620004415781516001600160401b0381116200044157816200004d9184016200046c565b602083015190916001600160401b0382116200044157620000709184016200046c565b916200007f60408201620004de565b6200008d60608301620004de565b90608083015160a08401519060c08501519260e0860151946101008701519660ff88168803620004415761012001516001600055601280546001600160a01b031990811673c02aaa39b223fe8d0a0e5c4f27ead9083c756cc2179091556014805490911673e97203b9ad2b6efcdddda642c798020c56ebffc3179055885190986001600160401b038211620003395760015490600182811c9216801562000436575b6020831014620003185781601f849311620003d5575b50602090601f83116001146200035b576000926200034f575b50508160011b916000199060031b1c1916176001555b88516001600160401b0381116200033957600254600181811c911680156200032e575b60208210146200031857601f8111620002c3575b506020601f82116001146200024657819060ff9a9b6000926200023a575b50508160011b916000199060031b1c1916176002555b60018060a01b0380921660018060a01b031960055416176005551660018060a01b03196006541617600655600755600b55600c55600d551660ff19600a541617600a556013556000600e556040516134bb9081620004f48239f35b015190503880620001c9565b60026000908152600080516020620039af8339815191529b90601f198416905b818110620002aa57509160ff9b9c9184600195941062000290575b505050811b01600255620001df565b015160001960f88460031b161c1916905538808062000281565b838301518e556001909d019c6020938401930162000266565b6002600052600080516020620039af833981519152601f830160051c81016020841062000310575b601f830160051c8201811062000303575050620001ab565b60008155600101620002eb565b5080620002eb565b634e487b7160e01b600052602260045260246000fd5b90607f169062000197565b634e487b7160e01b600052604160045260246000fd5b0151905038806200015e565b60016000908152600080516020620039cf8339815191529350601f198516905b818110620003bc5750908460019594939210620003a2575b505050811b0160015562000174565b015160001960f88460031b161c1916905538808062000393565b929360206001819287860151815501950193016200037b565b6001600052909150600080516020620039cf833981519152601f840160051c8101602085106200042e575b90849392915b601f830160051c820181106200041e57505062000145565b6000815585945060010162000406565b508062000400565b91607f16916200012f565b600080fd5b6040519190601f01601f191682016001600160401b038111838210176200033957604052565b919080601f84011215620004415782516001600160401b0381116200033957602090620004a2601f8201601f1916830162000446565b92818452828287010111620004415760005b818110620004ca57508260009394955001015290565b8581018301518482018401528201620004b4565b51906001600160a01b0382168203620004415756fe60808060405260043610156200001f575b5036156200001d57600080fd5b005b60003560e01c90816302d05d3f146200165d5750806306fdde0314620015ad578063089a122c146200158b5780630efc51a71462001561578063146ea6121462000f5f578063200d2ed21462000f3757806332fb56ca1462000e675780634862ddc31462000b1d5780634f0e0ef31462000af2578063518ab2a81462000ad2578063523fba7f1462000a9457806362f39bb414620009925780636334a8c4146200096f57806365731fe9146200092c5780636a27246214620006945780637e1c0c0914620006745780637fd6f15c14620006545780638091f3bf146200062c5780638d3d6576146200060c578063923108d914620005c557806395d89b4114620004cf5780639650b8df14620004a4578063b4f40c611462000484578063c45a01551462000459578063c5c4744c1462000439578063c7c049fc1462000419578063db1d0fd514620003f9578063df8de3e7146200023e578063e963eb3314620001fc578063f25f4b5614620001d15763fffe59e714620001a1573862000010565b34620001cc576000366003190112620001cc576004546040516001600160a01b039091168152602090f35b600080fd5b34620001cc576000366003190112620001cc576014546040516001600160a01b039091168152602090f35b34620001cc576020366003190112620001cc57600435601554811015620001cc576200022a604091620017a7565b506001815491015482519182526020820152f35b34620001cc57602080600319360112620001cc576200025c62001742565b6006546001600160a01b0392919062000279908416331462002461565b6200028362002589565b60ff600a5460081c1615620003c0578281169081600052600f835260406000205484600354169060011c9060405192858463a9059cbb60e01b9384825281600081620002e889886004840160209093929193604081019460018060a01b031681520152565b03925af180156200039257620003339787956000926200039e575b5060045416926040519889958694859384526004840160209093929193604081019460018060a01b031681520152565b03925af19283156200039257600f936200035e575b5060005252600060408120556001600055600080f35b6200038290833d85116200038a575b620003798183620016dd565b8101906200278f565b508362000348565b503d6200036d565b6040513d6000823e3d90fd5b620003b890873d89116200038a57620003798183620016dd565b508962000303565b60405162461bcd60e51b815260048101839052601160248201527014d85b19481b9bdd081b185d5b98da1959607a1b6044820152606490fd5b34620001cc576000366003190112620001cc576020600c54604051908152f35b34620001cc576000366003190112620001cc576020600d54604051908152f35b34620001cc576000366003190112620001cc576020600854604051908152f35b34620001cc576000366003190112620001cc576006546040516001600160a01b039091168152602090f35b34620001cc576000366003190112620001cc576020600b54604051908152f35b34620001cc576000366003190112620001cc576003546040516001600160a01b039091168152602090f35b34620001cc576000366003190112620001cc576040516000600254620004f58162001683565b808452906001908181169081156200059c57506001146200053d575b62000539846200052481860382620016dd565b60405191829160208352602083019062001700565b0390f35b6002600090815292507f405787fa12a823e0f2b7631cc41b3ba8828b3321ca811111fa75cd3aa3bb5ace5b82841062000583575050508101602001620005248262000511565b8054602085870181019190915290930192810162000568565b60ff191660208087019190915292151560051b8501909201925062000524915083905062000511565b34620001cc576020366003190112620001cc57600435601054811015620001cc57620005f360209162001759565b905460405160039290921b1c6001600160a01b03168152f35b34620001cc576000366003190112620001cc576020600954604051908152f35b34620001cc576000366003190112620001cc57602060ff600a5460081c166040519015158152f35b34620001cc576000366003190112620001cc576020601354604051908152f35b34620001cc576000366003190112620001cc576020600754604051908152f35b34620001cc576060366003190112620001cc57620006b162001742565b600654602435916001600160a01b0391620006d0908316331462002461565b620006da62002589565b600a5490620006f060ff8360081c16156200249d565b8315620008db5782169182600052602091600f83528460406000205410620008965760ff620007249160101c1615620024e2565b6200072f84620017e2565b90620007406044358310156200252c565b47821162000851576064620007586013548462002518565b0490620007856200076a83856200184b565b936200077988600e546200184b565b600e556008546200184b565b60085584600052600f84526040600020620007a28782546200184b565b905560008386811562000846575b600092839283928392f115620003925760008080938193601454168282156200083c575bf11562000392577f6db63bebf1e6540277744df32846ebdb98385b1a73f2d5de49b28348add63f50606060409585936200080d620025e0565b8751918252858201524287820152a260085491600052600f815282600020549060016000558351928352820152f35b506108fc620007d4565b6108fc9250620007b0565b60405162461bcd60e51b815260048101849052601d60248201527f496e73756666696369656e7420636f6e74726163742062616c616e63650000006044820152606490fd5b60405162461bcd60e51b815260048101849052601a60248201527f496e73756666696369656e7420746f6b656e2062616c616e63650000000000006044820152606490fd5b60405162461bcd60e51b815260206004820152602360248201527f546f6b656e20616d6f756e74206d75737420626520677265617465722074686160448201526206e20360ec1b6064820152608490fd5b34620001cc576020366003190112620001cc576001600160a01b036200095162001742565b166000526011602052602060ff604060002054166040519015158152f35b34620001cc576000366003190112620001cc57602060ff600a5416604051908152f35b34620001cc576000366003190112620001cc5760155467ffffffffffffffff811162000a7e57604051602090620009cf828460051b0182620016dd565b828152818101928360156000527f55f448fdea98c4d29eb340757ef0a66cd03dbb9538908a6a81d96026b71ec4756000915b83831062000a4f5760408051878152865181890181905289928201908960005b82811062000a2f5784840385f35b855180518552820151848301529481019460409093019260010162000a21565b60028660019260405162000a6381620016c0565b85548152848601548382015281520192019201919062000a01565b634e487b7160e01b600052604160045260246000fd5b34620001cc576020366003190112620001cc576001600160a01b0362000ab962001742565b16600052600f6020526020604060002054604051908152f35b34620001cc576000366003190112620001cc576020600e54604051908152f35b34620001cc576000366003190112620001cc576012546040516001600160a01b039091168152602090f35b6060366003190112620001cc5762000b3462001742565b60443567ffffffffffffffff808211620001cc5736602383011215620001cc57816004013590811162000a7e576040519260209162000b7d601f8201601f1916840186620016dd565b80855260249336858383010111620001cc57816000928686930183890137860101526006546001600160a01b03949062000bbb908616331462002461565b62000bc562002589565b600a549462000bdb60ff8760081c16156200249d565b6008549562000beb34886200228d565b600d549067016345785d8a0000820180921162000e52571162000e1a57341562000de85760ff62000c219160101c1615620024e2565b606462000c316013543462002518565b04908062000c4083346200184b565b9462000c788662000c518162002201565b9a62000c618b358d10156200252c565b62000c6f8c600e546200228d565b600e556200228d565b600855169586600052600f8652604060002062000c978982546200228d565b9055866000526011865260ff604060002054161562000d76575b50600080809381936014541682821562000d6c575bf1156200039257604094849262000d2c7f3e548710b6b01fd0dc0fd39691a19b31e42cb6efd2cebb8ddd4a64e7bc7c086793600854600d54111562000d55575b62000d10620025e0565b8851938493845287840152608089840152608083019062001700565b4260608301520390a260085491600052600f815282600020549060016000558351928352820152f35b6201000062ff000019600a541617600a5562000d06565b506108fc62000cc6565b60105490600160401b82101562000dd4575060008093819362000da184600185960160105562001759565b81549060031b90838d831b921b19161790558983526011895260408320600160ff19825416179055935093505062000cb1565b634e487b7160e01b60009081526041600452fd5b60405162461bcd60e51b815260048101869052600b818801526a139bc8115512081cd95b9d60aa1b6044820152606490fd5b60405162461bcd60e51b8152600481018690526011818801527014d85b194819dbd85b081c995858da1959607a1b6044820152606490fd5b87634e487b7160e01b60005260116004526000fd5b34620001cc576000366003190112620001cc57604051806010548083526020809301809160106000527f1b6847dc741a1b0cd08d278845f9d819d87b734759afb55fe2de5cb82a9ae6729060005b8682821062000f1957868662000ece82880383620016dd565b604051928392818401908285525180915260408401929160005b82811062000ef857505050500390f35b83516001600160a01b03168552869550938101939281019260010162000ee8565b83546001600160a01b03168552909301926001928301920162000eb5565b34620001cc576000366003190112620001cc57602060ff600a5460101c166040519015158152f35b34620001cc576060366003190112620001cc5762000f7c62001742565b6024356001600160a01b0381168103620001cc57604435906001600160a01b0382168203620001cc5762000fbc60018060a01b0360065416331462002461565b62000fc662002589565b600a5462000fdb60ff8260081c16156200249d565b600854600d5411620015245760ff8160101c1615620014f25761ff00191661010017600a5560405162001036600882620010186020820162002647565b67706f73697469766560c01b815203601719810184520182620016dd565b604051620010676003826200104e60208201620026db565b62706f7360e81b815203601c19810184520182620016dd565b6007546040519283610ce981011067ffffffffffffffff610ce98601111762000a7e578392620010a992610ce9620027c6863960011c91610ce985016200275d565b03906000f080156200039257604051620010eb600882620010cd6020820162002647565b676e6567617469766560c01b815203601719810184520182620016dd565b604051906200111d6003836200110460208201620026db565b626e656760e81b815203601c19810185520183620016dd565b60075460011c9160405192610ce984019184831067ffffffffffffffff84111762000a7e5784936200115893610ce9620027c687396200275d565b03906000f093841562000392576bffffffffffffffffffffffff60a01b60018060a01b03831681600354161760035560018060a01b038616906004541617600455620011aa600754600e54906200184b565b9460085460ff600a541660640360ff8111620014945760649160ff620011d292169062002518565b60405163095ea7b360e01b81526001600160a01b0385166004820152600189901c6024820152919004936020908290816000816044810103926001600160a01b03165af180156200039257620014ce575b5060405163095ea7b360e01b81526001600160a01b038381166004830152600188901c6024830152909160209183916044918391600091165af180156200039257620014aa575b506104b0420190814211620014945760035460405163f305d71960e01b8082526001600160a01b039283166004830152600189811c6024840152600060448401529590951c6064820181905230608483015260a48201859052909390929091169060608460c48186865af1801562000392578895606095859262001472575b50600480546040519283526001600160a01b03169082015260019690961c602487015260006044870152606486019390935230608486015260a4850152839160c4918391905af1801562000392576200143c575b50478015620013f75760011c906000808080858181159687620013ec575b6001600160a01b031690f11562000392576000808093819387968391620013e1575b6001600160a01b031690f115620003925760018060a01b036003541660018060a01b0360045416916040519060011c81524260208201527ffedb51b13e7432bcb4a213b2be92ee7637c20671f653bf0892174f0e4a26175560403092a46001600055005b6108fc91506200137d565b6108fc91506200135b565b60405162461bcd60e51b815260206004820152601c60248201527f4e6f2062616c616e636520666f722063726561746f72207368617265000000006044820152606490fd5b620014629060603d6060116200146a575b620014598183620016dd565b810190620027a9565b50506200133d565b503d6200144d565b6200148c90873d89116200146a57620014598183620016dd565b5050620012e9565b634e487b7160e01b600052601160045260246000fd5b620014c69060203d6020116200038a57620003798183620016dd565b50856200126a565b620014ea9060203d6020116200038a57620003798183620016dd565b508662001223565b60405162461bcd60e51b815260206004820152600a6024820152691b9bdd08189bdb99195960b21b6044820152606490fd5b60405162461bcd60e51b815260206004820152601560248201527414d85b194819dbd85b081b9bdd081c995858da1959605a1b6044820152606490fd5b34620001cc576020366003190112620001cc5760206200158360043562002201565b604051908152f35b34620001cc576020366003190112620001cc57602062001583600435620017e2565b34620001cc576000366003190112620001cc5760405160006001805490620015d58262001683565b808552918181169081156200059c5750600114620016005762000539846200052481860382620016dd565b600081815292507fb10e2d527612073b26eecdfd717e6a320cf44b4afac2b0732d9fcbe2b7fa0cf65b82841062001644575050508101602001620005248262000511565b8054602085870181019190915290930192810162001629565b34620001cc576000366003190112620001cc576005546001600160a01b03168152602090f35b90600182811c92168015620016b5575b60208310146200169f57565b634e487b7160e01b600052602260045260246000fd5b91607f169162001693565b6040810190811067ffffffffffffffff82111762000a7e57604052565b90601f8019910116810190811067ffffffffffffffff82111762000a7e57604052565b919082519283825260005b8481106200172d575050826000602080949584010152601f8019910116010190565b6020818301810151848301820152016200170b565b600435906001600160a01b0382168203620001cc57565b601054811015620017915760106000527f1b6847dc741a1b0cd08d278845f9d819d87b734759afb55fe2de5cb82a9ae6720190600090565b634e487b7160e01b600052603260045260246000fd5b6015548110156200179157601560005260011b7f55f448fdea98c4d29eb340757ef0a66cd03dbb9538908a6a81d96026b71ec4750190600090565b620018489062001841600e54916200182d6200182662001820600b54936200183a600c549162001833876200182d62001826620018208d8862002169565b62001859565b8262002169565b6200184b565b986200184b565b9062002169565b906200184b565b90565b919082039182116200149457565b680736ea4425c11ac630811162002151576714057b7ef767814f90670de0b6b3a7640000918291020490680a688906bd8affffff82116200213857604091821b81900490600160bf1b67ff00000000000000831662002017575b66ff000000000000831662001eff575b65ff0000000000831662001def575b64ff00000000831662001ce7575b63ff000000831662001be7575b62ff0000831662001aef575b61ff008316620019ff575b60ff831662001918575b02911c60bf031c90565b60808316620019ec575b838316620019d9575b60208316620019c6575b60108316620019b3575b60088316620019a0575b600483166200198d575b600283166200197a575b60018316156200190e576801000000000000000102831c6200190e565b6801000000000000000102831c6200195d565b6801000000000000000302831c62001953565b6801000000000000000602831c62001949565b6801000000000000000b02831c6200193f565b6801000000000000001602831c62001935565b6801000000000000002c02831c6200192b565b6801000000000000005902831c62001922565b618000831662001adc575b614000831662001ac9575b612000831662001ab6575b611000831662001aa3575b610800831662001a90575b610400831662001a7d575b610200831662001a6a575b6101008316156200190457680100000000000000b102831c62001904565b6801000000000000016302831c62001a4c565b680100000000000002c602831c62001a41565b6801000000000000058c02831c62001a36565b68010000000000000b1702831c62001a2b565b6801000000000000162e02831c62001a20565b68010000000000002c5d02831c62001a15565b680100000000000058b902831c62001a0a565b62800000831662001bd4575b62400000831662001bc1575b62200000831662001bae575b62100000831662001b9b575b62080000831662001b88575b62040000831662001b75575b62020000831662001b62575b62010000831615620018f9576801000000000000b17202831c620018f9565b680100000000000162e402831c62001b43565b6801000000000002c5c802831c62001b37565b68010000000000058b9102831c62001b2b565b680100000000000b172102831c62001b1f565b68010000000000162e4302831c62001b13565b680100000000002c5c8602831c62001b07565b6801000000000058b90c02831c62001afb565b6380000000831662001cd4575b6340000000831662001cc1575b6320000000831662001cae575b6310000000831662001c9b575b6308000000831662001c88575b6304000000831662001c75575b6302000000831662001c62575b6301000000831615620018ed5768010000000000b1721802831c620018ed565b6801000000000162e43002831c62001c42565b68010000000002c5c86002831c62001c35565b680100000000058b90c002831c62001c28565b6801000000000b17217f02831c62001c1b565b680100000000162e42ff02831c62001c0e565b6801000000002c5c85fe02831c62001c01565b68010000000058b90bfc02831c62001bf4565b648000000000831662001ddc575b644000000000831662001dc9575b642000000000831662001db6575b641000000000831662001da3575b640800000000831662001d90575b640400000000831662001d7d575b640200000000831662001d6a575b640100000000831615620018e057680100000000b17217f802831c620018e0565b68010000000162e42ff102831c62001d49565b680100000002c5c85fe302831c62001d3b565b6801000000058b90bfce02831c62001d2d565b68010000000b17217fbb02831c62001d1f565b6801000000162e42fff002831c62001d11565b68010000002c5c8601cc02831c62001d03565b680100000058b90c0b4902831c62001cf5565b65800000000000831662001eec575b65400000000000831662001ed9575b65200000000000831662001ec6575b65100000000000831662001eb3575b65080000000000831662001ea0575b65040000000000831662001e8d575b65020000000000831662001e7a575b65010000000000831615620018d2576801000000b17218355102831c620018d2565b680100000162e430e5a202831c62001e58565b6801000002c5c863b73f02831c62001e49565b68010000058b90cf1e6e02831c62001e3a565b680100000b1721bcfc9a02831c62001e2b565b68010000162e43f4f83102831c62001e1c565b680100002c5c89d5ec6d02831c62001e0d565b6801000058b91b5bc9ae02831c62001dfe565b6680000000000000831662002004575b6640000000000000831662001ff1575b6620000000000000831662001fde575b6610000000000000831662001fcb575b6608000000000000831662001fb8575b6604000000000000831662001fa5575b6602000000000000831662001f92575b6601000000000000831615620018c35768010000b17255775c0402831c620018c3565b6801000162e525ee054702831c62001f6f565b68010002c5cc37da949202831c62001f5f565b680100058ba01fb9f96d02831c62001f4f565b6801000b175effdc76ba02831c62001f3f565b680100162f3904051fa102831c62001f2f565b6801002c605e2e8cec5002831c62001f1f565b68010058c86da1c09ea202831c62001f0f565b678000000000000000831662002124575b674000000000000000831662002111575b6720000000000000008316620020fe575b6710000000000000008316620020eb575b6708000000000000008316620020d8575b6704000000000000008316620020c5575b6702000000000000008316620020b2575b670100000000000000831615620018b357680100b1afa5abcbed6102831c620018b3565b68010163da9fb33356d802831c6200208e565b680102c9a3e778060ee702831c6200207d565b6801059b0d31585743ae02831c6200206c565b68010b5586cf9890f62a02831c6200205b565b6801172b83c7d517adce02831c6200204a565b6801306fe0a31b7152df02831c62002039565b5068016a09e667f3bcc909607f1b62002028565b60405163b3b6ba1f60e01b815260048101839052602490fd5b60249060405190630d7b1d6560e11b82526004820152fd5b90919060001983820983820291828083109203918083039214620021f057670de0b6b3a76400009081831015620021d257947faccb18165bd6fe31ae1cf318dc5b51eee0e1ba569b88cd74c1773b91fac1066994950990828211900360ee1b910360121c170290565b6044908660405191635173648d60e01b835260048301526024820152fd5b5050670de0b6b3a764000090049150565b62001848906200182d60085491600b5490600c5491620022626200225c6200225683620022716714057b7ef767814f966200226a89898d620022626200225c62002256670de0b6b3a76400009d8e946200229b565b62002277565b62002365565b02046200229b565b9a6200228d565b6200229b565b90670de0b6b3a764000082018092116200149457565b919082018092116200149457565b670de0b6b3a76400009160001983830992808302928380861095039480860395146200234057828510156200231d57908291096001821901821680920460028082600302188083028203028083028203028083028203028083028203028083028203028092029003029360018380600003040190848311900302920304170290565b8260649260405192630c740aef60e31b8452600484015260248301526044820152fd5b5050809250156200234f570490565b634e487b7160e01b600052601260045260246000fd5b90670de0b6b3a76400009182811062002449578281046fffffffffffffffffffffffffffffffff811160071b90811c9067ffffffffffffffff821160061b91821c63ffffffff811160051b90811c61ffff811160041b90811c60ff811160031b90811c91600f831160021b92831c936001968760038711811b96871c11961717171717171791848302921c9380851462002442576706f05b59d3b2000094855b6200241257509193505050565b808291020494671bc16d674ec8000086101562002434575b821c948562002405565b8095930192821c946200242a565b5090925050565b6024906040519063036d32ef60e41b82526004820152fd5b156200246957565b60405162461bcd60e51b815260206004820152600c60248201526b4f6e6c7920666163746f727960a01b6044820152606490fd5b15620024a557565b60405162461bcd60e51b815260206004820152601560248201527414d85b1948185b1c9958591e481b185d5b98da1959605a1b6044820152606490fd5b15620024ea57565b60405162461bcd60e51b8152602060048201526006602482015265189bdb99195960d21b6044820152606490fd5b818102929181159184041417156200149457565b156200253457565b60405162461bcd60e51b815260206004820152602760248201527f536c69707061676520746f6f20686967682c207472616e73616374696f6e2072604482015266195d995c9d195960ca1b6064820152608490fd5b6002600054146200259b576002600055565b60405162461bcd60e51b815260206004820152601f60248201527f5265656e7472616e637947756172643a207265656e7472616e742063616c6c006044820152606490fd5b600854604051620025f181620016c0565b42815260208101918252601554600160401b81101562000a7e578060016200261d9201601555620017a7565b929092620026315760019151835551910155565b634e487b7160e01b600052600060045260246000fd5b906000916001908154916200265c8362001683565b92818116908115620026c857506001146200267657505050565b8091929394506000527fb10e2d527612073b26eecdfd717e6a320cf44b4afac2b0732d9fcbe2b7fa0cf6906000915b848310620026b4575050500190565b8181602092548587015201920191620026a5565b60ff191683525050811515909102019150565b60025460009291620026ed8262001683565b91600190818116908115620026c857506001146200270a57505050565b909192935060026000527f405787fa12a823e0f2b7631cc41b3ba8828b3321ca811111fa75cd3aa3bb5ace906000915b84831062002749575050500190565b81816020925485870152019201916200273a565b9392916200278a906200277b60409360608852606088019062001700565b90868203602088015262001700565b930152565b90816020910312620001cc57518015158103620001cc5790565b90816060910312620001cc57805191604060208301519201519056fe60406080815234620003cb5762000ce9803803806200001e81620003d0565b9283398101606082820312620003cb5781516001600160401b039290838111620003cb578262000050918301620003f6565b9260209283830151828111620003cb5786916200006f918501620003f6565b92015193805191808311620002cb5760038054936001938486811c96168015620003c0575b88871014620003aa578190601f9687811162000354575b508890878311600114620002ed57600092620002e1575b505060001982841b1c191690841b1781555b8451918211620002cb5760049485548481811c91168015620002c0575b88821014620002ab5785811162000260575b508690858411600114620001f557938394918492600095620001e9575b50501b92600019911b1c19161782555b3315620001aa5750600254908382018092116200019557506000917fddf252ad1be2c89b69c2b068fc378daa952ba7f163c4a11628f55a4df523b3ef9160025533835282815284832084815401905584519384523393a3516108809081620004698239f35b601190634e487b7160e01b6000525260246000fd5b60649285519262461bcd60e51b845283015260248201527f45524332303a206d696e7420746f20746865207a65726f2061646472657373006044820152fd5b01519350388062000120565b9190601f198416928760005284896000209460005b8b898383106200024857505050106200022d575b50505050811b01825562000130565b01519060f884600019921b161c19169055388080806200021e565b8686015189559097019694850194889350016200020a565b86600052876000208680860160051c8201928a8710620002a1575b0160051c019085905b8281106200029457505062000103565b6000815501859062000284565b925081926200027b565b602287634e487b7160e01b6000525260246000fd5b90607f1690620000f1565b634e487b7160e01b600052604160045260246000fd5b015190503880620000c2565b90869350601f19831691856000528a6000209260005b8c8282106200033d575050841162000324575b505050811b018155620000d4565b015160001983861b60f8161c1916905538808062000316565b8385015186558a9790950194938401930162000303565b90915083600052886000208780850160051c8201928b8610620003a0575b918891869594930160051c01915b82811062000390575050620000ab565b6000815585945088910162000380565b9250819262000372565b634e487b7160e01b600052602260045260246000fd5b95607f169562000094565b600080fd5b6040519190601f01601f191682016001600160401b03811183821017620002cb57604052565b919080601f84011215620003cb5782516001600160401b038111620002cb576020906200042c601f8201601f19168301620003d0565b92818452828287010111620003cb5760005b8181106200045457508260009394955001015290565b85810183015184820184015282016200043e56fe608060408181526004918236101561001657600080fd5b600092833560e01c91826306fdde03146104ad57508163095ea7b31461048357816318160ddd1461046457816323b872dd1461039a578163313ce5671461037e578163395093511461031757816370a08231146102e057816395d89b41146101c1578163a457c2d71461011957508063a9059cbb146100e95763dd62ed3e1461009e57600080fd5b346100e557806003193601126100e557806020926100ba6105d2565b6100c26105ed565b6001600160a01b0391821683526001865283832091168252845220549051908152f35b5080fd5b50346100e557806003193601126100e5576020906101126101086105d2565b6024359033610603565b5160018152f35b905082346101be57826003193601126101be576101346105d2565b918360243592338152600160205281812060018060a01b038616825260205220549082821061016d576020856101128585038733610771565b608490602086519162461bcd60e51b8352820152602560248201527f45524332303a2064656372656173656420616c6c6f77616e63652062656c6f77604482015264207a65726f60d81b6064820152fd5b80fd5b8383346100e557816003193601126100e557805190828454600181811c908083169283156102d6575b60209384841081146102c3578388529081156102a75750600114610252575b505050829003601f01601f191682019267ffffffffffffffff84118385101761023f575082918261023b925282610589565b0390f35b634e487b7160e01b815260418552602490fd5b8787529192508591837f8a35acfbc15ff81a39ae7d344fd709f28e8600b4aa8c65c6b64bfe7fe36bd19b5b8385106102935750505050830101858080610209565b80548886018301529301928490820161027d565b60ff1916878501525050151560051b8401019050858080610209565b634e487b7160e01b895260228a52602489fd5b91607f16916101ea565b5050346100e55760203660031901126100e55760209181906001600160a01b036103086105d2565b16815280845220549051908152f35b8284346101be57816003193601126101be576103316105d2565b338252600160209081528383206001600160a01b038316845290528282205460243581019290831061036b57602084610112858533610771565b634e487b7160e01b815260118552602490fd5b5050346100e557816003193601126100e5576020905160128152f35b839150346100e55760603660031901126100e5576103b66105d2565b6103be6105ed565b91846044359460018060a01b0384168152600160205281812033825260205220549060001982036103f8575b602086610112878787610603565b84821061042157509183916104166020969561011295033383610771565b9193948193506103ea565b606490602087519162461bcd60e51b8352820152601d60248201527f45524332303a20696e73756666696369656e7420616c6c6f77616e63650000006044820152fd5b5050346100e557816003193601126100e5576020906002549051908152f35b5050346100e557806003193601126100e5576020906101126104a36105d2565b6024359033610771565b8490843461058557826003193601126105855782600354600181811c9080831692831561057b575b60209384841081146102c3578388529081156102a7575060011461052557505050829003601f01601f191682019267ffffffffffffffff84118385101761023f575082918261023b925282610589565b600387529192508591837fc2575a0e9e593c00f959f8c92f12db2869c3395a3b0502d05e2516446f71f85b5b8385106105675750505050830101858080610209565b805488860183015293019284908201610551565b91607f16916104d5565b8280fd5b6020808252825181830181905290939260005b8281106105be57505060409293506000838284010152601f8019910116010190565b81810186015184820160400152850161059c565b600435906001600160a01b03821682036105e857565b600080fd5b602435906001600160a01b03821682036105e857565b6001600160a01b0390811691821561071e57169182156106cd5760008281528060205260408120549180831061067957604082827fddf252ad1be2c89b69c2b068fc378daa952ba7f163c4a11628f55a4df523b3ef958760209652828652038282205586815220818154019055604051908152a3565b60405162461bcd60e51b815260206004820152602660248201527f45524332303a207472616e7366657220616d6f756e7420657863656564732062604482015265616c616e636560d01b6064820152608490fd5b60405162461bcd60e51b815260206004820152602360248201527f45524332303a207472616e7366657220746f20746865207a65726f206164647260448201526265737360e81b6064820152608490fd5b60405162461bcd60e51b815260206004820152602560248201527f45524332303a207472616e736665722066726f6d20746865207a65726f206164604482015264647265737360d81b6064820152608490fd5b6001600160a01b0390811691821561082257169182156107d25760207f8c5be1e5ebec7d5bd14f71427d1e84f3dd0314c0f7b2291e5b200ac8c7c3b925918360005260018252604060002085600052825280604060002055604051908152a3565b60405162461bcd60e51b815260206004820152602260248201527f45524332303a20617070726f766520746f20746865207a65726f206164647265604482015261737360f01b6064820152608490fd5b60405162461bcd60e51b8152602060048201526024808201527f45524332303a20617070726f76652066726f6d20746865207a65726f206164646044820152637265737360e01b6064820152608490fdfea164736f6c6343000813000aa164736f6c6343000813000a405787fa12a823e0f2b7631cc41b3ba8828b3321ca811111fa75cd3aa3bb5aceb10e2d527612073b26eecdfd717e6a320cf44b4afac2b0732d9fcbe2b7fa0cf6",
  "linkReferences": {},
  "deployedLinkReferences": {}
}