{
  "_format": "hh-sol-artifact-1",
  "contractName": "EtherFunFactory",
  "sourceName": "contracts/Factory.sol",
  "abi": [
    {
      "inputs": [],
      "stateMutability": "nonpayable",
      "type": "constructor"
    },
    {
      "anonymous": false,
      "inputs": [
        {
          "indexed": true,
          "internalType": "address",
          "name": "saleContractAddress",
          "type": "address"
        },
        {
          "indexed": true,
          "internalType": "address",
          "name": "claimant",
          "type": "address"
        }
      ],
      "name": "Claimed",
      "type": "event"
    },
    {
      "anonymous": false,
      "inputs": [
        {
          "indexed": true,
          "internalType": "address",
          "name": "saleContractAddress",
          "type": "address"
        },
        {
          "indexed": false,
          "internalType": "string",
          "name": "logoUrl",
          "type": "string"
        },
        {
          "indexed": false,
          "internalType": "string",
          "name": "websiteUrl",
          "type": "string"
        },
        {
          "indexed": false,
          "internalType": "string",
          "name": "twitterUrl",
          "type": "string"
        },
        {
          "indexed": false,
          "internalType": "string",
          "name": "telegramUrl",
          "type": "string"
        },
        {
          "indexed": false,
          "internalType": "string",
          "name": "description",
          "type": "string"
        }
      ],
      "name": "MetaUpdated",
      "type": "event"
    },
    {
      "anonymous": false,
      "inputs": [
        {
          "indexed": true,
          "internalType": "address",
          "name": "saleContractAddress",
          "type": "address"
        },
        {
          "indexed": true,
          "internalType": "address",
          "name": "creator",
          "type": "address"
        },
        {
          "indexed": false,
          "internalType": "string",
          "name": "name",
          "type": "string"
        },
        {
          "indexed": false,
          "internalType": "string",
          "name": "symbol",
          "type": "string"
        },
        {
          "indexed": false,
          "internalType": "uint256",
          "name": "saleGoal",
          "type": "uint256"
        },
        {
          "indexed": false,
          "internalType": "string",
          "name": "logoUrl",
          "type": "string"
        },
        {
          "indexed": false,
          "internalType": "string",
          "name": "websiteUrl",
          "type": "string"
        },
        {
          "indexed": false,
          "internalType": "string",
          "name": "twitterUrl",
          "type": "string"
        },
        {
          "indexed": false,
          "internalType": "string",
          "name": "telegramUrl",
          "type": "string"
        },
        {
          "indexed": false,
          "internalType": "string",
          "name": "description",
          "type": "string"
        },
        {
          "indexed": false,
          "internalType": "string[]",
          "name": "relatedLinks",
          "type": "string[]"
        }
      ],
      "name": "SaleCreated",
      "type": "event"
    },
    {
      "anonymous": false,
      "inputs": [
        {
          "indexed": true,
          "internalType": "address",
          "name": "saleContractAddress",
          "type": "address"
        },
        {
          "indexed": true,
          "internalType": "address",
          "name": "launcher",
          "type": "address"
        }
      ],
      "name": "SaleLaunched",
      "type": "event"
    },
    {
      "anonymous": false,
      "inputs": [
        {
          "indexed": true,
          "internalType": "address",
          "name": "saleContractAddress",
          "type": "address"
        },
        {
          "indexed": true,
          "internalType": "address",
          "name": "buyer",
          "type": "address"
        },
        {
          "indexed": false,
          "internalType": "uint256",
          "name": "totalRaised",
          "type": "uint256"
        },
        {
          "indexed": false,
          "internalType": "uint256",
          "name": "tokenBalance",
          "type": "uint256"
        }
      ],
      "name": "TokensBought",
      "type": "event"
    },
    {
      "anonymous": false,
      "inputs": [
        {
          "indexed": true,
          "internalType": "address",
          "name": "saleContractAddress",
          "type": "address"
        },
        {
          "indexed": true,
          "internalType": "address",
          "name": "seller",
          "type": "address"
        },
        {
          "indexed": false,
          "internalType": "uint256",
          "name": "totalRaised",
          "type": "uint256"
        },
        {
          "indexed": false,
          "internalType": "uint256",
          "name": "tokenBalance",
          "type": "uint256"
        }
      ],
      "name": "TokensSold",
      "type": "event"
    },
    {
      "inputs": [
        {
          "internalType": "address",
          "name": "saleContractAddress",
          "type": "address"
        },
        {
          "internalType": "uint256",
          "name": "minTokensOut",
          "type": "uint256"
        },
        {
          "internalType": "string",
          "name": "message",
          "type": "string"
        }
      ],
      "name": "buyToken",
      "outputs": [],
      "stateMutability": "payable",
      "type": "function"
    },
    {
      "inputs": [
        {
          "internalType": "address",
          "name": "saleContractAddress",
          "type": "address"
        }
      ],
      "name": "claim",
      "outputs": [],
      "stateMutability": "nonpayable",
      "type": "function"
    },
    {
      "inputs": [
        {
          "internalType": "string",
          "name": "name",
          "type": "string"
        },
        {
          "internalType": "string",
          "name": "symbol",
          "type": "string"
        },
        {
          "internalType": "string",
          "name": "logoUrl",
          "type": "string"
        },
        {
          "internalType": "string",
          "name": "websiteUrl",
          "type": "string"
        },
        {
          "internalType": "string",
          "name": "twitterUrl",
          "type": "string"
        },
        {
          "internalType": "string",
          "name": "telegramUrl",
          "type": "string"
        },
        {
          "internalType": "string",
          "name": "description",
          "type": "string"
        },
        {
          "internalType": "string[]",
          "name": "relatedLinks",
          "type": "string[]"
        },
        {
          "internalType": "string",
          "name": "message",
          "type": "string"
        }
      ],
      "name": "createSale",
      "outputs": [],
      "stateMutability": "payable",
      "type": "function"
    },
    {
      "inputs": [
        {
          "internalType": "address",
          "name": "creator",
          "type": "address"
        }
      ],
      "name": "getCreatorTokens",
      "outputs": [
        {
          "internalType": "address[]",
          "name": "",
          "type": "address[]"
        }
      ],
      "stateMutability": "pure",
      "type": "function"
    },
    {
      "inputs": [
        {
          "internalType": "address",
          "name": "user",
          "type": "address"
        }
      ],
      "name": "getCurrentNonce",
      "outputs": [
        {
          "internalType": "uint256",
          "name": "",
          "type": "uint256"
        }
      ],
      "stateMutability": "view",
      "type": "function"
    },
    {
      "inputs": [
        {
          "internalType": "address",
          "name": "saleContractAddress",
          "type": "address"
        }
      ],
      "name": "getSaleMetadata",
      "outputs": [
        {
          "components": [
            {
              "internalType": "string",
              "name": "logoUrl",
              "type": "string"
            },
            {
              "internalType": "string",
              "name": "websiteUrl",
              "type": "string"
            },
            {
              "internalType": "string",
              "name": "twitterUrl",
              "type": "string"
            },
            {
              "internalType": "string",
              "name": "telegramUrl",
              "type": "string"
            },
            {
              "internalType": "string",
              "name": "description",
              "type": "string"
            },
            {
              "internalType": "string[]",
              "name": "relatedLinks",
              "type": "string[]"
            }
          ],
          "internalType": "struct Storage.SaleMetadata",
          "name": "",
          "type": "tuple"
        }
      ],
      "stateMutability": "pure",
      "type": "function"
    },
    {
      "inputs": [
        {
          "internalType": "address",
          "name": "user",
          "type": "address"
        }
      ],
      "name": "getUserBoughtTokens",
      "outputs": [
        {
          "internalType": "address[]",
          "name": "",
          "type": "address[]"
        }
      ],
      "stateMutability": "pure",
      "type": "function"
    },
    {
      "inputs": [
        {
          "internalType": "address",
          "name": "creator",
          "type": "address"
        },
        {
          "internalType": "string",
          "name": "name",
          "type": "string"
        },
        {
          "internalType": "string",
          "name": "symbol",
          "type": "string"
        },
        {
          "internalType": "uint256",
          "name": "nonce",
          "type": "uint256"
        }
      ],
      "name": "predictTokenAddress",
      "outputs": [
        {
          "internalType": "address",
          "name": "",
          "type": "address"
        }
      ],
      "stateMutability": "view",
      "type": "function"
    },
    {
      "inputs": [
        {
          "internalType": "address",
          "name": "saleContractAddress",
          "type": "address"
        },
        {
          "internalType": "uint256",
          "name": "tokenAmount",
          "type": "uint256"
        },
        {
          "internalType": "uint256",
          "name": "minEthOut",
          "type": "uint256"
        }
      ],
      "name": "sellToken",
      "outputs": [],
      "stateMutability": "nonpayable",
      "type": "function"
    },
    {
      "inputs": [
        {
          "internalType": "address",
          "name": "saleContractAddress",
          "type": "address"
        },
        {
          "internalType": "string",
          "name": "logoUrl",
          "type": "string"
        },
        {
          "internalType": "string",
          "name": "websiteUrl",
          "type": "string"
        },
        {
          "internalType": "string",
          "name": "twitterUrl",
          "type": "string"
        },
        {
          "internalType": "string",
          "name": "telegramUrl",
          "type": "string"
        },
        {
          "internalType": "string",
          "name": "description",
          "type": "string"
        }
      ],
      "name": "setSaleMetadata",
      "outputs": [],
      "stateMutability": "nonpayable",
      "type": "function"
    },
    {
      "inputs": [
        {
          "internalType": "uint256",
          "name": "_defaultSaleGoal",
          "type": "uint256"
        },
        {
          "internalType": "uint256",
          "name": "_defaultK",
          "type": "uint256"
        },
        {
          "internalType": "uint256",
          "name": "_defaultAlpha",
          "type": "uint256"
        },
        {
          "internalType": "address",
          "name": "_launchContractAddress",
          "type": "address"
        },
        {
          "internalType": "uint8",
          "name": "_buyLpFee",
          "type": "uint8"
        },
        {
          "internalType": "uint8",
          "name": "_sellLpFee",
          "type": "uint8"
        },
        {
          "internalType": "uint8",
          "name": "_buyProtocolFee",
          "type": "uint8"
        },
        {
          "internalType": "uint8",
          "name": "_sellProtocolFee",
          "type": "uint8"
        }
      ],
      "name": "updateParameters",
      "outputs": [],
      "stateMutability": "nonpayable",
      "type": "function"
    }
  ],
  "bytecode": "0x346101425760016000818155527fb10e2d527612073b26eecdfd717e6a320cf44b4afac2b0732d9fcbe2b7fa0cf680546001600160a01b031916331790557fb10e2d527612073b26eecdfd717e6a320cf44b4afac2b0732d9fcbe2b7fa0cf780546001600160d01b031916790505050502047a250d5630b4cf539739df2c5dacb4c659f2488d1790556b033b2e3c9fd0803ce80000007fb10e2d527612073b26eecdfd717e6a320cf44b4afac2b0732d9fcbe2b7fa0cf8556714d1120d7b1600007fb10e2d527612073b26eecdfd717e6a320cf44b4afac2b0732d9fcbe2b7fa0cf955670314b3d2e42300007fb10e2d527612073b26eecdfd717e6a320cf44b4afac2b0732d9fcbe2b7fa0cfa5563ab8acb807fb10e2d527612073b26eecdfd717e6a320cf44b4afac2b0732d9fcbe2b7fa0cfb55615e1e806101486080396080f35b600080fdfe608060405260043610156200001357600080fd5b60003560e01c80631e83409a14620000dd57806337f4ce0b14620000d75780633e11741f14620000d15780635a22fe5d14620000cb5780635b89a99a14620000c5578063637aa0fd14620000bf57806374abfa5414620000b95780637919225114620000b357806380de3cd514620000ad578063b38e399b14620000a75763fa9e836114620000a157600080fd5b62000f77565b62000e32565b62000bd8565b62000ad8565b62000a4f565b620009cf565b62000915565b6200087b565b620006f5565b6200038a565b62000116565b600435906001600160a01b0382168203620000fa57565b600080fd5b606435906001600160a01b0382168203620000fa57565b34620000fa576020366003190112620000fa5762000133620000e3565b6200013d620019b2565b6200016a6200016460056200015c846002600052602052604060002090565b015460ff1690565b62001d65565b620001b3620001ad620001a9620001a26200018f856009600052602052604060002090565b3360009081526020919091526040902090565b5460ff1690565b1590565b62001da6565b620001f5620001e833620001d1846009600052602052604060002090565b9060018060a01b0316600052602052604060002090565b805460ff19166001179055565b60405160009182906001600160a01b031633817f89309c9b2aeaffbdce717113df9427298b20448c05919bf889e05f8c3094254b8480a3803b156200028f5763df8de3e760e01b83523360048401528290602490829084905af1801562000289576200026b575b50620002686001600055565b80f35b806200027b6200028292620002a9565b8062001d14565b386200025c565b620019a6565b5080fd5b634e487b7160e01b600052604160045260246000fd5b6001600160401b038111620002bd57604052565b62000293565b60c081019081106001600160401b03821117620002bd57604052565b604081019081106001600160401b03821117620002bd57604052565b90601f801991011681019081106001600160401b03821117620002bd57604052565b906200032d6040519283620002fb565b565b81601f82011215620000fa578035906001600160401b038211620002bd576040519262000367601f8401601f191660200185620002fb565b82845260208383010111620000fa57816000926020809301838601378301015290565b6060366003190112620000fa57620003a1620000e3565b604435906001600160401b038211620000fa57620003c8620004899236906004016200032f565b90620003d3620019b2565b8091620003e9620003e362001c78565b6200233e565b620003fe34620003f862001cb3565b6200239a565b6200040862001a09565b926200044f62000422846002600052602052604060002090565b6007600052936001600160a01b039182916200045c919060008051602062005df2833981519152620001d1565b546001600160a01b031690565b16156200069d575b81169360408093815180988192634862ddc360e01b8352602435336004850162001980565b038134895af19384156200028957600096879562000661575b50866003820155620004cb620001a9620001a285620001d1336005600052602052604060002090565b6200061d575b600481015487101562000515575b50509051938452506020830152339160008051602062005dd28339815191529080604081015b0390a3620005136001600055565b005b6200057f60016200059b936200054a60056200044f956200053c620003e39b999b62001cd9565b01805460ff19166001179055565b33897f69e7fdd8bfefe80ac1fae30bf6e5d0146c3066558a5e66ed917f1e2a5444c5ae600080a301546001600160a01b031690565b60076000529460008051602062005df2833981519152620001d1565b843b15620000fa578251630a37530960e11b81526001600160a01b0394851660048201529316602484015233604484015260008360648183885af1918215620002895760008051602062005dd283398151915293620005059362000606575b829450819350620004df565b806200027b6200061692620002a9565b38620005fa565b6200063d8362000637336004600052602052604060002090565b62001790565b6200065b620001e884620001d1336005600052602052604060002090565b620004d1565b9094506200068a919650833d851162000695575b620006818183620002fb565b8101906200193e565b9590959338620004a2565b503d62000675565b9050620006aa8362001b5a565b600760005290620006ef33620006d08460008051602062005df2833981519152620001d1565b80546001600160a01b0319166001600160a01b03909216919091179055565b62000464565b34620000fa576060366003190112620000fa5762000712620000e3565b6200071c620019b2565b62000731816002600052602052604060002090565b906200074f62000749620001a9600585015460ff1690565b62001d20565b60408051633513923160e11b815233600482015260248035908201526044803590820152926001600160a01b03929092169190836064816000865af190811562000289576000938492620007e2575b5060030183905560408051938452602084019190915233927f697c42d55a5e1fed3f464ec6f38b32546a0bd368dc8068b065c67566d73f3290918190810162000505565b600394507f697c42d55a5e1fed3f464ec6f38b32546a0bd368dc8068b065c67566d73f329092509062000829620005059260403d81116200069557620006818183620002fb565b9095509250906200079e565b6020908160408183019282815285518094520193019160005b8281106200085d575050505090565b83516001600160a01b0316855293810193928101926001016200084e565b34620000fa57602080600319360112620000fa57620008ad6200089d620000e3565b6004600052602052604060002090565b90604051908181845491828152019360005281600020916000905b828210620008f457620008f085620008e381890382620002fb565b6040519182918262000835565b0390f35b83546001600160a01b031686529485019460019384019390910190620008c8565b34620000fa5760c0366003190112620000fa5762000932620000e3565b6001600160401b0390602435828111620000fa57620009569036906004016200032f565b604435838111620000fa57620009719036906004016200032f565b606435848111620000fa576200098c9036906004016200032f565b90608435858111620000fa57620009a89036906004016200032f565b9260a435958611620000fa57620009c8620005139636906004016200032f565b9462001de5565b34620000fa576080366003190112620000fa57620009ec620000e3565b6001600160401b03602435818111620000fa5762000a0f9036906004016200032f565b91604435918211620000fa5760209262000a3262000a3d9336906004016200032f565b906064359262002112565b6040516001600160a01b039091168152f35b34620000fa57602080600319360112620000fa5762000a8162000a71620000e3565b6008600052602052604060002090565b90604051908181845491828152019360005281600020916000905b82821062000ab757620008f085620008e381890382620002fb565b83546001600160a01b03168652948501946001938401939091019062000a9c565b34620000fa576020366003190112620000fa576001600160a01b0362000afd620000e3565b166000527ff652222313e28459528d920b65115c16c04f3efc82aaedc97be59f3f377c0d3f6020526020604060002054604051908152f35b6001600160401b038111620002bd5760051b60200190565b9080601f83011215620000fa5781359062000b688262000b35565b9262000b786040519485620002fb565b828452602092838086019160051b83010192808411620000fa57848301915b84831062000ba85750505050505090565b82356001600160401b038111620000fa57869162000bcc848480948901016200032f565b81520192019162000b97565b610120366003190112620000fa5760046001600160401b038135818111620000fa5762000c0990369084016200032f565b90602435818111620000fa5762000c2490369085016200032f565b604435828111620000fa5762000c3e90369086016200032f565b606435838111620000fa5762000c5890369087016200032f565b608435848111620000fa5762000c7290369088016200032f565b9060a435858111620000fa5762000c8d90369089016200032f565b9260c435868111620000fa5762000ca89036908a016200032f565b9460e435878111620000fa5762000cc39036908b0162000b4d565b9661010435908111620000fa57620005139962000ce3913691016200032f565b9762001166565b60005b83811062000cfe5750506000910152565b818101518382015260200162000ced565b9060209162000d2a8151809281855285808601910162000cea565b601f01601f1916010190565b90815180825260208092019182818360051b85019501936000915b84831062000d625750505050505090565b909192939495848062000d7e83856001950387528a5162000d0f565b980193019301919493929062000d51565b9062000e2f916020815262000db1825160c0602084015260e083019062000d0f565b9060c060a062000e1e62000e0a62000df562000de0602089015197601f1998898983030160408a015262000d0f565b60408901518888830301606089015262000d0f565b60608801518787830301608088015262000d0f565b608087015186868303018487015262000d0f565b940151928285030191015262000d36565b90565b34620000fa576020366003190112620000fa57620008f060a062000e55620000e3565b62000f23600562000e9f604093845162000e6f81620002c3565b60609681888093528260208201528288820152828082015282608082015201526003600052602052604060002090565b83519462000ead86620002c3565b845162000ec88162000ec0818662001a32565b0382620002fb565b8652845162000ee08162000ec0816001870162001a32565b602087015262000ef3600283016200204c565b8587015262000f05600383016200204c565b9086015262000f17600482016200204c565b6080860152016200206b565b60a0830152519182918262000d8f565b6084359060ff82168203620000fa57565b60a4359060ff82168203620000fa57565b60c4359060ff82168203620000fa57565b60e4359060ff82168203620000fa57565b34620000fa57610100366003190112620000fa5760243560443560043562000f9e620000ff565b9062000fa962000f33565b9062000fb462000f44565b9062000fbf62000f55565b9162000fca62000f66565b60016000527fb10e2d527612073b26eecdfd717e6a320cf44b4afac2b0732d9fcbe2b7fa0cf65490966001600160a01b039590918616330362001131578315620010f8576200108d6001620010c195620010a7948c62001051620010db9b620005139f6200103a9015156200226f565b62001047841515620022ae565b8d161515620022f1565b6200105b62001a09565b6003810193909355600483015560058201550180546001600160a01b0319166001600160a01b03909916989098178855565b865460ff60b01b191660b09190911b60ff60b01b16178655565b845460ff60b81b191660b89190911b60ff60b81b16178455565b825460ff60c01b191660c09190911b60ff60c01b16178255565b805460ff60c81b191660c89290921b60ff60c81b16919091179055565b60405162461bcd60e51b8152602060048201526011602482015270125b9d985b1a59081cd85b194819dbd85b607a1b6044820152606490fd5b60405162461bcd60e51b815260206004820152600d60248201526c2737ba103a34329037bbb732b960991b6044820152606490fd5b95979692909194939462001179620019b2565b3360009081527ff652222313e28459528d920b65115c16c04f3efc82aaedc97be59f3f377c0d3f602052604090208054620011b4906200150a565b90553360008181527ff652222313e28459528d920b65115c16c04f3efc82aaedc97be59f3f377c0d3f60205260409020549790620011f89089908690849062002112565b946200120e866002600052602052604060002090565b80546001600160a01b031916331781559a6200122e8360018e01620015c0565b6200123d8660028e01620015c0565b60038c019960008b558c6200125162001a09565b6003015460049091015560058d01805460ff1916905560068d01558162001282886003600052602052604060002090565b6200128e8682620015c0565b6200129d8760018301620015c0565b620012ac8b60028301620015c0565b620012bb8a60038301620015c0565b620012ca8360048301620015c0565b60050190620012d9916200169b565b8633620012f0906008600052602052604060002090565b90620012fc9162001790565b6200130662001a09565b805460a01c6200131690620017ea565b81546001600160a01b031660a09190911b6001600160a01b0319161790556200133e62001a09565b60030154976040998a51968796600160a01b600190039b8c339c169a62001366988a62001803565b037f01227633d4001cb01fc7bb6d3a21a63138baa49ea9bcc7ab71c1224a54fc6fb991a334620013a1575b50505050506200032d6001600055565b81620013c66200141796620013c06702c68af0bb1400003410620018ab565b62001b5a565b91821694620013d7861515620018f1565b6007600052620013fc33620006d08560008051602062005df2833981519152620001d1565b815180978192634862ddc360e01b8352336004840162001955565b038134885af192831562000289576000958694620014a5575b509162001482620001e860008051602062005dd28339815191529593886200149796556200146d8162000637336004600052602052604060002090565b620001d1336005600052602052604060002090565b51948552602085015233939081906040820190565b0390a3388080808062001391565b839192965060008051602062005dd28339815191529450620001e8620014e2620014829262001497963d86116200069557620006818183620002fb565b98908099975050939294505062001430565b634e487b7160e01b600052601160045260246000fd5b60001981146200151a5760010190565b620014f4565b90600182811c9216801562001552575b60208310146200153c57565b634e487b7160e01b600052602260045260246000fd5b91607f169162001530565b81811062001569575050565b600081556001016200155d565b9190601f81116200158657505050565b6200032d926000526020600020906020601f840160051c83019310620015b5575b601f0160051c01906200155d565b9091508190620015a7565b91909182516001600160401b038111620002bd57620015ec81620015e5845462001520565b8462001576565b602080601f83116001146200162b5750819293946000926200161f575b50508160011b916000199060031b1c1916179055565b01519050388062001609565b90601f198316956200164285600052602060002090565b926000905b888210620016825750508360019596971062001668575b505050811b019055565b015160001960f88460031b161c191690553880806200165e565b8060018596829496860151815501950193019062001647565b815191600160401b8311620002bd57815483835580841062001700575b50620016ce602080920192600052602060002090565b6000925b848410620016e1575050505050565b60018382620016f383945186620015c0565b01920193019290620016d2565b6000838152846020822092830192015b82811062001720575050620016b8565b806200172f6001925462001520565b806200173e575b500162001710565b601f908181118414620017585750508281555b3862001736565b836200177d926200176e85600052602060002090565b920160051c820191016200155d565b6000818152602081208183555562001751565b805490600160401b821015620002bd5760018201808255821015620017d4576000526020600020019060018060a01b03166001600160601b0360a01b825416179055565b634e487b7160e01b600052603260045260246000fd5b6001600160601b038091169081146200151a5760010190565b97946200186e906200185f8a6200188c9762000e2f9d9b9760406200184e6200187d996200183f6200189b9f9a61012080895288019062000d0f565b90868203602088015262000d0f565b9301528c820360608e015262000d0f565b908a820360808c015262000d0f565b9088820360a08a015262000d0f565b9086820360c088015262000d0f565b9084820360e086015262000d0f565b9161010081840391015262000d36565b15620018b357565b60405162461bcd60e51b8152602060048201526016602482015275151bdbc81b585b9e481d1bdad95b9cc8189bdd59da1d60521b6044820152606490fd5b15620018f957565b60405162461bcd60e51b815260206004820152601a60248201527f53616c6520636f6e7472616374206e6f74206465706c6f7965640000000000006044820152606490fd5b9190826040910312620000fa576020825192015190565b6001600160a01b0390911681526000602082015260606040820181905262000e2f9291019062000d0f565b62000e2f939260609260018060a01b031682526020820152816040820152019062000d0f565b6040513d6000823e3d90fd5b600260005414620019c4576002600055565b60405162461bcd60e51b815260206004820152601f60248201527f5265656e7472616e637947756172643a207265656e7472616e742063616c6c006044820152606490fd5b60016000527fb10e2d527612073b26eecdfd717e6a320cf44b4afac2b0732d9fcbe2b7fa0cf690565b906000929180549162001a458362001520565b91828252600193848116908160001462001aac575060011462001a69575b50505050565b90919394506000526020928360002092846000945b83861062001a9757505050500101903880808062001a63565b80548587018301529401938590820162001a7e565b9294505050602093945060ff191683830152151560051b0101903880808062001a63565b98939a99959094610120989362001b0960ff999462001afa8b998e61014090818152019062001a32565b8d810360208f01529062001a32565b6001600160a01b0391821660408d01529c1660608b015260808a015260a089015260c088015260e08701521661010085015216910152565b9062001b566020928281519485920162000cea565b0190565b80546001600160a01b03169062001c5b62001c686006830154604051908162001ba16020820192888490916034926001600160601b03199060601b16825260148201520190565b039162001bb7601f1993848101835282620002fb565b5190209462001c3e62001bc962001a09565b9562001c316139ef9762001be060208a016200031d565b98808a52620023e360208b01396002810154946004820154916005810154600160038301549201549360405198899760ff808860a81c169760a01c16953091600160028201910160208c0162001ad0565b03838101835282620002fb565b60405193849162001c5460208401809862001b41565b9062001b41565b03908101835282620002fb565b51906000f590813b15620000fa57565b6040519062001c8782620002df565b601a82527f2d2d2d2d2d2d2d2d20627579546f6b656e202d2d2d2d2d2d2d2d0000000000006020830152565b6040519062001cc282620002df565b6008825267195d1a081cd95b9d60c21b6020830152565b6040519062001ce882620002df565b601b82527f73616c65476f616c207265616368656420617420666163746f727900000000006020830152565b6000910312620000fa57565b1562001d2857565b60405162461bcd60e51b815260206004820152601560248201527414d85b1948185b1c9958591e481b185d5b98da1959605a1b6044820152606490fd5b1562001d6d57565b60405162461bcd60e51b815260206004820152601160248201527014d85b19481b9bdd081b185d5b98da1959607a1b6044820152606490fd5b1562001dae57565b60405162461bcd60e51b815260206004820152600f60248201526e105b1c9958591e4818db185a5b5959608a1b6044820152606490fd5b919594909360018060a01b03938462001e08856002600052602052604060002090565b5416330362001fb45762001e26846003600052602052604060002090565b978651986001600160401b038a11620002bd5762001e518a62001e4a835462001520565b8362001576565b6020998a601f821160011462001f0b575085600462001efa97969594938362001eeb948d9e9f7ffc22fda7d07e0d1f69c112c4012a9ecb13921bf7cda00247e143d46860089d8a9e60009262001eff575b50508160011b916000199060031b1c19161781555b62001ec68560018301620015c0565b62001ed58660028301620015c0565b62001ee48760038301620015c0565b01620015c0565b60405196879616988662001fe7565b0390a2565b01519050388f62001ea2565b9a601f19821662001f2184600052602060002090565b9c6000905b82821062001f9a57505087969594936001848d9e9f62001efa9b957ffc22fda7d07e0d1f69c112c4012a9ecb13921bf7cda00247e143d46860089d8a9f62001eeb986004971062001f80575b505050811b01815562001eb7565b015160001960f88460031b161c19169055388f8062001f72565b8c8401518f556001909e019d928301929081019062001f26565b60405162461bcd60e51b815260206004820152600b60248201526a2737ba1031b932b0ba37b960a91b6044820152606490fd5b939062000e2f95936200201f6200203d94620020106200202e9460a08a5260a08a019062000d0f565b9088820360208a015262000d0f565b90868203604088015262000d0f565b90848203606086015262000d0f565b91608081840391015262000d0f565b906200032d62002063926040519384809262001a32565b0383620002fb565b908154620020798162000b35565b926040936200208b85519182620002fb565b828152809460208092019260005281600020906000935b858510620020b257505050505050565b60018481928451620020ca8162000ec0818a62001a32565b815201930194019391620020a2565b98939a99959094610120989362001b0960ff9994620021038b998e61014090818152019062000d0f565b8d810360208f01529062000d0f565b9262002254620022639362000e2f95620021ff6200220c6200213362001a09565b92620021ea60405195620021dd6020809a896200216d83820192888490916034926001600160601b03199060601b16825260148201520190565b039962002183601f199b8c8101835282620002fb565b5190209b6139ef9862002198838b016200031d565b99808b52620023e3848c01396002810154600482015460058301549160016003850154940154956040519a8b9960ff808a60a81c169960a01c169730938c01620020d9565b03868101835282620002fb565b60405192839162001c54898401809762001b41565b03848101835282620002fb565b5190206040516001600160f81b03199481019485523060601b6bffffffffffffffffffffffff1916600186015260158501959095526035840152919291826055850162001c5b565b5190206001600160a01b031690565b6001600160a01b031690565b156200227757565b60405162461bcd60e51b815260206004820152600f60248201526e496e76616c6964204b2076616c756560881b6044820152606490fd5b15620022b657565b60405162461bcd60e51b8152602060048201526013602482015272496e76616c696420616c7068612076616c756560681b6044820152606490fd5b15620022f957565b60405162461bcd60e51b815260206004820152601760248201527f496e76616c6964206c61756e636820636f6e74726163740000000000000000006044820152606490fd5b620023706200237f6200032d9260405192839163104c13eb60e21b602084015260206024840152604483019062000d0f565b03601f198101835282620002fb565b600080916020815191016a636f6e736f6c652e6c6f675afa50565b6200237f620023cd916200032d93604051938492632d839cb360e21b602085015260406024850152606484019062000d0f565b90604483015203601f198101835282620002fb56fe6080604052346200044157620039ef803803806200001d8162000446565b928339810161014082820312620004415781516001600160401b0381116200044157816200004d9184016200046c565b602083015190916001600160401b0382116200044157620000709184016200046c565b916200007f60408201620004de565b6200008d60608301620004de565b90608083015160a08401519060c08501519260e0860151946101008701519660ff88168803620004415761012001516001600055601280546001600160a01b031990811673c02aaa39b223fe8d0a0e5c4f27ead9083c756cc2179091556014805490911673e97203b9ad2b6efcdddda642c798020c56ebffc3179055885190986001600160401b038211620003395760015490600182811c9216801562000436575b6020831014620003185781601f849311620003d5575b50602090601f83116001146200035b576000926200034f575b50508160011b916000199060031b1c1916176001555b88516001600160401b0381116200033957600254600181811c911680156200032e575b60208210146200031857601f8111620002c3575b506020601f82116001146200024657819060ff9a9b6000926200023a575b50508160011b916000199060031b1c1916176002555b60018060a01b0380921660018060a01b031960055416176005551660018060a01b03196006541617600655600755600b55600c55600d551660ff19600a541617600a556013556000600e556040516134bb9081620004f48239f35b015190503880620001c9565b60026000908152600080516020620039af8339815191529b90601f198416905b818110620002aa57509160ff9b9c9184600195941062000290575b505050811b01600255620001df565b015160001960f88460031b161c1916905538808062000281565b838301518e556001909d019c6020938401930162000266565b6002600052600080516020620039af833981519152601f830160051c81016020841062000310575b601f830160051c8201811062000303575050620001ab565b60008155600101620002eb565b5080620002eb565b634e487b7160e01b600052602260045260246000fd5b90607f169062000197565b634e487b7160e01b600052604160045260246000fd5b0151905038806200015e565b60016000908152600080516020620039cf8339815191529350601f198516905b818110620003bc5750908460019594939210620003a2575b505050811b0160015562000174565b015160001960f88460031b161c1916905538808062000393565b929360206001819287860151815501950193016200037b565b6001600052909150600080516020620039cf833981519152601f840160051c8101602085106200042e575b90849392915b601f830160051c820181106200041e57505062000145565b6000815585945060010162000406565b508062000400565b91607f16916200012f565b600080fd5b6040519190601f01601f191682016001600160401b038111838210176200033957604052565b919080601f84011215620004415782516001600160401b0381116200033957602090620004a2601f8201601f1916830162000446565b92818452828287010111620004415760005b818110620004ca57508260009394955001015290565b8581018301518482018401528201620004b4565b51906001600160a01b0382168203620004415756fe60808060405260043610156200001f575b5036156200001d57600080fd5b005b60003560e01c90816302d05d3f146200165d5750806306fdde0314620015ad578063089a122c146200158b5780630efc51a71462001561578063146ea6121462000f5f578063200d2ed21462000f3757806332fb56ca1462000e675780634862ddc31462000b1d5780634f0e0ef31462000af2578063518ab2a81462000ad2578063523fba7f1462000a9457806362f39bb414620009925780636334a8c4146200096f57806365731fe9146200092c5780636a27246214620006945780637e1c0c0914620006745780637fd6f15c14620006545780638091f3bf146200062c5780638d3d6576146200060c578063923108d914620005c557806395d89b4114620004cf5780639650b8df14620004a4578063b4f40c611462000484578063c45a01551462000459578063c5c4744c1462000439578063c7c049fc1462000419578063db1d0fd514620003f9578063df8de3e7146200023e578063e963eb3314620001fc578063f25f4b5614620001d15763fffe59e714620001a1573862000010565b34620001cc576000366003190112620001cc576004546040516001600160a01b039091168152602090f35b600080fd5b34620001cc576000366003190112620001cc576014546040516001600160a01b039091168152602090f35b34620001cc576020366003190112620001cc57600435601554811015620001cc576200022a604091620017a7565b506001815491015482519182526020820152f35b34620001cc57602080600319360112620001cc576200025c62001742565b6006546001600160a01b0392919062000279908416331462002461565b6200028362002589565b60ff600a5460081c1615620003c0578281169081600052600f835260406000205484600354169060011c9060405192858463a9059cbb60e01b9384825281600081620002e889886004840160209093929193604081019460018060a01b031681520152565b03925af180156200039257620003339787956000926200039e575b5060045416926040519889958694859384526004840160209093929193604081019460018060a01b031681520152565b03925af19283156200039257600f936200035e575b5060005252600060408120556001600055600080f35b6200038290833d85116200038a575b620003798183620016dd565b8101906200278f565b508362000348565b503d6200036d565b6040513d6000823e3d90fd5b620003b890873d89116200038a57620003798183620016dd565b508962000303565b60405162461bcd60e51b815260048101839052601160248201527014d85b19481b9bdd081b185d5b98da1959607a1b6044820152606490fd5b34620001cc576000366003190112620001cc576020600c54604051908152f35b34620001cc576000366003190112620001cc576020600d54604051908152f35b34620001cc576000366003190112620001cc576020600854604051908152f35b34620001cc576000366003190112620001cc576006546040516001600160a01b039091168152602090f35b34620001cc576000366003190112620001cc576020600b54604051908152f35b34620001cc576000366003190112620001cc576003546040516001600160a01b039091168152602090f35b34620001cc576000366003190112620001cc576040516000600254620004f58162001683565b808452906001908181169081156200059c57506001146200053d575b62000539846200052481860382620016dd565b60405191829160208352602083019062001700565b0390f35b6002600090815292507f405787fa12a823e0f2b7631cc41b3ba8828b3321ca811111fa75cd3aa3bb5ace5b82841062000583575050508101602001620005248262000511565b8054602085870181019190915290930192810162000568565b60ff191660208087019190915292151560051b8501909201925062000524915083905062000511565b34620001cc576020366003190112620001cc57600435601054811015620001cc57620005f360209162001759565b905460405160039290921b1c6001600160a01b03168152f35b34620001cc576000366003190112620001cc576020600954604051908152f35b34620001cc576000366003190112620001cc57602060ff600a5460081c166040519015158152f35b34620001cc576000366003190112620001cc576020601354604051908152f35b34620001cc576000366003190112620001cc576020600754604051908152f35b34620001cc576060366003190112620001cc57620006b162001742565b600654602435916001600160a01b0391620006d0908316331462002461565b620006da62002589565b600a5490620006f060ff8360081c16156200249d565b8315620008db5782169182600052602091600f83528460406000205410620008965760ff620007249160101c1615620024e2565b6200072f84620017e2565b90620007406044358310156200252c565b47821162000851576064620007586013548462002518565b0490620007856200076a83856200184b565b936200077988600e546200184b565b600e556008546200184b565b60085584600052600f84526040600020620007a28782546200184b565b905560008386811562000846575b600092839283928392f115620003925760008080938193601454168282156200083c575bf11562000392577f6db63bebf1e6540277744df32846ebdb98385b1a73f2d5de49b28348add63f50606060409585936200080d620025e0565b8751918252858201524287820152a260085491600052600f815282600020549060016000558351928352820152f35b506108fc620007d4565b6108fc9250620007b0565b60405162461bcd60e51b815260048101849052601d60248201527f496e73756666696369656e7420636f6e74726163742062616c616e63650000006044820152606490fd5b60405162461bcd60e51b815260048101849052601a60248201527f496e73756666696369656e7420746f6b656e2062616c616e63650000000000006044820152606490fd5b60405162461bcd60e51b815260206004820152602360248201527f546f6b656e20616d6f756e74206d75737420626520677265617465722074686160448201526206e20360ec1b6064820152608490fd5b34620001cc576020366003190112620001cc576001600160a01b036200095162001742565b166000526011602052602060ff604060002054166040519015158152f35b34620001cc576000366003190112620001cc57602060ff600a5416604051908152f35b34620001cc576000366003190112620001cc5760155467ffffffffffffffff811162000a7e57604051602090620009cf828460051b0182620016dd565b828152818101928360156000527f55f448fdea98c4d29eb340757ef0a66cd03dbb9538908a6a81d96026b71ec4756000915b83831062000a4f5760408051878152865181890181905289928201908960005b82811062000a2f5784840385f35b855180518552820151848301529481019460409093019260010162000a21565b60028660019260405162000a6381620016c0565b85548152848601548382015281520192019201919062000a01565b634e487b7160e01b600052604160045260246000fd5b34620001cc576020366003190112620001cc576001600160a01b0362000ab962001742565b16600052600f6020526020604060002054604051908152f35b34620001cc576000366003190112620001cc576020600e54604051908152f35b34620001cc576000366003190112620001cc576012546040516001600160a01b039091168152602090f35b6060366003190112620001cc5762000b3462001742565b60443567ffffffffffffffff808211620001cc5736602383011215620001cc57816004013590811162000a7e576040519260209162000b7d601f8201601f1916840186620016dd565b80855260249336858383010111620001cc57816000928686930183890137860101526006546001600160a01b03949062000bbb908616331462002461565b62000bc562002589565b600a549462000bdb60ff8760081c16156200249d565b6008549562000beb34886200228d565b600d549067016345785d8a0000820180921162000e52571162000e1a57341562000de85760ff62000c219160101c1615620024e2565b606462000c316013543462002518565b04908062000c4083346200184b565b9462000c788662000c518162002201565b9a62000c618b358d10156200252c565b62000c6f8c600e546200228d565b600e556200228d565b600855169586600052600f8652604060002062000c978982546200228d565b9055866000526011865260ff604060002054161562000d76575b50600080809381936014541682821562000d6c575bf1156200039257604094849262000d2c7f3e548710b6b01fd0dc0fd39691a19b31e42cb6efd2cebb8ddd4a64e7bc7c086793600854600d54111562000d55575b62000d10620025e0565b8851938493845287840152608089840152608083019062001700565b4260608301520390a260085491600052600f815282600020549060016000558351928352820152f35b6201000062ff000019600a541617600a5562000d06565b506108fc62000cc6565b60105490600160401b82101562000dd4575060008093819362000da184600185960160105562001759565b81549060031b90838d831b921b19161790558983526011895260408320600160ff19825416179055935093505062000cb1565b634e487b7160e01b60009081526041600452fd5b60405162461bcd60e51b815260048101869052600b818801526a139bc8115512081cd95b9d60aa1b6044820152606490fd5b60405162461bcd60e51b8152600481018690526011818801527014d85b194819dbd85b081c995858da1959607a1b6044820152606490fd5b87634e487b7160e01b60005260116004526000fd5b34620001cc576000366003190112620001cc57604051806010548083526020809301809160106000527f1b6847dc741a1b0cd08d278845f9d819d87b734759afb55fe2de5cb82a9ae6729060005b8682821062000f1957868662000ece82880383620016dd565b604051928392818401908285525180915260408401929160005b82811062000ef857505050500390f35b83516001600160a01b03168552869550938101939281019260010162000ee8565b83546001600160a01b03168552909301926001928301920162000eb5565b34620001cc576000366003190112620001cc57602060ff600a5460101c166040519015158152f35b34620001cc576060366003190112620001cc5762000f7c62001742565b6024356001600160a01b0381168103620001cc57604435906001600160a01b0382168203620001cc5762000fbc60018060a01b0360065416331462002461565b62000fc662002589565b600a5462000fdb60ff8260081c16156200249d565b600854600d5411620015245760ff8160101c1615620014f25761ff00191661010017600a5560405162001036600882620010186020820162002647565b67706f73697469766560c01b815203601719810184520182620016dd565b604051620010676003826200104e60208201620026db565b62706f7360e81b815203601c19810184520182620016dd565b6007546040519283610ce981011067ffffffffffffffff610ce98601111762000a7e578392620010a992610ce9620027c6863960011c91610ce985016200275d565b03906000f080156200039257604051620010eb600882620010cd6020820162002647565b676e6567617469766560c01b815203601719810184520182620016dd565b604051906200111d6003836200110460208201620026db565b626e656760e81b815203601c19810185520183620016dd565b60075460011c9160405192610ce984019184831067ffffffffffffffff84111762000a7e5784936200115893610ce9620027c687396200275d565b03906000f093841562000392576bffffffffffffffffffffffff60a01b60018060a01b03831681600354161760035560018060a01b038616906004541617600455620011aa600754600e54906200184b565b9460085460ff600a541660640360ff8111620014945760649160ff620011d292169062002518565b60405163095ea7b360e01b81526001600160a01b0385166004820152600189901c6024820152919004936020908290816000816044810103926001600160a01b03165af180156200039257620014ce575b5060405163095ea7b360e01b81526001600160a01b038381166004830152600188901c6024830152909160209183916044918391600091165af180156200039257620014aa575b506104b0420190814211620014945760035460405163f305d71960e01b8082526001600160a01b039283166004830152600189811c6024840152600060448401529590951c6064820181905230608483015260a48201859052909390929091169060608460c48186865af1801562000392578895606095859262001472575b50600480546040519283526001600160a01b03169082015260019690961c602487015260006044870152606486019390935230608486015260a4850152839160c4918391905af1801562000392576200143c575b50478015620013f75760011c906000808080858181159687620013ec575b6001600160a01b031690f11562000392576000808093819387968391620013e1575b6001600160a01b031690f115620003925760018060a01b036003541660018060a01b0360045416916040519060011c81524260208201527ffedb51b13e7432bcb4a213b2be92ee7637c20671f653bf0892174f0e4a26175560403092a46001600055005b6108fc91506200137d565b6108fc91506200135b565b60405162461bcd60e51b815260206004820152601c60248201527f4e6f2062616c616e636520666f722063726561746f72207368617265000000006044820152606490fd5b620014629060603d6060116200146a575b620014598183620016dd565b810190620027a9565b50506200133d565b503d6200144d565b6200148c90873d89116200146a57620014598183620016dd565b5050620012e9565b634e487b7160e01b600052601160045260246000fd5b620014c69060203d6020116200038a57620003798183620016dd565b50856200126a565b620014ea9060203d6020116200038a57620003798183620016dd565b508662001223565b60405162461bcd60e51b815260206004820152600a6024820152691b9bdd08189bdb99195960b21b6044820152606490fd5b60405162461bcd60e51b815260206004820152601560248201527414d85b194819dbd85b081b9bdd081c995858da1959605a1b6044820152606490fd5b34620001cc576020366003190112620001cc5760206200158360043562002201565b604051908152f35b34620001cc576020366003190112620001cc57602062001583600435620017e2565b34620001cc576000366003190112620001cc5760405160006001805490620015d58262001683565b808552918181169081156200059c5750600114620016005762000539846200052481860382620016dd565b600081815292507fb10e2d527612073b26eecdfd717e6a320cf44b4afac2b0732d9fcbe2b7fa0cf65b82841062001644575050508101602001620005248262000511565b8054602085870181019190915290930192810162001629565b34620001cc576000366003190112620001cc576005546001600160a01b03168152602090f35b90600182811c92168015620016b5575b60208310146200169f57565b634e487b7160e01b600052602260045260246000fd5b91607f169162001693565b6040810190811067ffffffffffffffff82111762000a7e57604052565b90601f8019910116810190811067ffffffffffffffff82111762000a7e57604052565b919082519283825260005b8481106200172d575050826000602080949584010152601f8019910116010190565b6020818301810151848301820152016200170b565b600435906001600160a01b0382168203620001cc57565b601054811015620017915760106000527f1b6847dc741a1b0cd08d278845f9d819d87b734759afb55fe2de5cb82a9ae6720190600090565b634e487b7160e01b600052603260045260246000fd5b6015548110156200179157601560005260011b7f55f448fdea98c4d29eb340757ef0a66cd03dbb9538908a6a81d96026b71ec4750190600090565b620018489062001841600e54916200182d6200182662001820600b54936200183a600c549162001833876200182d62001826620018208d8862002169565b62001859565b8262002169565b6200184b565b986200184b565b9062002169565b906200184b565b90565b919082039182116200149457565b680736ea4425c11ac630811162002151576714057b7ef767814f90670de0b6b3a7640000918291020490680a688906bd8affffff82116200213857604091821b81900490600160bf1b67ff00000000000000831662002017575b66ff000000000000831662001eff575b65ff0000000000831662001def575b64ff00000000831662001ce7575b63ff000000831662001be7575b62ff0000831662001aef575b61ff008316620019ff575b60ff831662001918575b02911c60bf031c90565b60808316620019ec575b838316620019d9575b60208316620019c6575b60108316620019b3575b60088316620019a0575b600483166200198d575b600283166200197a575b60018316156200190e576801000000000000000102831c6200190e565b6801000000000000000102831c6200195d565b6801000000000000000302831c62001953565b6801000000000000000602831c62001949565b6801000000000000000b02831c6200193f565b6801000000000000001602831c62001935565b6801000000000000002c02831c6200192b565b6801000000000000005902831c62001922565b618000831662001adc575b614000831662001ac9575b612000831662001ab6575b611000831662001aa3575b610800831662001a90575b610400831662001a7d575b610200831662001a6a575b6101008316156200190457680100000000000000b102831c62001904565b6801000000000000016302831c62001a4c565b680100000000000002c602831c62001a41565b6801000000000000058c02831c62001a36565b68010000000000000b1702831c62001a2b565b6801000000000000162e02831c62001a20565b68010000000000002c5d02831c62001a15565b680100000000000058b902831c62001a0a565b62800000831662001bd4575b62400000831662001bc1575b62200000831662001bae575b62100000831662001b9b575b62080000831662001b88575b62040000831662001b75575b62020000831662001b62575b62010000831615620018f9576801000000000000b17202831c620018f9565b680100000000000162e402831c62001b43565b6801000000000002c5c802831c62001b37565b68010000000000058b9102831c62001b2b565b680100000000000b172102831c62001b1f565b68010000000000162e4302831c62001b13565b680100000000002c5c8602831c62001b07565b6801000000000058b90c02831c62001afb565b6380000000831662001cd4575b6340000000831662001cc1575b6320000000831662001cae575b6310000000831662001c9b575b6308000000831662001c88575b6304000000831662001c75575b6302000000831662001c62575b6301000000831615620018ed5768010000000000b1721802831c620018ed565b6801000000000162e43002831c62001c42565b68010000000002c5c86002831c62001c35565b680100000000058b90c002831c62001c28565b6801000000000b17217f02831c62001c1b565b680100000000162e42ff02831c62001c0e565b6801000000002c5c85fe02831c62001c01565b68010000000058b90bfc02831c62001bf4565b648000000000831662001ddc575b644000000000831662001dc9575b642000000000831662001db6575b641000000000831662001da3575b640800000000831662001d90575b640400000000831662001d7d575b640200000000831662001d6a575b640100000000831615620018e057680100000000b17217f802831c620018e0565b68010000000162e42ff102831c62001d49565b680100000002c5c85fe302831c62001d3b565b6801000000058b90bfce02831c62001d2d565b68010000000b17217fbb02831c62001d1f565b6801000000162e42fff002831c62001d11565b68010000002c5c8601cc02831c62001d03565b680100000058b90c0b4902831c62001cf5565b65800000000000831662001eec575b65400000000000831662001ed9575b65200000000000831662001ec6575b65100000000000831662001eb3575b65080000000000831662001ea0575b65040000000000831662001e8d575b65020000000000831662001e7a575b65010000000000831615620018d2576801000000b17218355102831c620018d2565b680100000162e430e5a202831c62001e58565b6801000002c5c863b73f02831c62001e49565b68010000058b90cf1e6e02831c62001e3a565b680100000b1721bcfc9a02831c62001e2b565b68010000162e43f4f83102831c62001e1c565b680100002c5c89d5ec6d02831c62001e0d565b6801000058b91b5bc9ae02831c62001dfe565b6680000000000000831662002004575b6640000000000000831662001ff1575b6620000000000000831662001fde575b6610000000000000831662001fcb575b6608000000000000831662001fb8575b6604000000000000831662001fa5575b6602000000000000831662001f92575b6601000000000000831615620018c35768010000b17255775c0402831c620018c3565b6801000162e525ee054702831c62001f6f565b68010002c5cc37da949202831c62001f5f565b680100058ba01fb9f96d02831c62001f4f565b6801000b175effdc76ba02831c62001f3f565b680100162f3904051fa102831c62001f2f565b6801002c605e2e8cec5002831c62001f1f565b68010058c86da1c09ea202831c62001f0f565b678000000000000000831662002124575b674000000000000000831662002111575b6720000000000000008316620020fe575b6710000000000000008316620020eb575b6708000000000000008316620020d8575b6704000000000000008316620020c5575b6702000000000000008316620020b2575b670100000000000000831615620018b357680100b1afa5abcbed6102831c620018b3565b68010163da9fb33356d802831c6200208e565b680102c9a3e778060ee702831c6200207d565b6801059b0d31585743ae02831c6200206c565b68010b5586cf9890f62a02831c6200205b565b6801172b83c7d517adce02831c6200204a565b6801306fe0a31b7152df02831c62002039565b5068016a09e667f3bcc909607f1b62002028565b60405163b3b6ba1f60e01b815260048101839052602490fd5b60249060405190630d7b1d6560e11b82526004820152fd5b90919060001983820983820291828083109203918083039214620021f057670de0b6b3a76400009081831015620021d257947faccb18165bd6fe31ae1cf318dc5b51eee0e1ba569b88cd74c1773b91fac1066994950990828211900360ee1b910360121c170290565b6044908660405191635173648d60e01b835260048301526024820152fd5b5050670de0b6b3a764000090049150565b62001848906200182d60085491600b5490600c5491620022626200225c6200225683620022716714057b7ef767814f966200226a89898d620022626200225c62002256670de0b6b3a76400009d8e946200229b565b62002277565b62002365565b02046200229b565b9a6200228d565b6200229b565b90670de0b6b3a764000082018092116200149457565b919082018092116200149457565b670de0b6b3a76400009160001983830992808302928380861095039480860395146200234057828510156200231d57908291096001821901821680920460028082600302188083028203028083028203028083028203028083028203028083028203028092029003029360018380600003040190848311900302920304170290565b8260649260405192630c740aef60e31b8452600484015260248301526044820152fd5b5050809250156200234f570490565b634e487b7160e01b600052601260045260246000fd5b90670de0b6b3a76400009182811062002449578281046fffffffffffffffffffffffffffffffff811160071b90811c9067ffffffffffffffff821160061b91821c63ffffffff811160051b90811c61ffff811160041b90811c60ff811160031b90811c91600f831160021b92831c936001968760038711811b96871c11961717171717171791848302921c9380851462002442576706f05b59d3b2000094855b6200241257509193505050565b808291020494671bc16d674ec8000086101562002434575b821c948562002405565b8095930192821c946200242a565b5090925050565b6024906040519063036d32ef60e41b82526004820152fd5b156200246957565b60405162461bcd60e51b815260206004820152600c60248201526b4f6e6c7920666163746f727960a01b6044820152606490fd5b15620024a557565b60405162461bcd60e51b815260206004820152601560248201527414d85b1948185b1c9958591e481b185d5b98da1959605a1b6044820152606490fd5b15620024ea57565b60405162461bcd60e51b8152602060048201526006602482015265189bdb99195960d21b6044820152606490fd5b818102929181159184041417156200149457565b156200253457565b60405162461bcd60e51b815260206004820152602760248201527f536c69707061676520746f6f20686967682c207472616e73616374696f6e2072604482015266195d995c9d195960ca1b6064820152608490fd5b6002600054146200259b576002600055565b60405162461bcd60e51b815260206004820152601f60248201527f5265656e7472616e637947756172643a207265656e7472616e742063616c6c006044820152606490fd5b600854604051620025f181620016c0565b42815260208101918252601554600160401b81101562000a7e578060016200261d9201601555620017a7565b929092620026315760019151835551910155565b634e487b7160e01b600052600060045260246000fd5b906000916001908154916200265c8362001683565b92818116908115620026c857506001146200267657505050565b8091929394506000527fb10e2d527612073b26eecdfd717e6a320cf44b4afac2b0732d9fcbe2b7fa0cf6906000915b848310620026b4575050500190565b8181602092548587015201920191620026a5565b60ff191683525050811515909102019150565b60025460009291620026ed8262001683565b91600190818116908115620026c857506001146200270a57505050565b909192935060026000527f405787fa12a823e0f2b7631cc41b3ba8828b3321ca811111fa75cd3aa3bb5ace906000915b84831062002749575050500190565b81816020925485870152019201916200273a565b9392916200278a906200277b60409360608852606088019062001700565b90868203602088015262001700565b930152565b90816020910312620001cc57518015158103620001cc5790565b90816060910312620001cc57805191604060208301519201519056fe60406080815234620003cb5762000ce9803803806200001e81620003d0565b9283398101606082820312620003cb5781516001600160401b039290838111620003cb578262000050918301620003f6565b9260209283830151828111620003cb5786916200006f918501620003f6565b92015193805191808311620002cb5760038054936001938486811c96168015620003c0575b88871014620003aa578190601f9687811162000354575b508890878311600114620002ed57600092620002e1575b505060001982841b1c191690841b1781555b8451918211620002cb5760049485548481811c91168015620002c0575b88821014620002ab5785811162000260575b508690858411600114620001f557938394918492600095620001e9575b50501b92600019911b1c19161782555b3315620001aa5750600254908382018092116200019557506000917fddf252ad1be2c89b69c2b068fc378daa952ba7f163c4a11628f55a4df523b3ef9160025533835282815284832084815401905584519384523393a3516108809081620004698239f35b601190634e487b7160e01b6000525260246000fd5b60649285519262461bcd60e51b845283015260248201527f45524332303a206d696e7420746f20746865207a65726f2061646472657373006044820152fd5b01519350388062000120565b9190601f198416928760005284896000209460005b8b898383106200024857505050106200022d575b50505050811b01825562000130565b01519060f884600019921b161c19169055388080806200021e565b8686015189559097019694850194889350016200020a565b86600052876000208680860160051c8201928a8710620002a1575b0160051c019085905b8281106200029457505062000103565b6000815501859062000284565b925081926200027b565b602287634e487b7160e01b6000525260246000fd5b90607f1690620000f1565b634e487b7160e01b600052604160045260246000fd5b015190503880620000c2565b90869350601f19831691856000528a6000209260005b8c8282106200033d575050841162000324575b505050811b018155620000d4565b015160001983861b60f8161c1916905538808062000316565b8385015186558a9790950194938401930162000303565b90915083600052886000208780850160051c8201928b8610620003a0575b918891869594930160051c01915b82811062000390575050620000ab565b6000815585945088910162000380565b9250819262000372565b634e487b7160e01b600052602260045260246000fd5b95607f169562000094565b600080fd5b6040519190601f01601f191682016001600160401b03811183821017620002cb57604052565b919080601f84011215620003cb5782516001600160401b038111620002cb576020906200042c601f8201601f19168301620003d0565b92818452828287010111620003cb5760005b8181106200045457508260009394955001015290565b85810183015184820184015282016200043e56fe608060408181526004918236101561001657600080fd5b600092833560e01c91826306fdde03146104ad57508163095ea7b31461048357816318160ddd1461046457816323b872dd1461039a578163313ce5671461037e578163395093511461031757816370a08231146102e057816395d89b41146101c1578163a457c2d71461011957508063a9059cbb146100e95763dd62ed3e1461009e57600080fd5b346100e557806003193601126100e557806020926100ba6105d2565b6100c26105ed565b6001600160a01b0391821683526001865283832091168252845220549051908152f35b5080fd5b50346100e557806003193601126100e5576020906101126101086105d2565b6024359033610603565b5160018152f35b905082346101be57826003193601126101be576101346105d2565b918360243592338152600160205281812060018060a01b038616825260205220549082821061016d576020856101128585038733610771565b608490602086519162461bcd60e51b8352820152602560248201527f45524332303a2064656372656173656420616c6c6f77616e63652062656c6f77604482015264207a65726f60d81b6064820152fd5b80fd5b8383346100e557816003193601126100e557805190828454600181811c908083169283156102d6575b60209384841081146102c3578388529081156102a75750600114610252575b505050829003601f01601f191682019267ffffffffffffffff84118385101761023f575082918261023b925282610589565b0390f35b634e487b7160e01b815260418552602490fd5b8787529192508591837f8a35acfbc15ff81a39ae7d344fd709f28e8600b4aa8c65c6b64bfe7fe36bd19b5b8385106102935750505050830101858080610209565b80548886018301529301928490820161027d565b60ff1916878501525050151560051b8401019050858080610209565b634e487b7160e01b895260228a52602489fd5b91607f16916101ea565b5050346100e55760203660031901126100e55760209181906001600160a01b036103086105d2565b16815280845220549051908152f35b8284346101be57816003193601126101be576103316105d2565b338252600160209081528383206001600160a01b038316845290528282205460243581019290831061036b57602084610112858533610771565b634e487b7160e01b815260118552602490fd5b5050346100e557816003193601126100e5576020905160128152f35b839150346100e55760603660031901126100e5576103b66105d2565b6103be6105ed565b91846044359460018060a01b0384168152600160205281812033825260205220549060001982036103f8575b602086610112878787610603565b84821061042157509183916104166020969561011295033383610771565b9193948193506103ea565b606490602087519162461bcd60e51b8352820152601d60248201527f45524332303a20696e73756666696369656e7420616c6c6f77616e63650000006044820152fd5b5050346100e557816003193601126100e5576020906002549051908152f35b5050346100e557806003193601126100e5576020906101126104a36105d2565b6024359033610771565b8490843461058557826003193601126105855782600354600181811c9080831692831561057b575b60209384841081146102c3578388529081156102a7575060011461052557505050829003601f01601f191682019267ffffffffffffffff84118385101761023f575082918261023b925282610589565b600387529192508591837fc2575a0e9e593c00f959f8c92f12db2869c3395a3b0502d05e2516446f71f85b5b8385106105675750505050830101858080610209565b805488860183015293019284908201610551565b91607f16916104d5565b8280fd5b6020808252825181830181905290939260005b8281106105be57505060409293506000838284010152601f8019910116010190565b81810186015184820160400152850161059c565b600435906001600160a01b03821682036105e857565b600080fd5b602435906001600160a01b03821682036105e857565b6001600160a01b0390811691821561071e57169182156106cd5760008281528060205260408120549180831061067957604082827fddf252ad1be2c89b69c2b068fc378daa952ba7f163c4a11628f55a4df523b3ef958760209652828652038282205586815220818154019055604051908152a3565b60405162461bcd60e51b815260206004820152602660248201527f45524332303a207472616e7366657220616d6f756e7420657863656564732062604482015265616c616e636560d01b6064820152608490fd5b60405162461bcd60e51b815260206004820152602360248201527f45524332303a207472616e7366657220746f20746865207a65726f206164647260448201526265737360e81b6064820152608490fd5b60405162461bcd60e51b815260206004820152602560248201527f45524332303a207472616e736665722066726f6d20746865207a65726f206164604482015264647265737360d81b6064820152608490fd5b6001600160a01b0390811691821561082257169182156107d25760207f8c5be1e5ebec7d5bd14f71427d1e84f3dd0314c0f7b2291e5b200ac8c7c3b925918360005260018252604060002085600052825280604060002055604051908152a3565b60405162461bcd60e51b815260206004820152602260248201527f45524332303a20617070726f766520746f20746865207a65726f206164647265604482015261737360f01b6064820152608490fd5b60405162461bcd60e51b8152602060048201526024808201527f45524332303a20617070726f76652066726f6d20746865207a65726f206164646044820152637265737360e01b6064820152608490fdfea164736f6c6343000813000aa164736f6c6343000813000a405787fa12a823e0f2b7631cc41b3ba8828b3321ca811111fa75cd3aa3bb5aceb10e2d527612073b26eecdfd717e6a320cf44b4afac2b0732d9fcbe2b7fa0cf6c244d500136edffae7025aaf7fbd7a07193ac544a1d0cc3132cf2a32452d340ca66cc928b5edb82af9bd49922954155ab7b0942694bea4ce44661d9a8736c688a164736f6c6343000813000a",
  "linkReferences": {},
  "deployedLinkReferences": {}
}